Component: ARM Compiler 5.06 update 6 (build 750) Tool: armlink [4d35ed]

==============================================================================

Section Cross References

    startup_stm32l431xx.o(RESET) refers to startup_stm32l431xx.o(STACK) for __initial_sp
    startup_stm32l431xx.o(RESET) refers to startup_stm32l431xx.o(.text) for Reset_Handler
    startup_stm32l431xx.o(RESET) refers to stm32l4xx_it.o(i.NMI_Handler) for NMI_Handler
    startup_stm32l431xx.o(RESET) refers to stm32l4xx_it.o(i.HardFault_Handler) for HardFault_Handler
    startup_stm32l431xx.o(RESET) refers to stm32l4xx_it.o(i.MemManage_Handler) for MemManage_Handler
    startup_stm32l431xx.o(RESET) refers to stm32l4xx_it.o(i.BusFault_Handler) for BusFault_Handler
    startup_stm32l431xx.o(RESET) refers to stm32l4xx_it.o(i.UsageFault_Handler) for UsageFault_Handler
    startup_stm32l431xx.o(RESET) refers to port.o(.emb_text) for SVC_Handler
    startup_stm32l431xx.o(RESET) refers to stm32l4xx_it.o(i.DebugMon_Handler) for DebugMon_Handler
    startup_stm32l431xx.o(RESET) refers to port.o(i.SysTick_Handler) for SysTick_Handler
    startup_stm32l431xx.o(RESET) refers to stm32l4xx_it.o(i.DMA1_Channel3_IRQHandler) for DMA1_Channel3_IRQHandler
    startup_stm32l431xx.o(RESET) refers to stm32l4xx_it.o(i.TIM1_UP_TIM16_IRQHandler) for TIM1_UP_TIM16_IRQHandler
    startup_stm32l431xx.o(RESET) refers to stm32l4xx_it.o(i.USART1_IRQHandler) for USART1_IRQHandler
    startup_stm32l431xx.o(RESET) refers to stm32l4xx_it.o(i.DMA2_Channel7_IRQHandler) for DMA2_Channel7_IRQHandler
    startup_stm32l431xx.o(RESET) refers to stm32l4xx_it.o(i.LPUART1_IRQHandler) for LPUART1_IRQHandler
    startup_stm32l431xx.o(.text) refers to system_stm32l4xx.o(i.SystemInit) for SystemInit
    startup_stm32l431xx.o(.text) refers to entry.o(.ARM.Collect$$$$00000000) for __main
    sensor_work.o(i.Sensor_Task) refers to e53_ia1.o(i.BH1750_Send_Cmd) for BH1750_Send_Cmd
==============================================================================

Removing Unused input sections from the image.

    Removing sensor_work.o(.rev16_text), (4 bytes).
    Removing sensor_work.o(.revsh_text), (4 bytes).
    Removing sensor_work.o(.rrx_text), (6 bytes).
    Removing main.o(.rev16_text), (4 bytes).
    Removing main.o(.revsh_text), (4 bytes).
    Removing main.o(.rrx_text), (6 bytes).
    Removing gpio.o(.rev16_text), (4 bytes).
    Removing gpio.o(.revsh_text), (4 bytes).
    Removing gpio.o(.rrx_text), (6 bytes).
    Removing freertos.o(.rev16_text), (4 bytes).
    Removing freertos.o(.revsh_text), (4 bytes).
    Removing freertos.o(.rrx_text), (6 bytes).
    Removing dma.o(.rev16_text), (4 bytes).
    Removing dma.o(.revsh_text), (4 bytes).
    Removing dma.o(.rrx_text), (6 bytes).
    Removing i2c.o(.rev16_text), (4 bytes).
    Removing i2c.o(.revsh_text), (4 bytes).
    Removing i2c.o(.rrx_text), (6 bytes).
==============================================================================

Image Symbol Table

    Local Symbols

    Symbol Name                              Value     Ov Type        Size  Object(Section)

    ../Core/Src/dma.c                        0x00000000   Number         0  dma.o ABSOLUTE
    ../Core/Src/freertos.c                   0x00000000   Number         0  freertos.o ABSOLUTE
    ../Core/Src/gpio.c                       0x00000000   Number         0  gpio.o ABSOLUTE
    ../Core/Src/i2c.c                        0x00000000   Number         0  i2c.o ABSOLUTE
    ../Core/Src/iwdg.c                       0x00000000   Number         0  iwdg.o ABSOLUTE
    ../Core/Src/main.c                       0x00000000   Number         0  main.o ABSOLUTE
    ../Core/Src/spi.c                        0x00000000   Number         0  spi.o ABSOLUTE
    ../Core/Src/stm32l4xx_hal_msp.c          0x00000000   Number         0  stm32l4xx_hal_msp.o ABSOLUTE
    ../Core/Src/stm32l4xx_hal_timebase_tim.c 0x00000000   Number         0  stm32l4xx_hal_timebase_tim.o ABSOLUTE
    ../Core/Src/stm32l4xx_it.c               0x00000000   Number         0  stm32l4xx_it.o ABSOLUTE
    ../Core/Src/system_stm32l4xx.c           0x00000000   Number         0  system_stm32l4xx.o ABSOLUTE
    ../Core/Src/usart.c                      0x00000000   Number         0  usart.o ABSOLUTE
    ../Drivers/STM32L4xx_HAL_Driver/Src/stm32l4xx_hal.c 0x00000000   Number         0  stm32l4xx_hal.o ABSOLUTE
    ../Drivers/STM32L4xx_HAL_Driver/Src/stm32l4xx_hal_cortex.c 0x00000000   Number         0  stm32l4xx_hal_cortex.o ABSOLUTE
    ../Drivers/STM32L4xx_HAL_Driver/Src/stm32l4xx_hal_dma.c 0x00000000   Number         0  stm32l4xx_hal_dma.o ABSOLUTE
    ../Drivers/STM32L4xx_HAL_Driver/Src/stm32l4xx_hal_dma_ex.c 0x00000000   Number         0  stm32l4xx_hal_dma_ex.o ABSOLUTE
    ../Drivers/STM32L4xx_HAL_Driver/Src/stm32l4xx_hal_exti.c 0x00000000   Number         0  stm32l4xx_hal_exti.o ABSOLUTE
    ../Drivers/STM32L4xx_HAL_Driver/Src/stm32l4xx_hal_flash.c 0x00000000   Number         0  stm32l4xx_hal_flash.o ABSOLUTE
    ../Drivers/STM32L4xx_HAL_Driver/Src/stm32l4xx_hal_flash_ex.c 0x00000000   Number         0  stm32l4xx_hal_flash_ex.o ABSOLUTE
    ../Drivers/STM32L4xx_HAL_Driver/Src/stm32l4xx_hal_flash_ramfunc.c 0x00000000   Number         0  stm32l4xx_hal_flash_ramfunc.o ABSOLUTE
    ../Drivers/STM32L4xx_HAL_Driver/Src/stm32l4xx_hal_gpio.c 0x00000000   Number         0  stm32l4xx_hal_gpio.o ABSOLUTE
    ../Drivers/STM32L4xx_HAL_Driver/Src/stm32l4xx_hal_i2c.c 0x00000000   Number         0  stm32l4xx_hal_i2c.o ABSOLUTE
    ../Drivers/STM32L4xx_HAL_Driver/Src/stm32l4xx_hal_i2c_ex.c 0x00000000   Number         0  stm32l4xx_hal_i2c_ex.o ABSOLUTE
    ../Drivers/STM32L4xx_HAL_Driver/Src/stm32l4xx_hal_iwdg.c 0x00000000   Number         0  stm32l4xx_hal_iwdg.o ABSOLUTE
    ../Drivers/STM32L4xx_HAL_Driver/Src/stm32l4xx_hal_pwr.c 0x00000000   Number         0  stm32l4xx_hal_pwr.o ABSOLUTE
    ../Drivers/STM32L4xx_HAL_Driver/Src/stm32l4xx_hal_pwr_ex.c 0x00000000   Number         0  stm32l4xx_hal_pwr_ex.o ABSOLUTE
    ../Drivers/STM32L4xx_HAL_Driver/Src/stm32l4xx_hal_rcc.c 0x00000000   Number         0  stm32l4xx_hal_rcc.o ABSOLUTE
    ../Drivers/STM32L4xx_HAL_Driver/Src/stm32l4xx_hal_rcc_ex.c 0x00000000   Number         0  stm32l4xx_hal_rcc_ex.o ABSOLUTE
    ../Drivers/STM32L4xx_HAL_Driver/Src/stm32l4xx_hal_spi.c 0x00000000   Number         0  stm32l4xx_hal_spi.o ABSOLUTE
    ../Drivers/STM32L4xx_HAL_Driver/Src/stm32l4xx_hal_spi_ex.c 0x00000000   Number         0  stm32l4xx_hal_spi_ex.o ABSOLUTE
    ../Drivers/STM32L4xx_HAL_Driver/Src/stm32l4xx_hal_tim.c 0x00000000   Number         0  stm32l4xx_hal_tim.o ABSOLUTE
    ../Drivers/STM32L4xx_HAL_Driver/Src/stm32l4xx_hal_tim_ex.c 0x00000000   Number         0  stm32l4xx_hal_tim_ex.o ABSOLUTE
    ../Drivers/STM32L4xx_HAL_Driver/Src/stm32l4xx_hal_uart.c 0x00000000   Number         0  stm32l4xx_hal_uart.o ABSOLUTE
    ../Drivers/STM32L4xx_HAL_Driver/Src/stm32l4xx_hal_uart_ex.c 0x00000000   Number         0  stm32l4xx_hal_uart_ex.o ABSOLUTE
    ../Middlewares/Third_Party/FreeRTOS/Source/CMSIS_RTOS/cmsis_os.c 0x00000000   Number         0  cmsis_os.o ABSOLUTE
    ../Middlewares/Third_Party/FreeRTOS/Source/croutine.c 0x00000000   Number         0  croutine.o ABSOLUTE
    ../Middlewares/Third_Party/FreeRTOS/Source/event_groups.c 0x00000000   Number         0  event_groups.o ABSOLUTE
    ../Middlewares/Third_Party/FreeRTOS/Source/list.c 0x00000000   Number         0  list.o ABSOLUTE
    ../Middlewares/Third_Party/FreeRTOS/Source/portable/MemMang/heap_4.c 0x00000000   Number         0  heap_4.o ABSOLUTE
    ../Middlewares/Third_Party/FreeRTOS/Source/portable/RVDS/ARM_CM4F/port.c 0x00000000   Number         0  port.o ABSOLUTE
    ../Middlewares/Third_Party/FreeRTOS/Source/queue.c 0x00000000   Number         0  queue.o ABSOLUTE
    ../Middlewares/Third_Party/FreeRTOS/Source/stream_buffer.c 0x00000000   Number         0  stream_buffer.o ABSOLUTE
    ../Middlewares/Third_Party/FreeRTOS/Source/tasks.c 0x00000000   Number         0  tasks.o ABSOLUTE
    ../Middlewares/Third_Party/FreeRTOS/Source/timers.c 0x00000000   Number         0  timers.o ABSOLUTE
    ../clib/microlib/ctype/ctype.c           0x00000000   Number         0  isdigit_o.o ABSOLUTE
    ../clib/microlib/ctype/ctype.c           0x00000000   Number         0  iscntrl_o.o ABSOLUTE
    ../clib/microlib/ctype/ctype.c           0x00000000   Number         0  isblank_o.o ABSOLUTE
    ../clib/microlib/ctype/ctype.c           0x00000000   Number         0  isspace_o.o ABSOLUTE
    ../clib/microlib/ctype/ctype.c           0x00000000   Number         0  isupper_o.o ABSOLUTE
    ../clib/microlib/ctype/ctype.c           0x00000000   Number         0  ctype_o.o ABSOLUTE
    ../clib/microlib/ctype/ctype.c           0x00000000   Number         0  isspace_c.o ABSOLUTE
    ../clib/microlib/ctype/ctype.c           0x00000000   Number         0  isalnum_o.o ABSOLUTE
    ../clib/microlib/ctype/ctype.c           0x00000000   Number         0  isprint_o.o ABSOLUTE
    ../clib/microlib/ctype/ctype.c           0x00000000   Number         0  isgraph_o.o ABSOLUTE
    ../clib/microlib/ctype/ctype.c           0x00000000   Number         0  isxdigit_o.o ABSOLUTE
    ../clib/microlib/ctype/ctype.c           0x00000000   Number         0  islower_o.o ABSOLUTE
    ../clib/microlib/ctype/ctype.c           0x00000000   Number         0  ctype_c.o ABSOLUTE
    ../clib/microlib/ctype/ctype.c           0x00000000   Number         0  isalpha_o.o ABSOLUTE
    ../clib/microlib/ctype/ctype.c           0x00000000   Number         0  ispunct_o.o ABSOLUTE
    ../clib/microlib/ctype/tolower.c         0x00000000   Number         0  tolower.o ABSOLUTE
    ../clib/microlib/division.c              0x00000000   Number         0  uidiv.o ABSOLUTE
    ../clib/microlib/division.c              0x00000000   Number         0  uldiv.o ABSOLUTE
    ../clib/microlib/errno.c                 0x00000000   Number         0  errno.o ABSOLUTE
    ../clib/microlib/init/entry.s            0x00000000   Number         0  entry7a.o ABSOLUTE
    ../clib/microlib/init/entry.s            0x00000000   Number         0  entry7b.o ABSOLUTE
    ../clib/microlib/init/entry.s            0x00000000   Number         0  entry2.o ABSOLUTE
    ../clib/microlib/init/entry.s            0x00000000   Number         0  entry5.o ABSOLUTE
    ../clib/microlib/init/entry.s            0x00000000   Number         0  entry10b.o ABSOLUTE
    ../clib/microlib/init/entry.s            0x00000000   Number         0  entry8b.o ABSOLUTE
    ../clib/microlib/init/entry.s            0x00000000   Number         0  entry9a.o ABSOLUTE
    ../clib/microlib/init/entry.s            0x00000000   Number         0  entry8a.o ABSOLUTE
    ../clib/microlib/init/entry.s            0x00000000   Number         0  entry11a.o ABSOLUTE
    ../clib/microlib/init/entry.s            0x00000000   Number         0  entry9b.o ABSOLUTE
    ../clib/microlib/init/entry.s            0x00000000   Number         0  entry10a.o ABSOLUTE
    ../clib/microlib/init/entry.s            0x00000000   Number         0  entry11b.o ABSOLUTE
    ../clib/microlib/init/entry.s            0x00000000   Number         0  entry.o ABSOLUTE
    ../clib/microlib/longlong.c              0x00000000   Number         0  llsshr.o ABSOLUTE
    ../clib/microlib/longlong.c              0x00000000   Number         0  llushr.o ABSOLUTE
    ../clib/microlib/longlong.c              0x00000000   Number         0  llshl.o ABSOLUTE
    ../clib/microlib/malloc/malloc.c         0x00000000   Number         0  malloca.o ABSOLUTE
    ../clib/microlib/malloc/malloc.c         0x00000000   Number         0  mallocra.o ABSOLUTE
    ../clib/microlib/malloc/malloc.c         0x00000000   Number         0  mallocr.o ABSOLUTE
    ../clib/microlib/malloc/malloc.c         0x00000000   Number         0  malloc.o ABSOLUTE
    ../clib/microlib/malloc/mvars.c          0x00000000   Number         0  mvars.o ABSOLUTE
    ../clib/microlib/printf/printf.c         0x00000000   Number         0  printf6.o ABSOLUTE
    ../clib/microlib/printf/printf.c         0x00000000   Number         0  printf2.o ABSOLUTE
    ../clib/microlib/printf/printf.c         0x00000000   Number         0  printf1.o ABSOLUTE
    ../clib/microlib/printf/printf.c         0x00000000   Number         0  printf3.o ABSOLUTE
    ../clib/microlib/printf/printf.c         0x00000000   Number         0  printf7.o ABSOLUTE
    ../clib/microlib/printf/printf.c         0x00000000   Number         0  printfa.o ABSOLUTE
    ../clib/microlib/printf/printf.c         0x00000000   Number         0  printf4.o ABSOLUTE
    ../clib/microlib/printf/printf.c         0x00000000   Number         0  printf8.o ABSOLUTE
    ../clib/microlib/printf/printf.c         0x00000000   Number         0  printfb.o ABSOLUTE
    ../clib/microlib/printf/printf.c         0x00000000   Number         0  printf0.o ABSOLUTE
    ../clib/microlib/printf/printf.c         0x00000000   Number         0  printf5.o ABSOLUTE
    ../clib/microlib/printf/stubs.s          0x00000000   Number         0  stubs.o ABSOLUTE
    ../clib/microlib/stdio/streams.c         0x00000000   Number         0  stdout.o ABSOLUTE
    ../clib/microlib/string/memcpy.c         0x00000000   Number         0  memcpyb.o ABSOLUTE
    ../clib/microlib/string/memcpy.c         0x00000000   Number         0  memcpya.o ABSOLUTE
    ../clib/microlib/string/memset.c         0x00000000   Number         0  memseta.o ABSOLUTE
    ../clib/microlib/string/memset.c         0x00000000   Number         0  memset.o ABSOLUTE
    ../clib/microlib/string/strcat.c         0x00000000   Number         0  strcat.o ABSOLUTE
    ../clib/microlib/string/strcmp.c         0x00000000   Number         0  strcmp.o ABSOLUTE
    ../clib/microlib/string/strcpy.c         0x00000000   Number         0  strcpy.o ABSOLUTE
    ../clib/microlib/string/strlen.c         0x00000000   Number         0  strlen.o ABSOLUTE
    ../clib/microlib/string/strncmp.c        0x00000000   Number         0  strncmp.o ABSOLUTE
    ../clib/microlib/string/strrchr.c        0x00000000   Number         0  strrchr.o ABSOLUTE
    ../clib/microlib/string/strstr.c         0x00000000   Number         0  strstr.o ABSOLUTE
    ../clib/microlib/string/strtok.c         0x00000000   Number         0  strtok_r.o ABSOLUTE
    ../clib/microlib/string/strtok.c         0x00000000   Number         0  strtok.o ABSOLUTE
    ../clib/microlib/stubs.s                 0x00000000   Number         0  iusefp.o ABSOLUTE
    ../clib/scanf.c                          0x00000000   Number         0  _sgetc.o ABSOLUTE
    ../clib/scanf.c                          0x00000000   Number         0  _chval.o ABSOLUTE
    ../clib/scanf.c                          0x00000000   Number         0  _strtoul.o ABSOLUTE
    ../clib/scanf.c                          0x00000000   Number         0  _scanf.o ABSOLUTE
    ../clib/scanf.c                          0x00000000   Number         0  strtol.o ABSOLUTE
    ../clib/scanf.c                          0x00000000   Number         0  strtod.o ABSOLUTE
    ../clib/scanf.c                          0x00000000   Number         0  scanf_char.o ABSOLUTE
    ../clib/scanf.c                          0x00000000   Number         0  atoi.o ABSOLUTE
    ../clib/scanf.c                          0x00000000   Number         0  scanf_fp.o ABSOLUTE
    ../clib/scanf.c                          0x00000000   Number         0  __0sscanf.o ABSOLUTE
    ../fplib/microlib/d2f.c                  0x00000000   Number         0  d2f.o ABSOLUTE
    ../fplib/microlib/f2d.c                  0x00000000   Number         0  f2d.o ABSOLUTE
    ../fplib/microlib/fpadd.c                0x00000000   Number         0  dadd.o ABSOLUTE
    ../fplib/microlib/fpdiv.c                0x00000000   Number         0  ddiv.o ABSOLUTE
    ../fplib/microlib/fpepilogue.c           0x00000000   Number         0  fepilogue.o ABSOLUTE
    ../fplib/microlib/fpepilogue.c           0x00000000   Number         0  depilogue.o ABSOLUTE
    ../fplib/microlib/fpfix.c                0x00000000   Number         0  dfixui.o ABSOLUTE
    ../fplib/microlib/fpfix.c                0x00000000   Number         0  dfixul.o ABSOLUTE
    ../fplib/microlib/fpfix.c                0x00000000   Number         0  dfixi.o ABSOLUTE
    ../fplib/microlib/fpflt.c                0x00000000   Number         0  dflti.o ABSOLUTE
    ../fplib/microlib/fpflt.c                0x00000000   Number         0  dfltul.o ABSOLUTE
    ../fplib/microlib/fpflt.c                0x00000000   Number         0  dfltui.o ABSOLUTE
    ../fplib/microlib/fpmul.c                0x00000000   Number         0  dmul.o ABSOLUTE
    ../mathlib/strtod.c                      0x00000000   Number         0  strtod.o ABSOLUTE
    ..\Core\Src\dma.c                        0x00000000   Number         0  dma.o ABSOLUTE
    ..\Core\Src\freertos.c                   0x00000000   Number         0  freertos.o ABSOLUTE
    ..\Core\Src\gpio.c                       0x00000000   Number         0  gpio.o ABSOLUTE
    ..\Core\Src\i2c.c                        0x00000000   Number         0  i2c.o ABSOLUTE
    ..\Core\Src\iwdg.c                       0x00000000   Number         0  iwdg.o ABSOLUTE
    ..\Core\Src\main.c                       0x00000000   Number         0  main.o ABSOLUTE
    ..\Core\Src\spi.c                        0x00000000   Number         0  spi.o ABSOLUTE
    ..\Core\Src\stm32l4xx_hal_msp.c          0x00000000   Number         0  stm32l4xx_hal_msp.o ABSOLUTE
    ..\Core\Src\stm32l4xx_hal_timebase_tim.c 0x00000000   Number         0  stm32l4xx_hal_timebase_tim.o ABSOLUTE
    ..\Core\Src\stm32l4xx_it.c               0x00000000   Number         0  stm32l4xx_it.o ABSOLUTE
    ..\Core\Src\system_stm32l4xx.c           0x00000000   Number         0  system_stm32l4xx.o ABSOLUTE
    ..\Core\Src\usart.c                      0x00000000   Number         0  usart.o ABSOLUTE
    ..\Drivers\STM32L4xx_HAL_Driver\Src\stm32l4xx_hal.c 0x00000000   Number         0  stm32l4xx_hal.o ABSOLUTE
    ..\Drivers\STM32L4xx_HAL_Driver\Src\stm32l4xx_hal_cortex.c 0x00000000   Number         0  stm32l4xx_hal_cortex.o ABSOLUTE
    ..\Drivers\STM32L4xx_HAL_Driver\Src\stm32l4xx_hal_dma.c 0x00000000   Number         0  stm32l4xx_hal_dma.o ABSOLUTE
    ..\Drivers\STM32L4xx_HAL_Driver\Src\stm32l4xx_hal_dma_ex.c 0x00000000   Number         0  stm32l4xx_hal_dma_ex.o ABSOLUTE
    ..\Drivers\STM32L4xx_HAL_Driver\Src\stm32l4xx_hal_exti.c 0x00000000   Number         0  stm32l4xx_hal_exti.o ABSOLUTE
    ..\Drivers\STM32L4xx_HAL_Driver\Src\stm32l4xx_hal_flash.c 0x00000000   Number         0  stm32l4xx_hal_flash.o ABSOLUTE
    ..\Drivers\STM32L4xx_HAL_Driver\Src\stm32l4xx_hal_flash_ex.c 0x00000000   Number         0  stm32l4xx_hal_flash_ex.o ABSOLUTE
    ..\Drivers\STM32L4xx_HAL_Driver\Src\stm32l4xx_hal_flash_ramfunc.c 0x00000000   Number         0  stm32l4xx_hal_flash_ramfunc.o ABSOLUTE
    ..\Drivers\STM32L4xx_HAL_Driver\Src\stm32l4xx_hal_gpio.c 0x00000000   Number         0  stm32l4xx_hal_gpio.o ABSOLUTE
    ..\Drivers\STM32L4xx_HAL_Driver\Src\stm32l4xx_hal_i2c.c 0x00000000   Number         0  stm32l4xx_hal_i2c.o ABSOLUTE
    ..\Drivers\STM32L4xx_HAL_Driver\Src\stm32l4xx_hal_i2c_ex.c 0x00000000   Number         0  stm32l4xx_hal_i2c_ex.o ABSOLUTE
    ..\Drivers\STM32L4xx_HAL_Driver\Src\stm32l4xx_hal_iwdg.c 0x00000000   Number         0  stm32l4xx_hal_iwdg.o ABSOLUTE
    ..\Drivers\STM32L4xx_HAL_Driver\Src\stm32l4xx_hal_pwr.c 0x00000000   Number         0  stm32l4xx_hal_pwr.o ABSOLUTE
    ..\Drivers\STM32L4xx_HAL_Driver\Src\stm32l4xx_hal_pwr_ex.c 0x00000000   Number         0  stm32l4xx_hal_pwr_ex.o ABSOLUTE
    ..\Drivers\STM32L4xx_HAL_Driver\Src\stm32l4xx_hal_rcc.c 0x00000000   Number         0  stm32l4xx_hal_rcc.o ABSOLUTE
    ..\Drivers\STM32L4xx_HAL_Driver\Src\stm32l4xx_hal_rcc_ex.c 0x00000000   Number         0  stm32l4xx_hal_rcc_ex.o ABSOLUTE
    ..\Drivers\STM32L4xx_HAL_Driver\Src\stm32l4xx_hal_spi.c 0x00000000   Number         0  stm32l4xx_hal_spi.o ABSOLUTE
    ..\Drivers\STM32L4xx_HAL_Driver\Src\stm32l4xx_hal_spi_ex.c 0x00000000   Number         0  stm32l4xx_hal_spi_ex.o ABSOLUTE
    ..\Drivers\STM32L4xx_HAL_Driver\Src\stm32l4xx_hal_tim.c 0x00000000   Number         0  stm32l4xx_hal_tim.o ABSOLUTE
    ..\Drivers\STM32L4xx_HAL_Driver\Src\stm32l4xx_hal_tim_ex.c 0x00000000   Number         0  stm32l4xx_hal_tim_ex.o ABSOLUTE
    ..\Drivers\STM32L4xx_HAL_Driver\Src\stm32l4xx_hal_uart.c 0x00000000   Number         0  stm32l4xx_hal_uart.o ABSOLUTE
    ..\Drivers\STM32L4xx_HAL_Driver\Src\stm32l4xx_hal_uart_ex.c 0x00000000   Number         0  stm32l4xx_hal_uart_ex.o ABSOLUTE
    ..\E53_IA1\E53_IA1.c                     0x00000000   Number         0  e53_ia1.o ABSOLUTE
    ..\EC600S_Driver\EC600S.c                0x00000000   Number         0  ec600s.o ABSOLUTE
    ..\Hardware\LCD-SPI\lcd_spi2_drv.c       0x00000000   Number         0  lcd_spi2_drv.o ABSOLUTE
    ..\Hardware\Ui_handler\main_ui.c         0x00000000   Number         0  main_ui.o ABSOLUTE
    ..\Middlewares\Third_Party\FreeRTOS\Source\CMSIS_RTOS\cmsis_os.c 0x00000000   Number         0  cmsis_os.o ABSOLUTE
    ..\Middlewares\Third_Party\FreeRTOS\Source\portable\RVDS\ARM_CM4F\port.c 0x00000000   Number         0  port.o ABSOLUTE
    ..\My_string\my_string.c                 0x00000000   Number         0  my_string.o ABSOLUTE
    ..\Sensor_work\Sensor_work.c             0x00000000   Number         0  sensor_work.o ABSOLUTE
    ..\Wenzheng_OTA\OTA_Task.c               0x00000000   Number         0  ota_task.o ABSOLUTE
    ..\Wenzheng_OTA\Wenzheng_OTA.c           0x00000000   Number         0  wenzheng_ota.o ABSOLUTE
    ..\\E53_IA1\\E53_IA1.c                   0x00000000   Number         0  e53_ia1.o ABSOLUTE
    ..\\EC600S_Driver\\EC600S.c              0x00000000   Number         0  ec600s.o ABSOLUTE
    ..\\Hardware\\LCD-SPI\\lcd_spi2_drv.c    0x00000000   Number         0  lcd_spi2_drv.o ABSOLUTE
    ..\\Hardware\\Ui_handler\\main_ui.c      0x00000000   Number         0  main_ui.o ABSOLUTE
    ..\\My_string\\my_string.c               0x00000000   Number         0  my_string.o ABSOLUTE
    ..\\Sensor_work\\Sensor_work.c           0x00000000   Number         0  sensor_work.o ABSOLUTE
    ..\\Wenzheng_OTA\\OTA_Task.c             0x00000000   Number         0  ota_task.o ABSOLUTE
    ..\\Wenzheng_OTA\\Wenzheng_OTA.c         0x00000000   Number         0  wenzheng_ota.o ABSOLUTE
    C:\Users\56540\AppData\Local\Arm\Packs\MDK-Packs\cJSON\1.0.0\cJSON.c 0x00000000   Number         0  cjson.o ABSOLUTE
    C:\Users\56540\AppData\Local\Arm\Packs\MDK-Packs\cJSON\1.0.0\cJSON_Utils.c 0x00000000   Number         0  cjson_utils.o ABSOLUTE
    cdcmple.s                                0x00000000   Number         0  cdcmple.o ABSOLUTE
    cdrcmple.s                               0x00000000   Number         0  cdrcmple.o ABSOLUTE
    dc.s                                     0x00000000   Number         0  dc.o ABSOLUTE
    handlers.s                               0x00000000   Number         0  handlers.o ABSOLUTE
    init.s                                   0x00000000   Number         0  init.o ABSOLUTE
    startup_stm32l431xx.s                    0x00000000   Number         0  startup_stm32l431xx.o ABSOLUTE
    RESET                                    0x0800f000   Section      396  startup_stm32l431xx.o(RESET)
    .ARM.Collect$$$$00000000                 0x0800f18c   Section        0  entry.o(.ARM.Collect$$$$00000000)
    .ARM.Collect$$$$00000001                 0x0800f18c   Section        4  entry2.o(.ARM.Collect$$$$00000001)
    .ARM.Collect$$$$00000004                 0x0800f190   Section        4  entry5.o(.ARM.Collect$$$$00000004)
    .ARM.Collect$$$$00000008                 0x0800f194   Section        0  entry7b.o(.ARM.Collect$$$$00000008)
    .ARM.Collect$$$$0000000A                 0x0800f194   Section        0  entry8b.o(.ARM.Collect$$$$0000000A)
    .ARM.Collect$$$$0000000B                 0x0800f194   Section        8  entry9a.o(.ARM.Collect$$$$0000000B)
    .ARM.Collect$$$$0000000D                 0x0800f19c   Section        0  entry10a.o(.ARM.Collect$$$$0000000D)
    .ARM.Collect$$$$0000000F                 0x0800f19c   Section        0  entry11a.o(.ARM.Collect$$$$0000000F)
    .ARM.Collect$$$$00002712                 0x0800f19c   Section        4  entry2.o(.ARM.Collect$$$$00002712)
    __lit__00000000                          0x0800f19c   Data           4  entry2.o(.ARM.Collect$$$$00002712)
    .emb_text                                0x0800f1a0   Section      190  port.o(.emb_text)
    $v0                                      0x0800f1a0   Number         0  port.o(.emb_text)
    .text                                    0x0800f280   Section       36  startup_stm32l431xx.o(.text)
    $v0                                      0x0800f280   Number         0  startup_stm32l431xx.o(.text)
    .text                                    0x0800f2a4   Section        0  uldiv.o(.text)
    .text                                    0x0800f30c   Section        0  tolower.o(.text)
    .text                                    0x0800f318   Section        0  memcpya.o(.text)
    .text                                    0x0800f33c   Section        0  memseta.o(.text)
    .text                                    0x0800f360   Section        0  strstr.o(.text)
    .text                                    0x0800f384   Section        0  strlen.o(.text)
    .text                                    0x0800f392   Section        0  strcmp.o(.text)
    .text                                    0x0800f3ae   Section        0  strcpy.o(.text)
    .text                                    0x0800f3c0   Section        0  strncmp.o(.text)
    .text                                    0x0800f3e0   Section        0  __0sscanf.o(.text)
    .text                                    0x0800f418   Section        0  scanf_fp.o(.text)
    _fp_value                                0x0800f419   Thumb Code   296  scanf_fp.o(.text)
    .text                                    0x0800f77e   Section        0  atoi.o(.text)
    .text                                    0x0800f798   Section        0  dmul.o(.text)
    .text                                    0x0800f882   Section        0  ddiv.o(.text)
    .text                                    0x0800f960   Section        0  dfltui.o(.text)
    .text                                    0x0800f97a   Section        0  dfixi.o(.text)
    .text                                    0x0800f9b8   Section        0  f2d.o(.text)
    .text                                    0x0800f9e0   Section       48  cdcmple.o(.text)
    .text                                    0x0800fa10   Section       48  cdrcmple.o(.text)
    .text                                    0x0800fa40   Section        0  uidiv.o(.text)
    .text                                    0x0800fa6c   Section        0  llshl.o(.text)
    .text                                    0x0800fa8a   Section        0  llushr.o(.text)
    .text                                    0x0800faac   Section        0  scanf_char.o(.text)
    _scanf_char_input                        0x0800faad   Thumb Code    12  scanf_char.o(.text)
    .text                                    0x0800fad4   Section        0  _sgetc.o(.text)
    .text                                    0x0800fb14   Section        0  strtod.o(.text)
    _local_sscanf                            0x0800fb15   Thumb Code    54  strtod.o(.text)
    .text                                    0x0800fbb0   Section        0  strtol.o(.text)
    .text                                    0x0800fc20   Section        0  iusefp.o(.text)
    .text                                    0x0800fc20   Section        0  depilogue.o(.text)
    .text                                    0x0800fcda   Section        0  dadd.o(.text)
    .text                                    0x0800fe38   Section        0  dfltul.o(.text)
    .text                                    0x0800fe50   Section        0  dfixul.o(.text)
    .text                                    0x0800fe80   Section        0  d2f.o(.text)
    .text                                    0x0800feb8   Section       36  init.o(.text)
    .text                                    0x0800fedc   Section        0  llsshr.o(.text)
    .text                                    0x0800ff00   Section        0  ctype_o.o(.text)
    .text                                    0x0800ff08   Section        0  isspace_o.o(.text)
    .text                                    0x0800ff1c   Section        0  _scanf.o(.text)
    .text                                    0x0801024e   Section        0  _strtoul.o(.text)
    .text                                    0x080102f2   Section        0  fepilogue.o(.text)
    .text                                    0x08010360   Section        0  _chval.o(.text)
    i.BH1750_Dat_To_Lux                      0x0801037c   Section        0  e53_ia1.o(i.BH1750_Dat_To_Lux)
    i.BH1750_Read_Dat                        0x080103b0   Section        0  e53_ia1.o(i.BH1750_Read_Dat)
    i.BH1750_Send_Cmd                        0x080103cc   Section        0  e53_ia1.o(i.BH1750_Send_Cmd)
    i.BusFault_Handler                       0x080103e8   Section        0  stm32l4xx_it.o(i.BusFault_Handler)
    i.CheckCrc8                              0x080103ea   Section        0  e53_ia1.o(i.CheckCrc8)
    i.DMA1_Channel3_IRQHandler               0x0801041c   Section        0  stm32l4xx_it.o(i.DMA1_Channel3_IRQHandler)
    i.DMA2_Channel7_IRQHandler               0x08010428   Section        0  stm32l4xx_it.o(i.DMA2_Channel7_IRQHandler)
    i.DMA_SetConfig                          0x08010434   Section        0  stm32l4xx_hal_dma.o(i.DMA_SetConfig)
    DMA_SetConfig                            0x08010435   Thumb Code    46  stm32l4xx_hal_dma.o(i.DMA_SetConfig)
    i.DebugMon_Handler                       0x08010462   Section        0  stm32l4xx_it.o(i.DebugMon_Handler)
    i.EC600S_ATE0_EN                         0x08010464   Section        0  ec600s.o(i.EC600S_ATE0_EN)
    i.EC600S_AT_SR                           0x08010488   Section        0  ec600s.o(i.EC600S_AT_SR)
    i.EC600S_Check_Net                       0x08010598   Section        0  ec600s.o(i.EC600S_Check_Net)
    i.EC600S_Connect_MQTT                    0x08010604   Section        0  ec600s.o(i.EC600S_Connect_MQTT)
    i.EC600S_GET_CSQ                         0x08010718   Section        0  ec600s.o(i.EC600S_GET_CSQ)
    i.EC600S_GET_IMEI                        0x0801079c   Section        0  ec600s.o(i.EC600S_GET_IMEI)
    i.EC600S_GET_Version                     0x08010800   Section        0  ec600s.o(i.EC600S_GET_Version)
    i.EC600S_Get_Bin                         0x08010ac8   Section        0  ec600s.o(i.EC600S_Get_Bin)
    i.EC600S_Publish_MQTT                    0x08010d84   Section        0  ec600s.o(i.EC600S_Publish_MQTT)
    i.EC600S_Subscribe_MQTT                  0x08010e48   Section        0  ec600s.o(i.EC600S_Subscribe_MQTT)
    i.EC600S_WAIT_CREG                       0x08010ec4   Section        0  ec600s.o(i.EC600S_WAIT_CREG)
    i.EC600S_Wait_Wakeup                     0x08010ef8   Section        0  ec600s.o(i.EC600S_Wait_Wakeup)
    i.EnableUsart_IT                         0x08010f40   Section        0  usart.o(i.EnableUsart_IT)
    i.Erase_page                             0x08010f70   Section        0  wenzheng_ota.o(i.Erase_page)
    i.Error_Handler                          0x08011020   Section        0  main.o(i.Error_Handler)
    i.FLASH_FlushCaches                      0x08011024   Section        0  stm32l4xx_hal_flash_ex.o(i.FLASH_FlushCaches)
    i.FLASH_MassErase                        0x08011078   Section        0  stm32l4xx_hal_flash_ex.o(i.FLASH_MassErase)
    FLASH_MassErase                          0x08011079   Thumb Code    24  stm32l4xx_hal_flash_ex.o(i.FLASH_MassErase)
    i.FLASH_PageErase                        0x08011094   Section        0  stm32l4xx_hal_flash_ex.o(i.FLASH_PageErase)
    i.FLASH_Program_DoubleWord               0x080110bc   Section        0  stm32l4xx_hal_flash.o(i.FLASH_Program_DoubleWord)
    FLASH_Program_DoubleWord                 0x080110bd   Thumb Code    22  stm32l4xx_hal_flash.o(i.FLASH_Program_DoubleWord)
    i.FLASH_Program_Fast                     0x080110d8   Section        0  stm32l4xx_hal_flash.o(i.FLASH_Program_Fast)
    FLASH_Program_Fast                       0x080110d9   Thumb Code    38  stm32l4xx_hal_flash.o(i.FLASH_Program_Fast)
    i.FLASH_WaitForLastOperation             0x08011104   Section        0  stm32l4xx_hal_flash.o(i.FLASH_WaitForLastOperation)
    i.Find_string                            0x08011168   Section        0  my_string.o(i.Find_string)
    i.GetPage                                0x080111c8   Section        0  wenzheng_ota.o(i.GetPage)
    GetPage                                  0x080111c9   Thumb Code    74  wenzheng_ota.o(i.GetPage)
    i.HAL_DMA_Abort                          0x08011230   Section        0  stm32l4xx_hal_dma.o(i.HAL_DMA_Abort)
    i.HAL_DMA_Abort_IT                       0x0801127a   Section        0  stm32l4xx_hal_dma.o(i.HAL_DMA_Abort_IT)
    i.HAL_DMA_GetError                       0x080112c8   Section        0  stm32l4xx_hal_dma.o(i.HAL_DMA_GetError)
    i.HAL_DMA_IRQHandler                     0x080112cc   Section        0  stm32l4xx_hal_dma.o(i.HAL_DMA_IRQHandler)
    i.HAL_DMA_Init                           0x08011388   Section        0  stm32l4xx_hal_dma.o(i.HAL_DMA_Init)
    i.HAL_DMA_Start_IT                       0x08011448   Section        0  stm32l4xx_hal_dma.o(i.HAL_DMA_Start_IT)
    i.HAL_Delay                              0x080114b8   Section        0  stm32l4xx_hal.o(i.HAL_Delay)
    i.HAL_FLASHEx_Erase                      0x080114dc   Section        0  stm32l4xx_hal_flash_ex.o(i.HAL_FLASHEx_Erase)
    i.HAL_FLASH_Lock                         0x080115c4   Section        0  stm32l4xx_hal_flash.o(i.HAL_FLASH_Lock)
    i.HAL_FLASH_Program                      0x080115d8   Section        0  stm32l4xx_hal_flash.o(i.HAL_FLASH_Program)
    i.HAL_FLASH_Unlock                       0x08011684   Section        0  stm32l4xx_hal_flash.o(i.HAL_FLASH_Unlock)
    i.HAL_GPIO_Init                          0x080116ac   Section        0  stm32l4xx_hal_gpio.o(i.HAL_GPIO_Init)
    i.HAL_GPIO_TogglePin                     0x0801186a   Section        0  stm32l4xx_hal_gpio.o(i.HAL_GPIO_TogglePin)
    i.HAL_GPIO_WritePin                      0x0801187a   Section        0  stm32l4xx_hal_gpio.o(i.HAL_GPIO_WritePin)
    i.HAL_GetTick                            0x08011884   Section        0  stm32l4xx_hal.o(i.HAL_GetTick)
    i.HAL_I2CEx_ConfigAnalogFilter           0x08011890   Section        0  stm32l4xx_hal_i2c_ex.o(i.HAL_I2CEx_ConfigAnalogFilter)
    i.HAL_I2CEx_ConfigDigitalFilter          0x080118e6   Section        0  stm32l4xx_hal_i2c_ex.o(i.HAL_I2CEx_ConfigDigitalFilter)
    i.HAL_I2C_Init                           0x08011938   Section        0  stm32l4xx_hal_i2c.o(i.HAL_I2C_Init)
    i.HAL_I2C_Master_Receive                 0x080119f0   Section        0  stm32l4xx_hal_i2c.o(i.HAL_I2C_Master_Receive)
    i.HAL_I2C_Master_Transmit                0x08011b1c   Section        0  stm32l4xx_hal_i2c.o(i.HAL_I2C_Master_Transmit)
    i.HAL_I2C_MspInit                        0x08011c48   Section        0  i2c.o(i.HAL_I2C_MspInit)
    i.HAL_IWDG_Init                          0x08011cac   Section        0  stm32l4xx_hal_iwdg.o(i.HAL_IWDG_Init)
    i.HAL_IWDG_Refresh                       0x08011d0a   Section        0  stm32l4xx_hal_iwdg.o(i.HAL_IWDG_Refresh)
    i.HAL_IncTick                            0x08011d18   Section        0  stm32l4xx_hal.o(i.HAL_IncTick)
    i.HAL_Init                               0x08011d28   Section        0  stm32l4xx_hal.o(i.HAL_Init)
    i.HAL_InitTick                           0x08011d48   Section        0  stm32l4xx_hal_timebase_tim.o(i.HAL_InitTick)
    i.HAL_MspInit                            0x08011dbc   Section        0  stm32l4xx_hal_msp.o(i.HAL_MspInit)
    i.HAL_NVIC_EnableIRQ                     0x08011de8   Section        0  stm32l4xx_hal_cortex.o(i.HAL_NVIC_EnableIRQ)
    i.HAL_NVIC_SetPriority                   0x08011e04   Section        0  stm32l4xx_hal_cortex.o(i.HAL_NVIC_SetPriority)
    i.HAL_NVIC_SetPriorityGrouping           0x08011e44   Section        0  stm32l4xx_hal_cortex.o(i.HAL_NVIC_SetPriorityGrouping)
    i.HAL_NVIC_SystemReset                   0x08011e68   Section        0  stm32l4xx_hal_cortex.o(i.HAL_NVIC_SystemReset)
    i.HAL_PWREx_ControlVoltageScaling        0x08011e8c   Section        0  stm32l4xx_hal_pwr_ex.o(i.HAL_PWREx_ControlVoltageScaling)
    i.HAL_PWREx_GetVoltageRange              0x08011ef4   Section        0  stm32l4xx_hal_pwr_ex.o(i.HAL_PWREx_GetVoltageRange)
    i.HAL_RCCEx_PeriphCLKConfig              0x08011f04   Section        0  stm32l4xx_hal_rcc_ex.o(i.HAL_RCCEx_PeriphCLKConfig)
    i.HAL_RCC_ClockConfig                    0x080121c0   Section        0  stm32l4xx_hal_rcc.o(i.HAL_RCC_ClockConfig)
    i.HAL_RCC_GetClockConfig                 0x080122e0   Section        0  stm32l4xx_hal_rcc.o(i.HAL_RCC_GetClockConfig)
    i.HAL_RCC_GetPCLK1Freq                   0x08012320   Section        0  stm32l4xx_hal_rcc.o(i.HAL_RCC_GetPCLK1Freq)
    i.HAL_RCC_GetPCLK2Freq                   0x08012344   Section        0  stm32l4xx_hal_rcc.o(i.HAL_RCC_GetPCLK2Freq)
    i.HAL_RCC_GetSysClockFreq                0x08012368   Section        0  stm32l4xx_hal_rcc.o(i.HAL_RCC_GetSysClockFreq)
    i.HAL_RCC_OscConfig                      0x0801240c   Section        0  stm32l4xx_hal_rcc.o(i.HAL_RCC_OscConfig)
    i.HAL_SPI_Init                           0x08012978   Section        0  stm32l4xx_hal_spi.o(i.HAL_SPI_Init)
    i.HAL_SPI_MspInit                        0x08012a58   Section        0  spi.o(i.HAL_SPI_MspInit)
    i.HAL_SPI_Transmit                       0x08012ad8   Section        0  stm32l4xx_hal_spi.o(i.HAL_SPI_Transmit)
    i.HAL_TIMEx_Break2Callback               0x08012c66   Section        0  stm32l4xx_hal_tim_ex.o(i.HAL_TIMEx_Break2Callback)
    i.HAL_TIMEx_BreakCallback                0x08012c68   Section        0  stm32l4xx_hal_tim_ex.o(i.HAL_TIMEx_BreakCallback)
    i.HAL_TIMEx_CommutCallback               0x08012c6a   Section        0  stm32l4xx_hal_tim_ex.o(i.HAL_TIMEx_CommutCallback)
    i.HAL_TIM_Base_Init                      0x08012c6c   Section        0  stm32l4xx_hal_tim.o(i.HAL_TIM_Base_Init)
    i.HAL_TIM_Base_MspInit                   0x08012cce   Section        0  stm32l4xx_hal_tim.o(i.HAL_TIM_Base_MspInit)
    i.HAL_TIM_Base_Start_IT                  0x08012cd0   Section        0  stm32l4xx_hal_tim.o(i.HAL_TIM_Base_Start_IT)
    i.HAL_TIM_IC_CaptureCallback             0x08012d28   Section        0  stm32l4xx_hal_tim.o(i.HAL_TIM_IC_CaptureCallback)
    i.HAL_TIM_IRQHandler                     0x08012d2a   Section        0  stm32l4xx_hal_tim.o(i.HAL_TIM_IRQHandler)
    i.HAL_TIM_OC_DelayElapsedCallback        0x08012eae   Section        0  stm32l4xx_hal_tim.o(i.HAL_TIM_OC_DelayElapsedCallback)
    i.HAL_TIM_PWM_PulseFinishedCallback      0x08012eb0   Section        0  stm32l4xx_hal_tim.o(i.HAL_TIM_PWM_PulseFinishedCallback)
    i.HAL_TIM_PeriodElapsedCallback          0x08012eb4   Section        0  main.o(i.HAL_TIM_PeriodElapsedCallback)
    i.HAL_TIM_TriggerCallback                0x08012ec8   Section        0  stm32l4xx_hal_tim.o(i.HAL_TIM_TriggerCallback)
    i.HAL_UARTEx_WakeupCallback              0x08012eca   Section        0  stm32l4xx_hal_uart_ex.o(i.HAL_UARTEx_WakeupCallback)
    i.HAL_UART_DMAStop                       0x08012ecc   Section        0  stm32l4xx_hal_uart.o(i.HAL_UART_DMAStop)
    i.HAL_UART_ErrorCallback                 0x08012f3e   Section        0  stm32l4xx_hal_uart.o(i.HAL_UART_ErrorCallback)
    i.HAL_UART_IRQHandler                    0x08012f40   Section        0  stm32l4xx_hal_uart.o(i.HAL_UART_IRQHandler)
    i.HAL_UART_Init                          0x080130a4   Section        0  stm32l4xx_hal_uart.o(i.HAL_UART_Init)
    i.HAL_UART_MspInit                       0x0801310c   Section        0  usart.o(i.HAL_UART_MspInit)
    i.HAL_UART_Receive_DMA                   0x080132c4   Section        0  stm32l4xx_hal_uart.o(i.HAL_UART_Receive_DMA)
    i.HAL_UART_RxCpltCallback                0x08013360   Section        0  usart.o(i.HAL_UART_RxCpltCallback)
    i.HAL_UART_RxHalfCpltCallback            0x08013460   Section        0  stm32l4xx_hal_uart.o(i.HAL_UART_RxHalfCpltCallback)
    i.HAL_UART_Transmit                      0x08013464   Section        0  stm32l4xx_hal_uart.o(i.HAL_UART_Transmit)
    i.HAL_UART_TxCpltCallback                0x0801351a   Section        0  stm32l4xx_hal_uart.o(i.HAL_UART_TxCpltCallback)
    i.HardFault_Handler                      0x0801351c   Section        0  stm32l4xx_it.o(i.HardFault_Handler)
    i.I2C_Flush_TXDR                         0x0801351e   Section        0  stm32l4xx_hal_i2c.o(i.I2C_Flush_TXDR)
    I2C_Flush_TXDR                           0x0801351f   Thumb Code    34  stm32l4xx_hal_i2c.o(i.I2C_Flush_TXDR)
    i.I2C_IsAcknowledgeFailed                0x08013540   Section        0  stm32l4xx_hal_i2c.o(i.I2C_IsAcknowledgeFailed)
    I2C_IsAcknowledgeFailed                  0x08013541   Thumb Code   128  stm32l4xx_hal_i2c.o(i.I2C_IsAcknowledgeFailed)
    i.I2C_TransferConfig                     0x080135c4   Section        0  stm32l4xx_hal_i2c.o(i.I2C_TransferConfig)
    I2C_TransferConfig                       0x080135c5   Thumb Code    40  stm32l4xx_hal_i2c.o(i.I2C_TransferConfig)
    i.I2C_WaitOnFlagUntilTimeout             0x080135f0   Section        0  stm32l4xx_hal_i2c.o(i.I2C_WaitOnFlagUntilTimeout)
    I2C_WaitOnFlagUntilTimeout               0x080135f1   Thumb Code    88  stm32l4xx_hal_i2c.o(i.I2C_WaitOnFlagUntilTimeout)
    i.I2C_WaitOnRXNEFlagUntilTimeout         0x08013648   Section        0  stm32l4xx_hal_i2c.o(i.I2C_WaitOnRXNEFlagUntilTimeout)
    I2C_WaitOnRXNEFlagUntilTimeout           0x08013649   Thumb Code   128  stm32l4xx_hal_i2c.o(i.I2C_WaitOnRXNEFlagUntilTimeout)
    i.I2C_WaitOnSTOPFlagUntilTimeout         0x080136cc   Section        0  stm32l4xx_hal_i2c.o(i.I2C_WaitOnSTOPFlagUntilTimeout)
    I2C_WaitOnSTOPFlagUntilTimeout           0x080136cd   Thumb Code    76  stm32l4xx_hal_i2c.o(i.I2C_WaitOnSTOPFlagUntilTimeout)
    i.I2C_WaitOnTXISFlagUntilTimeout         0x08013718   Section        0  stm32l4xx_hal_i2c.o(i.I2C_WaitOnTXISFlagUntilTimeout)
    I2C_WaitOnTXISFlagUntilTimeout           0x08013719   Thumb Code    80  stm32l4xx_hal_i2c.o(i.I2C_WaitOnTXISFlagUntilTimeout)
    i.LCD_Address_Set                        0x08013768   Section        0  lcd_spi2_drv.o(i.LCD_Address_Set)
    i.LCD_Clear                              0x080137bc   Section        0  lcd_spi2_drv.o(i.LCD_Clear)
    i.LCD_DisplayOn                          0x08013814   Section        0  lcd_spi2_drv.o(i.LCD_DisplayOn)
    i.LCD_Draw_ColorCircle                   0x08013824   Section        0  lcd_spi2_drv.o(i.LCD_Draw_ColorCircle)
    i.LCD_Draw_ColorLine                     0x08013934   Section        0  lcd_spi2_drv.o(i.LCD_Draw_ColorLine)
    i.LCD_Draw_ColorPoint                    0x08013a3c   Section        0  lcd_spi2_drv.o(i.LCD_Draw_ColorPoint)
    i.LCD_Fill                               0x08013a54   Section        0  lcd_spi2_drv.o(i.LCD_Fill)
    i.LCD_GPIO_Init                          0x08013ad4   Section        0  lcd_spi2_drv.o(i.LCD_GPIO_Init)
    LCD_GPIO_Init                            0x08013ad5   Thumb Code   178  lcd_spi2_drv.o(i.LCD_GPIO_Init)
    i.LCD_Init                               0x08013b94   Section        0  lcd_spi2_drv.o(i.LCD_Init)
    i.LCD_SPI_Send                           0x08013d24   Section        0  lcd_spi2_drv.o(i.LCD_SPI_Send)
    LCD_SPI_Send                             0x08013d25   Thumb Code     4  lcd_spi2_drv.o(i.LCD_SPI_Send)
    i.LCD_ShowChar                           0x08013d28   Section        0  lcd_spi2_drv.o(i.LCD_ShowChar)
    i.LCD_ShowCharStr                        0x08013dee   Section        0  lcd_spi2_drv.o(i.LCD_ShowCharStr)
    i.LCD_Write_2Byte                        0x08013e34   Section        0  lcd_spi2_drv.o(i.LCD_Write_2Byte)
    i.LCD_Write_Cmd                          0x08013e5c   Section        0  lcd_spi2_drv.o(i.LCD_Write_Cmd)
    i.LCD_Write_Data                         0x08013e78   Section        0  lcd_spi2_drv.o(i.LCD_Write_Data)
    i.LPUART1_IRQHandler                     0x08013e94   Section        0  stm32l4xx_it.o(i.LPUART1_IRQHandler)
    i.MX_DMA_Init                            0x08013ef0   Section        0  dma.o(i.MX_DMA_Init)
    i.MX_FREERTOS_Init                       0x08013f3c   Section        0  freertos.o(i.MX_FREERTOS_Init)
    i.MX_GPIO_Init                           0x0801403c   Section        0  gpio.o(i.MX_GPIO_Init)
    i.MX_I2C1_Init                           0x0801412c   Section        0  i2c.o(i.MX_I2C1_Init)
    i.MX_IWDG_Init                           0x08014184   Section        0  iwdg.o(i.MX_IWDG_Init)
    i.MX_LPUART1_UART_Init                   0x080141b8   Section        0  usart.o(i.MX_LPUART1_UART_Init)
    i.MX_SPI2_Init                           0x080141f4   Section        0  spi.o(i.MX_SPI2_Init)
    i.MX_USART1_UART_Init                    0x08014244   Section        0  usart.o(i.MX_USART1_UART_Init)
    i.MX_USART2_UART_Init                    0x08014280   Section        0  usart.o(i.MX_USART2_UART_Init)
    i.MX_USART3_UART_Init                    0x080142bc   Section        0  usart.o(i.MX_USART3_UART_Init)
    i.MemManage_Handler                      0x080142f8   Section        0  stm32l4xx_it.o(i.MemManage_Handler)
    i.NMI_Handler                            0x080142fa   Section        0  stm32l4xx_it.o(i.NMI_Handler)
    i.OTA_Task                               0x080142fc   Section        0  ota_task.o(i.OTA_Task)
    i.RCCEx_PLLSAI1_Config                   0x080145d4   Section        0  stm32l4xx_hal_rcc_ex.o(i.RCCEx_PLLSAI1_Config)
    RCCEx_PLLSAI1_Config                     0x080145d5   Thumb Code   278  stm32l4xx_hal_rcc_ex.o(i.RCCEx_PLLSAI1_Config)
    i.RCC_SetFlashLatencyFromMSIRange        0x08014700   Section        0  stm32l4xx_hal_rcc.o(i.RCC_SetFlashLatencyFromMSIRange)
    RCC_SetFlashLatencyFromMSIRange          0x08014701   Thumb Code   116  stm32l4xx_hal_rcc.o(i.RCC_SetFlashLatencyFromMSIRange)
    i.SHT30_Dat_To_Float                     0x0801477c   Section        0  e53_ia1.o(i.SHT30_Dat_To_Float)
    i.SHT30_Init                             0x080147f8   Section        0  e53_ia1.o(i.SHT30_Init)
    i.SHT30_Read_Dat                         0x08014800   Section        0  e53_ia1.o(i.SHT30_Read_Dat)
    i.SHT30_Reset                            0x08014824   Section        0  e53_ia1.o(i.SHT30_Reset)
    i.SHT30_Send_Cmd                         0x08014838   Section        0  e53_ia1.o(i.SHT30_Send_Cmd)
    SHT30_Send_Cmd                           0x08014839   Thumb Code    32  e53_ia1.o(i.SHT30_Send_Cmd)
    i.SPI2_WriteByte                         0x0801485c   Section        0  spi.o(i.SPI2_WriteByte)
    i.SPI_EndRxTxTransaction                 0x08014870   Section        0  stm32l4xx_hal_spi.o(i.SPI_EndRxTxTransaction)
    SPI_EndRxTxTransaction                   0x08014871   Thumb Code    72  stm32l4xx_hal_spi.o(i.SPI_EndRxTxTransaction)
    i.SPI_WaitFifoStateUntilTimeout          0x080148b8   Section        0  stm32l4xx_hal_spi.o(i.SPI_WaitFifoStateUntilTimeout)
    SPI_WaitFifoStateUntilTimeout            0x080148b9   Thumb Code   196  stm32l4xx_hal_spi.o(i.SPI_WaitFifoStateUntilTimeout)
    i.SPI_WaitFlagStateUntilTimeout          0x08014988   Section        0  stm32l4xx_hal_spi.o(i.SPI_WaitFlagStateUntilTimeout)
    SPI_WaitFlagStateUntilTimeout            0x08014989   Thumb Code   180  stm32l4xx_hal_spi.o(i.SPI_WaitFlagStateUntilTimeout)
    i.Sensor_Task                            0x08014a40   Section        0  sensor_work.o(i.Sensor_Task)
    i.Set_Update_Down                        0x08014b80   Section        0  wenzheng_ota.o(i.Set_Update_Down)
    i.StartDefaultTask                       0x08014b98   Section        0  freertos.o(i.StartDefaultTask)
    i.Start_EC600S_Task                      0x08014bc4   Section        0  freertos.o(i.Start_EC600S_Task)
    i.Start_OTA_Task                         0x08014ddc   Section        0  freertos.o(i.Start_OTA_Task)
    i.Start_Sensor_Task                      0x08014e2c   Section        0  freertos.o(i.Start_Sensor_Task)
    i.Start_UI_Task                          0x08014e70   Section        0  freertos.o(i.Start_UI_Task)
    i.SysTick_Handler                        0x08014e8c   Section        0  port.o(i.SysTick_Handler)
    i.SystemClock_Config                     0x08014eb8   Section        0  main.o(i.SystemClock_Config)
    i.SystemInit                             0x08014f38   Section        0  system_stm32l4xx.o(i.SystemInit)
    i.TIM1_UP_TIM16_IRQHandler               0x08014f7c   Section        0  stm32l4xx_it.o(i.TIM1_UP_TIM16_IRQHandler)
    i.TIM_Base_SetConfig                     0x08014f88   Section        0  stm32l4xx_hal_tim.o(i.TIM_Base_SetConfig)
    i.UART_AdvFeatureConfig                  0x08014ff4   Section        0  stm32l4xx_hal_uart.o(i.UART_AdvFeatureConfig)
    i.UART_CheckIdleState                    0x080150bc   Section        0  stm32l4xx_hal_uart.o(i.UART_CheckIdleState)
    i.UART_DMAAbortOnError                   0x08015114   Section        0  stm32l4xx_hal_uart.o(i.UART_DMAAbortOnError)
    UART_DMAAbortOnError                     0x08015115   Thumb Code    20  stm32l4xx_hal_uart.o(i.UART_DMAAbortOnError)
    i.UART_DMAError                          0x08015128   Section        0  stm32l4xx_hal_uart.o(i.UART_DMAError)
    UART_DMAError                            0x08015129   Thumb Code    72  stm32l4xx_hal_uart.o(i.UART_DMAError)
    i.UART_DMAReceiveCplt                    0x08015170   Section        0  stm32l4xx_hal_uart.o(i.UART_DMAReceiveCplt)
    UART_DMAReceiveCplt                      0x08015171   Thumb Code    60  stm32l4xx_hal_uart.o(i.UART_DMAReceiveCplt)
    i.UART_DMARxHalfCplt                     0x080151ac   Section        0  stm32l4xx_hal_uart.o(i.UART_DMARxHalfCplt)
    UART_DMARxHalfCplt                       0x080151ad   Thumb Code    10  stm32l4xx_hal_uart.o(i.UART_DMARxHalfCplt)
    i.UART_EndRxTransfer                     0x080151b6   Section        0  stm32l4xx_hal_uart.o(i.UART_EndRxTransfer)
    UART_EndRxTransfer                       0x080151b7   Thumb Code    30  stm32l4xx_hal_uart.o(i.UART_EndRxTransfer)
    i.UART_EndTxTransfer                     0x080151d4   Section        0  stm32l4xx_hal_uart.o(i.UART_EndTxTransfer)
    UART_EndTxTransfer                       0x080151d5   Thumb Code    16  stm32l4xx_hal_uart.o(i.UART_EndTxTransfer)
    i.UART_SetConfig                         0x080151e4   Section        0  stm32l4xx_hal_uart.o(i.UART_SetConfig)
    i.UART_WaitOnFlagUntilTimeout            0x080153e8   Section        0  stm32l4xx_hal_uart.o(i.UART_WaitOnFlagUntilTimeout)
    i.USART1_IRQHandler                      0x0801548c   Section        0  stm32l4xx_it.o(i.USART1_IRQHandler)
    i.UsageFault_Handler                     0x08015498   Section        0  stm32l4xx_it.o(i.UsageFault_Handler)
    i.WriteFlash                             0x0801549a   Section        0  wenzheng_ota.o(i.WriteFlash)
    i.__0printf                              0x080154c8   Section        0  printfa.o(i.__0printf)
    i.__0snprintf                            0x080154e8   Section        0  printfa.o(i.__0snprintf)
    i.__0sprintf                             0x08015518   Section        0  printfa.o(i.__0sprintf)
    i.__NVIC_SetPriority                     0x08015540   Section        0  stm32l4xx_hal_cortex.o(i.__NVIC_SetPriority)
    __NVIC_SetPriority                       0x08015541   Thumb Code    32  stm32l4xx_hal_cortex.o(i.__NVIC_SetPriority)
    i.__aeabi_errno_addr                     0x08015560   Section        0  errno.o(i.__aeabi_errno_addr)
    i.__free$realloc                         0x08015568   Section        0  mallocr.o(i.__free$realloc)
    i.__hardfp_strtod                        0x080155c8   Section        0  strtod.o(i.__hardfp_strtod)
    i.__malloc$realloc                       0x080155f0   Section        0  mallocr.o(i.__malloc$realloc)
    i.__scatterload_copy                     0x08015640   Section       14  handlers.o(i.__scatterload_copy)
    i.__scatterload_null                     0x0801564e   Section        2  handlers.o(i.__scatterload_null)
    i.__scatterload_zeroinit                 0x08015650   Section       14  handlers.o(i.__scatterload_zeroinit)
    i._fp_digits                             0x08015660   Section        0  printfa.o(i._fp_digits)
    _fp_digits                               0x08015661   Thumb Code   366  printfa.o(i._fp_digits)
    i._is_digit                              0x080157ea   Section        0  scanf_fp.o(i._is_digit)
    i._printf_core                           0x080157f8   Section        0  printfa.o(i._printf_core)
    _printf_core                             0x080157f9   Thumb Code  1744  printfa.o(i._printf_core)
    i._printf_post_padding                   0x08015eda   Section        0  printfa.o(i._printf_post_padding)
    _printf_post_padding                     0x08015edb   Thumb Code    36  printfa.o(i._printf_post_padding)
    i._printf_pre_padding                    0x08015efe   Section        0  printfa.o(i._printf_pre_padding)
    _printf_pre_padding                      0x08015eff   Thumb Code    46  printfa.o(i._printf_pre_padding)
    i._snputc                                0x08015f2c   Section        0  printfa.o(i._snputc)
    _snputc                                  0x08015f2d   Thumb Code    22  printfa.o(i._snputc)
    i._sputc                                 0x08015f42   Section        0  printfa.o(i._sputc)
    _sputc                                   0x08015f43   Thumb Code    10  printfa.o(i._sputc)
    i.add_item_to_array                      0x08015f4c   Section        0  cjson.o(i.add_item_to_array)
    add_item_to_array                        0x08015f4d   Thumb Code    34  cjson.o(i.add_item_to_array)
    i.add_item_to_object                     0x08015f6e   Section        0  cjson.o(i.add_item_to_object)
    add_item_to_object                       0x08015f6f   Thumb Code    86  cjson.o(i.add_item_to_object)
    i.buffer_skip_whitespace                 0x08015fc4   Section        0  cjson.o(i.buffer_skip_whitespace)
    buffer_skip_whitespace                   0x08015fc5   Thumb Code    44  cjson.o(i.buffer_skip_whitespace)
    i.cJSON_AddNumberToObject                0x08015ff0   Section        0  cjson.o(i.cJSON_AddNumberToObject)
    i.cJSON_CreateNumber                     0x08016020   Section        0  cjson.o(i.cJSON_CreateNumber)
    i.cJSON_CreateObject                     0x08016098   Section        0  cjson.o(i.cJSON_CreateObject)
    i.cJSON_Delete                           0x080160b0   Section        0  cjson.o(i.cJSON_Delete)
    i.cJSON_GetArrayItem                     0x080160f8   Section        0  cjson.o(i.cJSON_GetArrayItem)
    i.cJSON_GetErrorPtr                      0x08016104   Section        0  cjson.o(i.cJSON_GetErrorPtr)
    i.cJSON_GetObjectItem                    0x08016114   Section        0  cjson.o(i.cJSON_GetObjectItem)
    i.cJSON_New_Item                         0x0801611a   Section        0  cjson.o(i.cJSON_New_Item)
    cJSON_New_Item                           0x0801611b   Thumb Code    22  cjson.o(i.cJSON_New_Item)
    i.cJSON_Parse                            0x08016130   Section        0  cjson.o(i.cJSON_Parse)
    i.cJSON_ParseWithOpts                    0x08016138   Section        0  cjson.o(i.cJSON_ParseWithOpts)
    i.cJSON_Print                            0x0801621c   Section        0  cjson.o(i.cJSON_Print)
    i.cJSON_strdup                           0x08016228   Section        0  cjson.o(i.cJSON_strdup)
    cJSON_strdup                             0x08016229   Thumb Code    40  cjson.o(i.cJSON_strdup)
    i.display_base                           0x08016250   Section        0  main_ui.o(i.display_base)
    i.ensure                                 0x080164d4   Section        0  cjson.o(i.ensure)
    ensure                                   0x080164d5   Thumb Code   138  cjson.o(i.ensure)
    i.fputc                                  0x08016560   Section        0  usart.o(i.fputc)
    i.get_array_item                         0x08016578   Section        0  cjson.o(i.get_array_item)
    get_array_item                           0x08016579   Thumb Code    22  cjson.o(i.get_array_item)
    i.get_object_item                        0x0801658e   Section        0  cjson.o(i.get_object_item)
    get_object_item                          0x0801658f   Thumb Code   112  cjson.o(i.get_object_item)
    i.internal_alloc                         0x08016600   Section        0  mallocr.o(i.internal_alloc)
    internal_alloc                           0x08016601   Thumb Code    76  mallocr.o(i.internal_alloc)
    i.main                                   0x08016650   Section        0  main.o(i.main)
    i.makeFreeRtosPriority                   0x08016744   Section        0  cmsis_os.o(i.makeFreeRtosPriority)
    makeFreeRtosPriority                     0x08016745   Thumb Code    12  cmsis_os.o(i.makeFreeRtosPriority)
    i.osDelay                                0x08016750   Section        0  cmsis_os.o(i.osDelay)
    i.osKernelStart                          0x0801675e   Section        0  cmsis_os.o(i.osKernelStart)
    i.osMessageCreate                        0x08016768   Section        0  cmsis_os.o(i.osMessageCreate)
    i.osSemaphoreCreate                      0x0801678e   Section        0  cmsis_os.o(i.osSemaphoreCreate)
    i.osThreadCreate                         0x080167cc   Section        0  cmsis_os.o(i.osThreadCreate)
    i.parse_array                            0x08016820   Section        0  cjson.o(i.parse_array)
    parse_array                              0x08016821   Thumb Code   204  cjson.o(i.parse_array)
    i.parse_hex4                             0x080168ec   Section        0  cjson.o(i.parse_hex4)
    parse_hex4                               0x080168ed   Thumb Code    64  cjson.o(i.parse_hex4)
    i.parse_number                           0x0801692c   Section        0  cjson.o(i.parse_number)
    parse_number                             0x0801692d   Thumb Code   240  cjson.o(i.parse_number)
    i.parse_object                           0x08016a2c   Section        0  cjson.o(i.parse_object)
    parse_object                             0x08016a2d   Thumb Code   262  cjson.o(i.parse_object)
    i.parse_string                           0x08016b32   Section        0  cjson.o(i.parse_string)
    parse_string                             0x08016b33   Thumb Code   268  cjson.o(i.parse_string)
    i.parse_value                            0x08016c40   Section        0  cjson.o(i.parse_value)
    parse_value                              0x08016c41   Thumb Code   226  cjson.o(i.parse_value)
    i.print                                  0x08016d3c   Section        0  cjson.o(i.print)
    print                                    0x08016d3d   Thumb Code   152  cjson.o(i.print)
    i.print_array                            0x08016dd4   Section        0  cjson.o(i.print_array)
    print_array                              0x08016dd5   Thumb Code   150  cjson.o(i.print_array)
    i.print_number                           0x08016e6c   Section        0  cjson.o(i.print_number)
    print_number                             0x08016e6d   Thumb Code   148  cjson.o(i.print_number)
    i.print_object                           0x08016f14   Section        0  cjson.o(i.print_object)
    print_object                             0x08016f15   Thumb Code   310  cjson.o(i.print_object)
    i.print_string_ptr                       0x0801704c   Section        0  cjson.o(i.print_string_ptr)
    print_string_ptr                         0x0801704d   Thumb Code   258  cjson.o(i.print_string_ptr)
    i.print_value                            0x0801715c   Section        0  cjson.o(i.print_value)
    print_value                              0x0801715d   Thumb Code   182  cjson.o(i.print_value)
    i.prvAddCurrentTaskToDelayedList         0x0801722c   Section        0  tasks.o(i.prvAddCurrentTaskToDelayedList)
    prvAddCurrentTaskToDelayedList           0x0801722d   Thumb Code   102  tasks.o(i.prvAddCurrentTaskToDelayedList)
    i.prvAddNewTaskToReadyList               0x0801729c   Section        0  tasks.o(i.prvAddNewTaskToReadyList)
    prvAddNewTaskToReadyList                 0x0801729d   Thumb Code   194  tasks.o(i.prvAddNewTaskToReadyList)
    i.prvCopyDataFromQueue                   0x0801736c   Section        0  queue.o(i.prvCopyDataFromQueue)
    prvCopyDataFromQueue                     0x0801736d   Thumb Code    38  queue.o(i.prvCopyDataFromQueue)
    i.prvCopyDataToQueue                     0x08017392   Section        0  queue.o(i.prvCopyDataToQueue)
    prvCopyDataToQueue                       0x08017393   Thumb Code   108  queue.o(i.prvCopyDataToQueue)
    i.prvDeleteTCB                           0x080173fe   Section        0  tasks.o(i.prvDeleteTCB)
    prvDeleteTCB                             0x080173ff   Thumb Code    52  tasks.o(i.prvDeleteTCB)
    i.prvHeapInit                            0x08017434   Section        0  heap_4.o(i.prvHeapInit)
    prvHeapInit                              0x08017435   Thumb Code    64  heap_4.o(i.prvHeapInit)
    i.prvIdleTask                            0x0801747c   Section        0  tasks.o(i.prvIdleTask)
    prvIdleTask                              0x0801747d   Thumb Code    82  tasks.o(i.prvIdleTask)
    i.prvInitialiseNewQueue                  0x080174dc   Section        0  queue.o(i.prvInitialiseNewQueue)
    prvInitialiseNewQueue                    0x080174dd   Thumb Code    22  queue.o(i.prvInitialiseNewQueue)
    i.prvInitialiseNewTask                   0x080174f4   Section        0  tasks.o(i.prvInitialiseNewTask)
    prvInitialiseNewTask                     0x080174f5   Thumb Code   176  tasks.o(i.prvInitialiseNewTask)
    i.prvInsertBlockIntoFreeList             0x080175ac   Section        0  heap_4.o(i.prvInsertBlockIntoFreeList)
    prvInsertBlockIntoFreeList               0x080175ad   Thumb Code    72  heap_4.o(i.prvInsertBlockIntoFreeList)
    i.prvIsQueueEmpty                        0x080175f8   Section        0  queue.o(i.prvIsQueueEmpty)
    prvIsQueueEmpty                          0x080175f9   Thumb Code    28  queue.o(i.prvIsQueueEmpty)
    i.prvResetNextTaskUnblockTime            0x08017614   Section        0  tasks.o(i.prvResetNextTaskUnblockTime)
    prvResetNextTaskUnblockTime              0x08017615   Thumb Code    26  tasks.o(i.prvResetNextTaskUnblockTime)
    i.prvTaskExitError                       0x08017634   Section        0  port.o(i.prvTaskExitError)
    prvTaskExitError                         0x08017635   Thumb Code    36  port.o(i.prvTaskExitError)
    i.prvTaskIsTaskSuspended                 0x0801765c   Section        0  tasks.o(i.prvTaskIsTaskSuspended)
    prvTaskIsTaskSuspended                   0x0801765d   Thumb Code    48  tasks.o(i.prvTaskIsTaskSuspended)
    i.prvUnlockQueue                         0x08017690   Section        0  queue.o(i.prvUnlockQueue)
    prvUnlockQueue                           0x08017691   Thumb Code   106  queue.o(i.prvUnlockQueue)
    i.pvPortMalloc                           0x080176fc   Section        0  heap_4.o(i.pvPortMalloc)
    i.pvTaskIncrementMutexHeldCount          0x080177d4   Section        0  tasks.o(i.pvTaskIncrementMutexHeldCount)
    i.pxPortInitialiseStack                  0x080177ec   Section        0  port.o(i.pxPortInitialiseStack)
    i.realloc                                0x08017818   Section        0  mallocr.o(i.realloc)
    i.update_offset                          0x08017884   Section        0  cjson.o(i.update_offset)
    update_offset                            0x08017885   Thumb Code    28  cjson.o(i.update_offset)
    i.update_ui                              0x080178a0   Section        0  main_ui.o(i.update_ui)
    i.utf16_literal_to_utf8                  0x08017a20   Section        0  cjson.o(i.utf16_literal_to_utf8)
    utf16_literal_to_utf8                    0x08017a21   Thumb Code   210  cjson.o(i.utf16_literal_to_utf8)
    i.uxListRemove                           0x08017af2   Section        0  list.o(i.uxListRemove)
    i.vApplicationGetIdleTaskMemory          0x08017b18   Section        0  freertos.o(i.vApplicationGetIdleTaskMemory)
    i.vListInitialise                        0x08017b2c   Section        0  list.o(i.vListInitialise)
    i.vListInitialiseItem                    0x08017b42   Section        0  list.o(i.vListInitialiseItem)
    i.vListInsert                            0x08017b48   Section        0  list.o(i.vListInsert)
    i.vListInsertEnd                         0x08017b78   Section        0  list.o(i.vListInsertEnd)
    i.vPortEnterCritical                     0x08017b90   Section        0  port.o(i.vPortEnterCritical)
    i.vPortExitCritical                      0x08017bd0   Section        0  port.o(i.vPortExitCritical)
    i.vPortFree                              0x08017bf8   Section        0  heap_4.o(i.vPortFree)
    i.vPortSetupTimerInterrupt               0x08017c54   Section        0  port.o(i.vPortSetupTimerInterrupt)
    i.vPortValidateInterruptPriority         0x08017c78   Section        0  port.o(i.vPortValidateInterruptPriority)
    i.vTaskDelay                             0x08017ccc   Section        0  tasks.o(i.vTaskDelay)
    i.vTaskInternalSetTimeOutState           0x08017d18   Section        0  tasks.o(i.vTaskInternalSetTimeOutState)
    i.vTaskMissedYield                       0x08017d28   Section        0  tasks.o(i.vTaskMissedYield)
    i.vTaskPlaceOnEventList                  0x08017d34   Section        0  tasks.o(i.vTaskPlaceOnEventList)
    i.vTaskPriorityDisinheritAfterTimeout    0x08017d64   Section        0  tasks.o(i.vTaskPriorityDisinheritAfterTimeout)
    i.vTaskResume                            0x08017e0c   Section        0  tasks.o(i.vTaskResume)
    i.vTaskStartScheduler                    0x08017e88   Section        0  tasks.o(i.vTaskStartScheduler)
    i.vTaskSuspend                           0x08017ef4   Section        0  tasks.o(i.vTaskSuspend)
    i.vTaskSuspendAll                        0x08017fb0   Section        0  tasks.o(i.vTaskSuspendAll)
    i.vTaskSwitchContext                     0x08017fc0   Section        0  tasks.o(i.vTaskSwitchContext)
    i.xPortStartScheduler                    0x0801801c   Section        0  port.o(i.xPortStartScheduler)
    i.xQueueGenericCreate                    0x08018110   Section        0  queue.o(i.xQueueGenericCreate)
    i.xQueueGenericCreateStatic              0x08018158   Section        0  queue.o(i.xQueueGenericCreateStatic)
    i.xQueueGenericReset                     0x080181c0   Section        0  queue.o(i.xQueueGenericReset)
    i.xQueueGenericSend                      0x08018248   Section        0  queue.o(i.xQueueGenericSend)
    i.xQueueGenericSendFromISR               0x080183a8   Section        0  queue.o(i.xQueueGenericSendFromISR)
    i.xQueueReceive                          0x08018464   Section        0  queue.o(i.xQueueReceive)
    i.xQueueSemaphoreTake                    0x0801859c   Section        0  queue.o(i.xQueueSemaphoreTake)
    i.xTaskCheckForTimeOut                   0x08018714   Section        0  tasks.o(i.xTaskCheckForTimeOut)
    i.xTaskCreate                            0x08018788   Section        0  tasks.o(i.xTaskCreate)
    i.xTaskCreateStatic                      0x080187e8   Section        0  tasks.o(i.xTaskCreateStatic)
    i.xTaskGetSchedulerState                 0x08018840   Section        0  tasks.o(i.xTaskGetSchedulerState)
    i.xTaskIncrementTick                     0x0801885c   Section        0  tasks.o(i.xTaskIncrementTick)
    i.xTaskPriorityDisinherit                0x08018924   Section        0  tasks.o(i.xTaskPriorityDisinherit)
    i.xTaskPriorityInherit                   0x080189bc   Section        0  tasks.o(i.xTaskPriorityInherit)
    i.xTaskRemoveFromEventList               0x08018a50   Section        0  tasks.o(i.xTaskRemoveFromEventList)
    i.xTaskResumeAll                         0x08018ac4   Section        0  tasks.o(i.xTaskResumeAll)
    .constdata                               0x08018b88   Section      188  freertos.o(.constdata)
    .constdata                               0x08018c44   Section       64  system_stm32l4xx.o(.constdata)
    .constdata                               0x08018c84   Section        8  system_stm32l4xx.o(.constdata)
    .constdata                               0x08018c8c   Section     5700  lcd_spi2_drv.o(.constdata)
    .constdata                               0x0801a2d0   Section      129  ctype_o.o(.constdata)
    .constdata                               0x0801a354   Section        4  ctype_o.o(.constdata)
    table                                    0x0801a354   Data           4  ctype_o.o(.constdata)
    .conststring                             0x0801a358   Section       56  freertos.o(.conststring)
    .data                                    0x20000000   Section       14  sensor_work.o(.data)
    .data                                    0x20000010   Section       36  freertos.o(.data)
    .data                                    0x20000034   Section       12  stm32l4xx_hal.o(.data)
    .data                                    0x20000040   Section       32  stm32l4xx_hal_flash.o(.data)
    .data                                    0x20000060   Section        4  system_stm32l4xx.o(.data)
    .data                                    0x20000064   Section       60  tasks.o(.data)
    pxDelayedTaskList                        0x20000068   Data           4  tasks.o(.data)
    pxOverflowDelayedTaskList                0x2000006c   Data           4  tasks.o(.data)
    uxDeletedTasksWaitingCleanUp             0x20000070   Data           4  tasks.o(.data)
    uxCurrentNumberOfTasks                   0x20000074   Data           4  tasks.o(.data)
    xTickCount                               0x20000078   Data           4  tasks.o(.data)
    uxTopReadyPriority                       0x2000007c   Data           4  tasks.o(.data)
    xSchedulerRunning                        0x20000080   Data           4  tasks.o(.data)
    uxPendedTicks                            0x20000084   Data           4  tasks.o(.data)
    xYieldPending                            0x20000088   Data           4  tasks.o(.data)
    xNumOfOverflows                          0x2000008c   Data           4  tasks.o(.data)
    uxTaskNumber                             0x20000090   Data           4  tasks.o(.data)
    xNextTaskUnblockTime                     0x20000094   Data           4  tasks.o(.data)
    xIdleTaskHandle                          0x20000098   Data           4  tasks.o(.data)
    uxSchedulerSuspended                     0x2000009c   Data           4  tasks.o(.data)
    .data                                    0x200000a0   Section       24  heap_4.o(.data)
    pxEnd                                    0x200000a0   Data           4  heap_4.o(.data)
    xFreeBytesRemaining                      0x200000a4   Data           4  heap_4.o(.data)
    xMinimumEverFreeBytesRemaining           0x200000a8   Data           4  heap_4.o(.data)
    xBlockAllocatedBit                       0x200000ac   Data           4  heap_4.o(.data)
    xStart                                   0x200000b0   Data           8  heap_4.o(.data)
    .data                                    0x200000b8   Section       12  port.o(.data)
    ucMaxSysCallPriority                     0x200000b8   Data           1  port.o(.data)
    uxCriticalNesting                        0x200000bc   Data           4  port.o(.data)
    ulMaxPRIGROUPValue                       0x200000c0   Data           4  port.o(.data)
    .data                                    0x200000c4   Section        2  e53_ia1.o(.data)
    .data                                    0x200000c8   Section       20  cjson.o(.data)
    global_error                             0x200000c8   Data           8  cjson.o(.data)
    global_hooks                             0x200000d0   Data          12  cjson.o(.data)
    .data                                    0x200000dc   Section        4  stdout.o(.data)
    .data                                    0x200000e0   Section        4  mvars.o(.data)
    .data                                    0x200000e4   Section        4  mvars.o(.data)
    .data                                    0x200000e8   Section        4  errno.o(.data)
    _errno                                   0x200000e8   Data           4  errno.o(.data)
    .bss                                     0x200000ec   Section       12  sensor_work.o(.bss)
    .bss                                     0x200000f8   Section      596  freertos.o(.bss)
    xIdleTaskTCBBuffer                       0x200000f8   Data          84  freertos.o(.bss)
    xIdleStack                               0x2000014c   Data         512  freertos.o(.bss)
    .bss                                     0x2000034c   Section       76  i2c.o(.bss)
    .bss                                     0x20000398   Section       16  iwdg.o(.bss)
    .bss                                     0x200003a8   Section     1860  usart.o(.bss)
    .bss                                     0x20000aec   Section      100  spi.o(.bss)
    .bss                                     0x20000b50   Section       76  stm32l4xx_hal_timebase_tim.o(.bss)
    .bss                                     0x20000b9c   Section      240  tasks.o(.bss)
    pxReadyTasksLists                        0x20000b9c   Data         140  tasks.o(.bss)
    xDelayedTaskList1                        0x20000c28   Data          20  tasks.o(.bss)
    xDelayedTaskList2                        0x20000c3c   Data          20  tasks.o(.bss)
    xPendingReadyList                        0x20000c50   Data          20  tasks.o(.bss)
    xTasksWaitingTermination                 0x20000c64   Data          20  tasks.o(.bss)
    xSuspendedTaskList                       0x20000c78   Data          20  tasks.o(.bss)
    .bss                                     0x20000c8c   Section    40000  heap_4.o(.bss)
    ucHeap                                   0x20000c8c   Data       40000  heap_4.o(.bss)
    .bss                                     0x2000a8cc   Section     1426  ec600s.o(.bss)
    .bss                                     0x2000ae5e   Section     1152  lcd_spi2_drv.o(.bss)
    lcd_buf                                  0x2000ae5e   Data        1152  lcd_spi2_drv.o(.bss)
    HEAP                                     0x2000b2e0   Section     1024  startup_stm32l431xx.o(HEAP)
    STACK                                    0x2000b6e0   Section     2048  startup_stm32l431xx.o(STACK)

    Global Symbols

    Symbol Name                              Value     Ov Type        Size  Object(Section)

    BuildAttributes$$THM_ISAv4$E$P$D$K$B$S$7EM$VFPi3$EXTD16$VFPS$VFMA$PE$A:L22UL41UL21$X:L11$S22US41US21$IEEE1$IW$USESV6$~STKCKD$USESV7$~SHL$OTIME$ROPI$IEEEJ$EBA8$MICROLIB$REQ8$PRES8$EABIv2 0x00000000   Number         0  anon$$obj.o ABSOLUTE
    __ARM_use_no_argv                        0x00000000   Number         0  main.o ABSOLUTE
    _printf_a                                0x00000000   Number         0  stubs.o ABSOLUTE
    _printf_c                                0x00000000   Number         0  stubs.o ABSOLUTE
    _printf_charcount                        0x00000000   Number         0  stubs.o ABSOLUTE
    _printf_d                                0x00000000   Number         0  stubs.o ABSOLUTE
    _printf_e                                0x00000000   Number         0  stubs.o ABSOLUTE
    _printf_f                                0x00000000   Number         0  stubs.o ABSOLUTE
    _printf_flags                            0x00000000   Number         0  stubs.o ABSOLUTE
    _printf_fp_dec                           0x00000000   Number         0  stubs.o ABSOLUTE
    _printf_fp_hex                           0x00000000   Number         0  stubs.o ABSOLUTE
    _printf_g                                0x00000000   Number         0  stubs.o ABSOLUTE
    _printf_i                                0x00000000   Number         0  stubs.o ABSOLUTE
    _printf_int_dec                          0x00000000   Number         0  stubs.o ABSOLUTE
    _printf_l                                0x00000000   Number         0  stubs.o ABSOLUTE
    _printf_lc                               0x00000000   Number         0  stubs.o ABSOLUTE
    _printf_ll                               0x00000000   Number         0  stubs.o ABSOLUTE
    _printf_lld                              0x00000000   Number         0  stubs.o ABSOLUTE
    _printf_lli                              0x00000000   Number         0  stubs.o ABSOLUTE
    _printf_llo                              0x00000000   Number         0  stubs.o ABSOLUTE
    _printf_llu                              0x00000000   Number         0  stubs.o ABSOLUTE
    _printf_llx                              0x00000000   Number         0  stubs.o ABSOLUTE
    _printf_longlong_dec                     0x00000000   Number         0  stubs.o ABSOLUTE
    _printf_longlong_hex                     0x00000000   Number         0  stubs.o ABSOLUTE
    _printf_longlong_oct                     0x00000000   Number         0  stubs.o ABSOLUTE
    _printf_ls                               0x00000000   Number         0  stubs.o ABSOLUTE
    _printf_mbtowc                           0x00000000   Number         0  stubs.o ABSOLUTE
    _printf_n                                0x00000000   Number         0  stubs.o ABSOLUTE
    _printf_o                                0x00000000   Number         0  stubs.o ABSOLUTE
    _printf_p                                0x00000000   Number         0  stubs.o ABSOLUTE
    _printf_percent                          0x00000000   Number         0  stubs.o ABSOLUTE
    _printf_pre_padding                      0x00000000   Number         0  stubs.o ABSOLUTE
    _printf_return_value                     0x00000000   Number         0  stubs.o ABSOLUTE
    _printf_s                                0x00000000   Number         0  stubs.o ABSOLUTE
    _printf_sizespec                         0x00000000   Number         0  stubs.o ABSOLUTE
    _printf_str                              0x00000000   Number         0  stubs.o ABSOLUTE
    _printf_truncate_signed                  0x00000000   Number         0  stubs.o ABSOLUTE
    _printf_truncate_unsigned                0x00000000   Number         0  stubs.o ABSOLUTE
    _printf_u                                0x00000000   Number         0  stubs.o ABSOLUTE
    _printf_wc                               0x00000000   Number         0  stubs.o ABSOLUTE
    _printf_wctomb                           0x00000000   Number         0  stubs.o ABSOLUTE
    _printf_widthprec                        0x00000000   Number         0  stubs.o ABSOLUTE
    _printf_x                                0x00000000   Number         0  stubs.o ABSOLUTE
    __cpp_initialize__aeabi_                  - Undefined Weak Reference
    __cxa_finalize                            - Undefined Weak Reference
    __decompress                              - Undefined Weak Reference
    _clock_init                               - Undefined Weak Reference
    _microlib_exit                            - Undefined Weak Reference
    _scanf_int                                - Undefined Weak Reference
    _scanf_longlong                           - Undefined Weak Reference
    _scanf_string                             - Undefined Weak Reference
    __Vectors_Size                           0x0000018c   Number         0  startup_stm32l431xx.o ABSOLUTE
    __Vectors                                0x0800f000   Data           4  startup_stm32l431xx.o(RESET)
    __Vectors_End                            0x0800f18c   Data           0  startup_stm32l431xx.o(RESET)
    __main                                   0x0800f18d   Thumb Code     0  entry.o(.ARM.Collect$$$$00000000)
    _main_stk                                0x0800f18d   Thumb Code     0  entry2.o(.ARM.Collect$$$$00000001)
    _main_scatterload                        0x0800f191   Thumb Code     0  entry5.o(.ARM.Collect$$$$00000004)
    __main_after_scatterload                 0x0800f195   Thumb Code     0  entry5.o(.ARM.Collect$$$$00000004)
    _main_clock                              0x0800f195   Thumb Code     0  entry7b.o(.ARM.Collect$$$$00000008)
    _main_cpp_init                           0x0800f195   Thumb Code     0  entry8b.o(.ARM.Collect$$$$0000000A)
    _main_init                               0x0800f195   Thumb Code     0  entry9a.o(.ARM.Collect$$$$0000000B)
    __rt_final_cpp                           0x0800f19d   Thumb Code     0  entry10a.o(.ARM.Collect$$$$0000000D)
    __rt_final_exit                          0x0800f19d   Thumb Code     0  entry11a.o(.ARM.Collect$$$$0000000F)
    SVC_Handler                              0x0800f1a1   Thumb Code    28  port.o(.emb_text)
    __asm___6_port_c_39a90d8d__prvStartFirstTask 0x0800f1c1   Thumb Code    36  port.o(.emb_text)
    __asm___6_port_c_39a90d8d__prvEnableVFP  0x0800f1e9   Thumb Code    16  port.o(.emb_text)
    PendSV_Handler                           0x0800f1fd   Thumb Code    88  port.o(.emb_text)
    vPortGetIPSR                             0x0800f259   Thumb Code     6  port.o(.emb_text)
    Reset_Handler                            0x0800f281   Thumb Code     8  startup_stm32l431xx.o(.text)
    ADC1_IRQHandler                          0x0800f29b   Thumb Code     0  startup_stm32l431xx.o(.text)
    CAN1_RX0_IRQHandler                      0x0800f29b   Thumb Code     0  startup_stm32l431xx.o(.text)
    CAN1_RX1_IRQHandler                      0x0800f29b   Thumb Code     0  startup_stm32l431xx.o(.text)
    CAN1_SCE_IRQHandler                      0x0800f29b   Thumb Code     0  startup_stm32l431xx.o(.text)
    CAN1_TX_IRQHandler                       0x0800f29b   Thumb Code     0  startup_stm32l431xx.o(.text)
    COMP_IRQHandler                          0x0800f29b   Thumb Code     0  startup_stm32l431xx.o(.text)
    CRS_IRQHandler                           0x0800f29b   Thumb Code     0  startup_stm32l431xx.o(.text)
    DMA1_Channel1_IRQHandler                 0x0800f29b   Thumb Code     0  startup_stm32l431xx.o(.text)
    DMA1_Channel2_IRQHandler                 0x0800f29b   Thumb Code     0  startup_stm32l431xx.o(.text)
    DMA1_Channel4_IRQHandler                 0x0800f29b   Thumb Code     0  startup_stm32l431xx.o(.text)
    DMA1_Channel5_IRQHandler                 0x0800f29b   Thumb Code     0  startup_stm32l431xx.o(.text)
    DMA1_Channel6_IRQHandler                 0x0800f29b   Thumb Code     0  startup_stm32l431xx.o(.text)
    DMA1_Channel7_IRQHandler                 0x0800f29b   Thumb Code     0  startup_stm32l431xx.o(.text)
    DMA2_Channel1_IRQHandler                 0x0800f29b   Thumb Code     0  startup_stm32l431xx.o(.text)
    DMA2_Channel2_IRQHandler                 0x0800f29b   Thumb Code     0  startup_stm32l431xx.o(.text)
    DMA2_Channel3_IRQHandler                 0x0800f29b   Thumb Code     0  startup_stm32l431xx.o(.text)
    DMA2_Channel4_IRQHandler                 0x0800f29b   Thumb Code     0  startup_stm32l431xx.o(.text)
    DMA2_Channel5_IRQHandler                 0x0800f29b   Thumb Code     0  startup_stm32l431xx.o(.text)
    DMA2_Channel6_IRQHandler                 0x0800f29b   Thumb Code     0  startup_stm32l431xx.o(.text)
    EXTI0_IRQHandler                         0x0800f29b   Thumb Code     0  startup_stm32l431xx.o(.text)
    EXTI15_10_IRQHandler                     0x0800f29b   Thumb Code     0  startup_stm32l431xx.o(.text)
    EXTI1_IRQHandler                         0x0800f29b   Thumb Code     0  startup_stm32l431xx.o(.text)
    EXTI2_IRQHandler                         0x0800f29b   Thumb Code     0  startup_stm32l431xx.o(.text)
    EXTI3_IRQHandler                         0x0800f29b   Thumb Code     0  startup_stm32l431xx.o(.text)
    EXTI4_IRQHandler                         0x0800f29b   Thumb Code     0  startup_stm32l431xx.o(.text)
    EXTI9_5_IRQHandler                       0x0800f29b   Thumb Code     0  startup_stm32l431xx.o(.text)
    FLASH_IRQHandler                         0x0800f29b   Thumb Code     0  startup_stm32l431xx.o(.text)
    FPU_IRQHandler                           0x0800f29b   Thumb Code     0  startup_stm32l431xx.o(.text)
    I2C1_ER_IRQHandler                       0x0800f29b   Thumb Code     0  startup_stm32l431xx.o(.text)
    I2C1_EV_IRQHandler                       0x0800f29b   Thumb Code     0  startup_stm32l431xx.o(.text)
    I2C2_ER_IRQHandler                       0x0800f29b   Thumb Code     0  startup_stm32l431xx.o(.text)
    I2C2_EV_IRQHandler                       0x0800f29b   Thumb Code     0  startup_stm32l431xx.o(.text)
    I2C3_ER_IRQHandler                       0x0800f29b   Thumb Code     0  startup_stm32l431xx.o(.text)
    I2C3_EV_IRQHandler                       0x0800f29b   Thumb Code     0  startup_stm32l431xx.o(.text)
    LPTIM1_IRQHandler                        0x0800f29b   Thumb Code     0  startup_stm32l431xx.o(.text)
    LPTIM2_IRQHandler                        0x0800f29b   Thumb Code     0  startup_stm32l431xx.o(.text)
    PVD_PVM_IRQHandler                       0x0800f29b   Thumb Code     0  startup_stm32l431xx.o(.text)
    QUADSPI_IRQHandler                       0x0800f29b   Thumb Code     0  startup_stm32l431xx.o(.text)
    RCC_IRQHandler                           0x0800f29b   Thumb Code     0  startup_stm32l431xx.o(.text)
    RNG_IRQHandler                           0x0800f29b   Thumb Code     0  startup_stm32l431xx.o(.text)
    RTC_Alarm_IRQHandler                     0x0800f29b   Thumb Code     0  startup_stm32l431xx.o(.text)
    RTC_WKUP_IRQHandler                      0x0800f29b   Thumb Code     0  startup_stm32l431xx.o(.text)
    SAI1_IRQHandler                          0x0800f29b   Thumb Code     0  startup_stm32l431xx.o(.text)
    SDMMC1_IRQHandler                        0x0800f29b   Thumb Code     0  startup_stm32l431xx.o(.text)
    SPI1_IRQHandler                          0x0800f29b   Thumb Code     0  startup_stm32l431xx.o(.text)
    SPI2_IRQHandler                          0x0800f29b   Thumb Code     0  startup_stm32l431xx.o(.text)
    SPI3_IRQHandler                          0x0800f29b   Thumb Code     0  startup_stm32l431xx.o(.text)
    SWPMI1_IRQHandler                        0x0800f29b   Thumb Code     0  startup_stm32l431xx.o(.text)
    TAMP_STAMP_IRQHandler                    0x0800f29b   Thumb Code     0  startup_stm32l431xx.o(.text)
    TIM1_BRK_TIM15_IRQHandler                0x0800f29b   Thumb Code     0  startup_stm32l431xx.o(.text)
    TIM1_CC_IRQHandler                       0x0800f29b   Thumb Code     0  startup_stm32l431xx.o(.text)
    TIM1_TRG_COM_IRQHandler                  0x0800f29b   Thumb Code     0  startup_stm32l431xx.o(.text)
    TIM2_IRQHandler                          0x0800f29b   Thumb Code     0  startup_stm32l431xx.o(.text)
    TIM6_DAC_IRQHandler                      0x0800f29b   Thumb Code     0  startup_stm32l431xx.o(.text)
    TIM7_IRQHandler                          0x0800f29b   Thumb Code     0  startup_stm32l431xx.o(.text)
    TSC_IRQHandler                           0x0800f29b   Thumb Code     0  startup_stm32l431xx.o(.text)
    USART2_IRQHandler                        0x0800f29b   Thumb Code     0  startup_stm32l431xx.o(.text)
    USART3_IRQHandler                        0x0800f29b   Thumb Code     0  startup_stm32l431xx.o(.text)
    WWDG_IRQHandler                          0x0800f29b   Thumb Code     0  startup_stm32l431xx.o(.text)
    __aeabi_uldivmod                         0x0800f2a5   Thumb Code    98  uldiv.o(.text)
    tolower                                  0x0800f30d   Thumb Code    12  tolower.o(.text)
    __aeabi_memcpy                           0x0800f319   Thumb Code    36  memcpya.o(.text)
    __aeabi_memcpy4                          0x0800f319   Thumb Code     0  memcpya.o(.text)
    __aeabi_memcpy8                          0x0800f319   Thumb Code     0  memcpya.o(.text)
    __aeabi_memset                           0x0800f33d   Thumb Code    14  memseta.o(.text)
    __aeabi_memset4                          0x0800f33d   Thumb Code     0  memseta.o(.text)
    __aeabi_memset8                          0x0800f33d   Thumb Code     0  memseta.o(.text)
    __aeabi_memclr                           0x0800f34b   Thumb Code     4  memseta.o(.text)
    __aeabi_memclr4                          0x0800f34b   Thumb Code     0  memseta.o(.text)
    __aeabi_memclr8                          0x0800f34b   Thumb Code     0  memseta.o(.text)
    memset                                   0x0800f34f   Thumb Code    18  memseta.o(.text)
    strstr                                   0x0800f361   Thumb Code    36  strstr.o(.text)
    strlen                                   0x0800f385   Thumb Code    14  strlen.o(.text)
    strcmp                                   0x0800f393   Thumb Code    28  strcmp.o(.text)
    strcpy                                   0x0800f3af   Thumb Code    18  strcpy.o(.text)
    strncmp                                  0x0800f3c1   Thumb Code    30  strncmp.o(.text)
    __0sscanf                                0x0800f3e1   Thumb Code    48  __0sscanf.o(.text)
    _scanf_real                              0x0800f541   Thumb Code     0  scanf_fp.o(.text)
    _scanf_really_real                       0x0800f541   Thumb Code   556  scanf_fp.o(.text)
    atoi                                     0x0800f77f   Thumb Code    26  atoi.o(.text)
    __aeabi_dmul                             0x0800f799   Thumb Code   228  dmul.o(.text)
    __aeabi_ddiv                             0x0800f883   Thumb Code   222  ddiv.o(.text)
    __aeabi_ui2d                             0x0800f961   Thumb Code    26  dfltui.o(.text)
    __aeabi_d2iz                             0x0800f97b   Thumb Code    62  dfixi.o(.text)
    __aeabi_f2d                              0x0800f9b9   Thumb Code    38  f2d.o(.text)
    __aeabi_cdcmpeq                          0x0800f9e1   Thumb Code     0  cdcmple.o(.text)
    __aeabi_cdcmple                          0x0800f9e1   Thumb Code    48  cdcmple.o(.text)
    __aeabi_cdrcmple                         0x0800fa11   Thumb Code    48  cdrcmple.o(.text)
    __aeabi_uidiv                            0x0800fa41   Thumb Code     0  uidiv.o(.text)
    __aeabi_uidivmod                         0x0800fa41   Thumb Code    44  uidiv.o(.text)
    __aeabi_llsl                             0x0800fa6d   Thumb Code    30  llshl.o(.text)
    _ll_shift_l                              0x0800fa6d   Thumb Code     0  llshl.o(.text)
    __aeabi_llsr                             0x0800fa8b   Thumb Code    32  llushr.o(.text)
    _ll_ushift_r                             0x0800fa8b   Thumb Code     0  llushr.o(.text)
    __vfscanf_char                           0x0800fab9   Thumb Code    20  scanf_char.o(.text)
    _sgetc                                   0x0800fad5   Thumb Code    30  _sgetc.o(.text)
    _sbackspace                              0x0800faf3   Thumb Code    34  _sgetc.o(.text)
    __strtod_int                             0x0800fb4b   Thumb Code    90  strtod.o(.text)
    strtol                                   0x0800fbb1   Thumb Code   112  strtol.o(.text)
    __I$use$fp                               0x0800fc21   Thumb Code     0  iusefp.o(.text)
    _double_round                            0x0800fc21   Thumb Code    30  depilogue.o(.text)
    _double_epilogue                         0x0800fc3f   Thumb Code   156  depilogue.o(.text)
    __aeabi_dadd                             0x0800fcdb   Thumb Code   322  dadd.o(.text)
    __aeabi_dsub                             0x0800fe1d   Thumb Code     6  dadd.o(.text)
    __aeabi_drsub                            0x0800fe23   Thumb Code     6  dadd.o(.text)
    __aeabi_ul2d                             0x0800fe39   Thumb Code    24  dfltul.o(.text)
    __aeabi_d2ulz                            0x0800fe51   Thumb Code    48  dfixul.o(.text)
    __aeabi_d2f                              0x0800fe81   Thumb Code    56  d2f.o(.text)
    __scatterload                            0x0800feb9   Thumb Code    28  init.o(.text)
    __scatterload_rt2                        0x0800feb9   Thumb Code     0  init.o(.text)
    __aeabi_lasr                             0x0800fedd   Thumb Code    36  llsshr.o(.text)
    _ll_sshift_r                             0x0800fedd   Thumb Code     0  llsshr.o(.text)
    __rt_ctype_table                         0x0800ff01   Thumb Code     4  ctype_o.o(.text)
    isspace                                  0x0800ff09   Thumb Code    18  isspace_o.o(.text)
    __vfscanf                                0x0800ff1d   Thumb Code   808  _scanf.o(.text)
    _strtoul                                 0x0801024f   Thumb Code   158  _strtoul.o(.text)
    _float_round                             0x080102f3   Thumb Code    18  fepilogue.o(.text)
    _float_epilogue                          0x08010305   Thumb Code    92  fepilogue.o(.text)
    _chval                                   0x08010361   Thumb Code    28  _chval.o(.text)
    BH1750_Dat_To_Lux                        0x0801037d   Thumb Code    42  e53_ia1.o(i.BH1750_Dat_To_Lux)
    BH1750_Read_Dat                          0x080103b1   Thumb Code    22  e53_ia1.o(i.BH1750_Read_Dat)
    BH1750_Send_Cmd                          0x080103cd   Thumb Code    24  e53_ia1.o(i.BH1750_Send_Cmd)
    BusFault_Handler                         0x080103e9   Thumb Code     2  stm32l4xx_it.o(i.BusFault_Handler)
    CheckCrc8                                0x080103eb   Thumb Code    48  e53_ia1.o(i.CheckCrc8)
    DMA1_Channel3_IRQHandler                 0x0801041d   Thumb Code     6  stm32l4xx_it.o(i.DMA1_Channel3_IRQHandler)
    DMA2_Channel7_IRQHandler                 0x08010429   Thumb Code     6  stm32l4xx_it.o(i.DMA2_Channel7_IRQHandler)
    DebugMon_Handler                         0x08010463   Thumb Code     2  stm32l4xx_it.o(i.DebugMon_Handler)
    EC600S_ATE0_EN                           0x08010465   Thumb Code    14  ec600s.o(i.EC600S_ATE0_EN)
    EC600S_AT_SR                             0x08010489   Thumb Code   166  ec600s.o(i.EC600S_AT_SR)
    EC600S_Check_Net                         0x08010599   Thumb Code    64  ec600s.o(i.EC600S_Check_Net)
    EC600S_Connect_MQTT                      0x08010605   Thumb Code   112  ec600s.o(i.EC600S_Connect_MQTT)
    EC600S_GET_CSQ                           0x08010719   Thumb Code    72  ec600s.o(i.EC600S_GET_CSQ)
    EC600S_GET_IMEI                          0x0801079d   Thumb Code    56  ec600s.o(i.EC600S_GET_IMEI)
    EC600S_GET_Version                       0x08010801   Thumb Code   348  ec600s.o(i.EC600S_GET_Version)
    EC600S_Get_Bin                           0x08010ac9   Thumb Code   282  ec600s.o(i.EC600S_Get_Bin)
    EC600S_Publish_MQTT                      0x08010d85   Thumb Code    98  ec600s.o(i.EC600S_Publish_MQTT)
    EC600S_Subscribe_MQTT                    0x08010e49   Thumb Code    50  ec600s.o(i.EC600S_Subscribe_MQTT)
    EC600S_WAIT_CREG                         0x08010ec5   Thumb Code    14  ec600s.o(i.EC600S_WAIT_CREG)
    EC600S_Wait_Wakeup                       0x08010ef9   Thumb Code    34  ec600s.o(i.EC600S_Wait_Wakeup)
    EnableUsart_IT                           0x08010f41   Thumb Code    40  usart.o(i.EnableUsart_IT)
    Erase_page                               0x08010f71   Thumb Code    88  wenzheng_ota.o(i.Erase_page)
    Error_Handler                            0x08011021   Thumb Code     2  main.o(i.Error_Handler)
    FLASH_FlushCaches                        0x08011025   Thumb Code    76  stm32l4xx_hal_flash_ex.o(i.FLASH_FlushCaches)
    FLASH_PageErase                          0x08011095   Thumb Code    34  stm32l4xx_hal_flash_ex.o(i.FLASH_PageErase)
    FLASH_WaitForLastOperation               0x08011105   Thumb Code    86  stm32l4xx_hal_flash.o(i.FLASH_WaitForLastOperation)
    Find_string                              0x08011169   Thumb Code    72  my_string.o(i.Find_string)
    HAL_DMA_Abort                            0x08011231   Thumb Code    74  stm32l4xx_hal_dma.o(i.HAL_DMA_Abort)
    HAL_DMA_Abort_IT                         0x0801127b   Thumb Code    78  stm32l4xx_hal_dma.o(i.HAL_DMA_Abort_IT)
    HAL_DMA_GetError                         0x080112c9   Thumb Code     4  stm32l4xx_hal_dma.o(i.HAL_DMA_GetError)
    HAL_DMA_IRQHandler                       0x080112cd   Thumb Code   186  stm32l4xx_hal_dma.o(i.HAL_DMA_IRQHandler)
    HAL_DMA_Init                             0x08011389   Thumb Code   178  stm32l4xx_hal_dma.o(i.HAL_DMA_Init)
    HAL_DMA_Start_IT                         0x08011449   Thumb Code   112  stm32l4xx_hal_dma.o(i.HAL_DMA_Start_IT)
    HAL_Delay                                0x080114b9   Thumb Code    32  stm32l4xx_hal.o(i.HAL_Delay)
    HAL_FLASHEx_Erase                        0x080114dd   Thumb Code   216  stm32l4xx_hal_flash_ex.o(i.HAL_FLASHEx_Erase)
    HAL_FLASH_Lock                           0x080115c5   Thumb Code    14  stm32l4xx_hal_flash.o(i.HAL_FLASH_Lock)
    HAL_FLASH_Program                        0x080115d9   Thumb Code   156  stm32l4xx_hal_flash.o(i.HAL_FLASH_Program)
    HAL_FLASH_Unlock                         0x08011685   Thumb Code    28  stm32l4xx_hal_flash.o(i.HAL_FLASH_Unlock)
    HAL_GPIO_Init                            0x080116ad   Thumb Code   412  stm32l4xx_hal_gpio.o(i.HAL_GPIO_Init)
    HAL_GPIO_TogglePin                       0x0801186b   Thumb Code    16  stm32l4xx_hal_gpio.o(i.HAL_GPIO_TogglePin)
    HAL_GPIO_WritePin                        0x0801187b   Thumb Code    10  stm32l4xx_hal_gpio.o(i.HAL_GPIO_WritePin)
    HAL_GetTick                              0x08011885   Thumb Code     6  stm32l4xx_hal.o(i.HAL_GetTick)
    HAL_I2CEx_ConfigAnalogFilter             0x08011891   Thumb Code    86  stm32l4xx_hal_i2c_ex.o(i.HAL_I2CEx_ConfigAnalogFilter)
    HAL_I2CEx_ConfigDigitalFilter            0x080118e7   Thumb Code    82  stm32l4xx_hal_i2c_ex.o(i.HAL_I2CEx_ConfigDigitalFilter)
    HAL_I2C_Init                             0x08011939   Thumb Code   178  stm32l4xx_hal_i2c.o(i.HAL_I2C_Init)
    HAL_I2C_Master_Receive                   0x080119f1   Thumb Code   282  stm32l4xx_hal_i2c.o(i.HAL_I2C_Master_Receive)
    HAL_I2C_Master_Transmit                  0x08011b1d   Thumb Code   282  stm32l4xx_hal_i2c.o(i.HAL_I2C_Master_Transmit)
    HAL_I2C_MspInit                          0x08011c49   Thumb Code    88  i2c.o(i.HAL_I2C_MspInit)
    HAL_IWDG_Init                            0x08011cad   Thumb Code    94  stm32l4xx_hal_iwdg.o(i.HAL_IWDG_Init)
    HAL_IWDG_Refresh                         0x08011d0b   Thumb Code    12  stm32l4xx_hal_iwdg.o(i.HAL_IWDG_Refresh)
    HAL_IncTick                              0x08011d19   Thumb Code    12  stm32l4xx_hal.o(i.HAL_IncTick)
    HAL_Init                                 0x08011d29   Thumb Code    30  stm32l4xx_hal.o(i.HAL_Init)
    HAL_InitTick                             0x08011d49   Thumb Code    98  stm32l4xx_hal_timebase_tim.o(i.HAL_InitTick)
    HAL_MspInit                              0x08011dbd   Thumb Code    38  stm32l4xx_hal_msp.o(i.HAL_MspInit)
    HAL_NVIC_EnableIRQ                       0x08011de9   Thumb Code    26  stm32l4xx_hal_cortex.o(i.HAL_NVIC_EnableIRQ)
    HAL_NVIC_SetPriority                     0x08011e05   Thumb Code    60  stm32l4xx_hal_cortex.o(i.HAL_NVIC_SetPriority)
    HAL_NVIC_SetPriorityGrouping             0x08011e45   Thumb Code    26  stm32l4xx_hal_cortex.o(i.HAL_NVIC_SetPriorityGrouping)
    HAL_NVIC_SystemReset                     0x08011e69   Thumb Code    26  stm32l4xx_hal_cortex.o(i.HAL_NVIC_SystemReset)
    HAL_PWREx_ControlVoltageScaling          0x08011e8d   Thumb Code    90  stm32l4xx_hal_pwr_ex.o(i.HAL_PWREx_ControlVoltageScaling)
    HAL_PWREx_GetVoltageRange                0x08011ef5   Thumb Code    10  stm32l4xx_hal_pwr_ex.o(i.HAL_PWREx_GetVoltageRange)
    HAL_RCCEx_PeriphCLKConfig                0x08011f05   Thumb Code   682  stm32l4xx_hal_rcc_ex.o(i.HAL_RCCEx_PeriphCLKConfig)
    HAL_RCC_ClockConfig                      0x080121c1   Thumb Code   266  stm32l4xx_hal_rcc.o(i.HAL_RCC_ClockConfig)
    HAL_RCC_GetClockConfig                   0x080122e1   Thumb Code    54  stm32l4xx_hal_rcc.o(i.HAL_RCC_GetClockConfig)
    HAL_RCC_GetPCLK1Freq                     0x08012321   Thumb Code    24  stm32l4xx_hal_rcc.o(i.HAL_RCC_GetPCLK1Freq)
    HAL_RCC_GetPCLK2Freq                     0x08012345   Thumb Code    24  stm32l4xx_hal_rcc.o(i.HAL_RCC_GetPCLK2Freq)
    HAL_RCC_GetSysClockFreq                  0x08012369   Thumb Code   150  stm32l4xx_hal_rcc.o(i.HAL_RCC_GetSysClockFreq)
    HAL_RCC_OscConfig                        0x0801240d   Thumb Code  1382  stm32l4xx_hal_rcc.o(i.HAL_RCC_OscConfig)
    HAL_SPI_Init                             0x08012979   Thumb Code   224  stm32l4xx_hal_spi.o(i.HAL_SPI_Init)
    HAL_SPI_MspInit                          0x08012a59   Thumb Code   112  spi.o(i.HAL_SPI_MspInit)
    HAL_SPI_Transmit                         0x08012ad9   Thumb Code   392  stm32l4xx_hal_spi.o(i.HAL_SPI_Transmit)
    HAL_TIMEx_Break2Callback                 0x08012c67   Thumb Code     2  stm32l4xx_hal_tim_ex.o(i.HAL_TIMEx_Break2Callback)
    HAL_TIMEx_BreakCallback                  0x08012c69   Thumb Code     2  stm32l4xx_hal_tim_ex.o(i.HAL_TIMEx_BreakCallback)
    HAL_TIMEx_CommutCallback                 0x08012c6b   Thumb Code     2  stm32l4xx_hal_tim_ex.o(i.HAL_TIMEx_CommutCallback)
    HAL_TIM_Base_Init                        0x08012c6d   Thumb Code    98  stm32l4xx_hal_tim.o(i.HAL_TIM_Base_Init)
    HAL_TIM_Base_MspInit                     0x08012ccf   Thumb Code     2  stm32l4xx_hal_tim.o(i.HAL_TIM_Base_MspInit)
    HAL_TIM_Base_Start_IT                    0x08012cd1   Thumb Code    76  stm32l4xx_hal_tim.o(i.HAL_TIM_Base_Start_IT)
    HAL_TIM_IC_CaptureCallback               0x08012d29   Thumb Code     2  stm32l4xx_hal_tim.o(i.HAL_TIM_IC_CaptureCallback)
    HAL_TIM_IRQHandler                       0x08012d2b   Thumb Code   388  stm32l4xx_hal_tim.o(i.HAL_TIM_IRQHandler)
    HAL_TIM_OC_DelayElapsedCallback          0x08012eaf   Thumb Code     2  stm32l4xx_hal_tim.o(i.HAL_TIM_OC_DelayElapsedCallback)
    HAL_TIM_PWM_PulseFinishedCallback        0x08012eb1   Thumb Code     2  stm32l4xx_hal_tim.o(i.HAL_TIM_PWM_PulseFinishedCallback)
    HAL_TIM_PeriodElapsedCallback            0x08012eb5   Thumb Code    14  main.o(i.HAL_TIM_PeriodElapsedCallback)
    HAL_TIM_TriggerCallback                  0x08012ec9   Thumb Code     2  stm32l4xx_hal_tim.o(i.HAL_TIM_TriggerCallback)
    HAL_UARTEx_WakeupCallback                0x08012ecb   Thumb Code     2  stm32l4xx_hal_uart_ex.o(i.HAL_UARTEx_WakeupCallback)
    HAL_UART_DMAStop                         0x08012ecd   Thumb Code   114  stm32l4xx_hal_uart.o(i.HAL_UART_DMAStop)
    HAL_UART_ErrorCallback                   0x08012f3f   Thumb Code     2  stm32l4xx_hal_uart.o(i.HAL_UART_ErrorCallback)
    HAL_UART_IRQHandler                      0x08012f41   Thumb Code   348  stm32l4xx_hal_uart.o(i.HAL_UART_IRQHandler)
    HAL_UART_Init                            0x080130a5   Thumb Code   102  stm32l4xx_hal_uart.o(i.HAL_UART_Init)
    HAL_UART_MspInit                         0x0801310d   Thumb Code   402  usart.o(i.HAL_UART_MspInit)
    HAL_UART_Receive_DMA                     0x080132c5   Thumb Code   142  stm32l4xx_hal_uart.o(i.HAL_UART_Receive_DMA)
    HAL_UART_RxCpltCallback                  0x08013361   Thumb Code   106  usart.o(i.HAL_UART_RxCpltCallback)
    HAL_UART_RxHalfCpltCallback              0x08013461   Thumb Code     2  stm32l4xx_hal_uart.o(i.HAL_UART_RxHalfCpltCallback)
    HAL_UART_Transmit                        0x08013465   Thumb Code   182  stm32l4xx_hal_uart.o(i.HAL_UART_Transmit)
    HAL_UART_TxCpltCallback                  0x0801351b   Thumb Code     2  stm32l4xx_hal_uart.o(i.HAL_UART_TxCpltCallback)
    HardFault_Handler                        0x0801351d   Thumb Code     2  stm32l4xx_it.o(i.HardFault_Handler)
    LCD_Address_Set                          0x08013769   Thumb Code    82  lcd_spi2_drv.o(i.LCD_Address_Set)
    LCD_Clear                                0x080137bd   Thumb Code    80  lcd_spi2_drv.o(i.LCD_Clear)
    LCD_DisplayOn                            0x08013815   Thumb Code    10  lcd_spi2_drv.o(i.LCD_DisplayOn)
    LCD_Draw_ColorCircle                     0x08013825   Thumb Code   264  lcd_spi2_drv.o(i.LCD_Draw_ColorCircle)
    LCD_Draw_ColorLine                       0x08013935   Thumb Code   238  lcd_spi2_drv.o(i.LCD_Draw_ColorLine)
    LCD_Draw_ColorPoint                      0x08013a3d   Thumb Code    22  lcd_spi2_drv.o(i.LCD_Draw_ColorPoint)
    LCD_Fill                                 0x08013a55   Thumb Code   118  lcd_spi2_drv.o(i.LCD_Fill)
    LCD_Init                                 0x08013b95   Thumb Code   400  lcd_spi2_drv.o(i.LCD_Init)
    LCD_ShowChar                             0x08013d29   Thumb Code   184  lcd_spi2_drv.o(i.LCD_ShowChar)
    LCD_ShowCharStr                          0x08013def   Thumb Code    64  lcd_spi2_drv.o(i.LCD_ShowCharStr)
    LCD_Write_2Byte                          0x08013e35   Thumb Code    36  lcd_spi2_drv.o(i.LCD_Write_2Byte)
    LCD_Write_Cmd                            0x08013e5d   Thumb Code    22  lcd_spi2_drv.o(i.LCD_Write_Cmd)
    LCD_Write_Data                           0x08013e79   Thumb Code    22  lcd_spi2_drv.o(i.LCD_Write_Data)
    LPUART1_IRQHandler                       0x08013e95   Thumb Code    78  stm32l4xx_it.o(i.LPUART1_IRQHandler)
    MX_DMA_Init                              0x08013ef1   Thumb Code    72  dma.o(i.MX_DMA_Init)
    MX_FREERTOS_Init                         0x08013f3d   Thumb Code   246  freertos.o(i.MX_FREERTOS_Init)
    MX_GPIO_Init                             0x0801403d   Thumb Code   226  gpio.o(i.MX_GPIO_Init)
    MX_I2C1_Init                             0x0801412d   Thumb Code    76  i2c.o(i.MX_I2C1_Init)
    MX_IWDG_Init                             0x08014185   Thumb Code    42  iwdg.o(i.MX_IWDG_Init)
    MX_LPUART1_UART_Init                     0x080141b9   Thumb Code    50  usart.o(i.MX_LPUART1_UART_Init)
    MX_SPI2_Init                             0x080141f5   Thumb Code    70  spi.o(i.MX_SPI2_Init)
    MX_USART1_UART_Init                      0x08014245   Thumb Code    52  usart.o(i.MX_USART1_UART_Init)
    MX_USART2_UART_Init                      0x08014281   Thumb Code    52  usart.o(i.MX_USART2_UART_Init)
    MX_USART3_UART_Init                      0x080142bd   Thumb Code    52  usart.o(i.MX_USART3_UART_Init)
    MemManage_Handler                        0x080142f9   Thumb Code     2  stm32l4xx_it.o(i.MemManage_Handler)
    NMI_Handler                              0x080142fb   Thumb Code     2  stm32l4xx_it.o(i.NMI_Handler)
    OTA_Task                                 0x080142fd   Thumb Code   334  ota_task.o(i.OTA_Task)
    SHT30_Dat_To_Float                       0x0801477d   Thumb Code   108  e53_ia1.o(i.SHT30_Dat_To_Float)
    SHT30_Init                               0x080147f9   Thumb Code     8  e53_ia1.o(i.SHT30_Init)
    SHT30_Read_Dat                           0x08014801   Thumb Code    32  e53_ia1.o(i.SHT30_Read_Dat)
    SHT30_Reset                              0x08014825   Thumb Code    20  e53_ia1.o(i.SHT30_Reset)
    SPI2_WriteByte                           0x0801485d   Thumb Code    14  spi.o(i.SPI2_WriteByte)
    Sensor_Task                              0x08014a41   Thumb Code   222  sensor_work.o(i.Sensor_Task)
    Set_Update_Down                          0x08014b81   Thumb Code    20  wenzheng_ota.o(i.Set_Update_Down)
    StartDefaultTask                         0x08014b99   Thumb Code    30  freertos.o(i.StartDefaultTask)
    Start_EC600S_Task                        0x08014bc5   Thumb Code   258  freertos.o(i.Start_EC600S_Task)
    Start_OTA_Task                           0x08014ddd   Thumb Code    42  freertos.o(i.Start_OTA_Task)
    Start_Sensor_Task                        0x08014e2d   Thumb Code    32  freertos.o(i.Start_Sensor_Task)
    Start_UI_Task                            0x08014e71   Thumb Code    28  freertos.o(i.Start_UI_Task)
    SysTick_Handler                          0x08014e8d   Thumb Code    38  port.o(i.SysTick_Handler)
    SystemClock_Config                       0x08014eb9   Thumb Code   128  main.o(i.SystemClock_Config)
    SystemInit                               0x08014f39   Thumb Code    56  system_stm32l4xx.o(i.SystemInit)
    TIM1_UP_TIM16_IRQHandler                 0x08014f7d   Thumb Code     6  stm32l4xx_it.o(i.TIM1_UP_TIM16_IRQHandler)
    TIM_Base_SetConfig                       0x08014f89   Thumb Code    94  stm32l4xx_hal_tim.o(i.TIM_Base_SetConfig)
    UART_AdvFeatureConfig                    0x08014ff5   Thumb Code   200  stm32l4xx_hal_uart.o(i.UART_AdvFeatureConfig)
    UART_CheckIdleState                      0x080150bd   Thumb Code    88  stm32l4xx_hal_uart.o(i.UART_CheckIdleState)
    UART_SetConfig                           0x080151e5   Thumb Code   484  stm32l4xx_hal_uart.o(i.UART_SetConfig)
    UART_WaitOnFlagUntilTimeout              0x080153e9   Thumb Code   164  stm32l4xx_hal_uart.o(i.UART_WaitOnFlagUntilTimeout)
    USART1_IRQHandler                        0x0801548d   Thumb Code     6  stm32l4xx_it.o(i.USART1_IRQHandler)
    UsageFault_Handler                       0x08015499   Thumb Code     2  stm32l4xx_it.o(i.UsageFault_Handler)
    WriteFlash                               0x0801549b   Thumb Code    46  wenzheng_ota.o(i.WriteFlash)
    __0printf                                0x080154c9   Thumb Code    22  printfa.o(i.__0printf)
    __1printf                                0x080154c9   Thumb Code     0  printfa.o(i.__0printf)
    __2printf                                0x080154c9   Thumb Code     0  printfa.o(i.__0printf)
    __c89printf                              0x080154c9   Thumb Code     0  printfa.o(i.__0printf)
    printf                                   0x080154c9   Thumb Code     0  printfa.o(i.__0printf)
    __0snprintf                              0x080154e9   Thumb Code    44  printfa.o(i.__0snprintf)
    __1snprintf                              0x080154e9   Thumb Code     0  printfa.o(i.__0snprintf)
    __2snprintf                              0x080154e9   Thumb Code     0  printfa.o(i.__0snprintf)
    __c89snprintf                            0x080154e9   Thumb Code     0  printfa.o(i.__0snprintf)
    snprintf                                 0x080154e9   Thumb Code     0  printfa.o(i.__0snprintf)
    __0sprintf                               0x08015519   Thumb Code    34  printfa.o(i.__0sprintf)
    __1sprintf                               0x08015519   Thumb Code     0  printfa.o(i.__0sprintf)
    __2sprintf                               0x08015519   Thumb Code     0  printfa.o(i.__0sprintf)
    __c89sprintf                             0x08015519   Thumb Code     0  printfa.o(i.__0sprintf)
    sprintf                                  0x08015519   Thumb Code     0  printfa.o(i.__0sprintf)
    __aeabi_errno_addr                       0x08015561   Thumb Code     4  errno.o(i.__aeabi_errno_addr)
    __rt_errno_addr                          0x08015561   Thumb Code     0  errno.o(i.__aeabi_errno_addr)
    free                                     0x08015569   Thumb Code    88  mallocr.o(i.__free$realloc)
    __hardfp_strtod                          0x080155c9   Thumb Code    30  strtod.o(i.__hardfp_strtod)
    malloc                                   0x080155f1   Thumb Code    64  mallocr.o(i.__malloc$realloc)
    __scatterload_copy                       0x08015641   Thumb Code    14  handlers.o(i.__scatterload_copy)
    __scatterload_null                       0x0801564f   Thumb Code     2  handlers.o(i.__scatterload_null)
    __scatterload_zeroinit                   0x08015651   Thumb Code    14  handlers.o(i.__scatterload_zeroinit)
    _is_digit                                0x080157eb   Thumb Code    14  scanf_fp.o(i._is_digit)
    cJSON_AddNumberToObject                  0x08015ff1   Thumb Code    42  cjson.o(i.cJSON_AddNumberToObject)
    cJSON_CreateNumber                       0x08016021   Thumb Code    98  cjson.o(i.cJSON_CreateNumber)
    cJSON_CreateObject                       0x08016099   Thumb Code    18  cjson.o(i.cJSON_CreateObject)
    cJSON_Delete                             0x080160b1   Thumb Code    66  cjson.o(i.cJSON_Delete)
    cJSON_GetArrayItem                       0x080160f9   Thumb Code    12  cjson.o(i.cJSON_GetArrayItem)
    cJSON_GetErrorPtr                        0x08016105   Thumb Code    10  cjson.o(i.cJSON_GetErrorPtr)
    cJSON_GetObjectItem                      0x08016115   Thumb Code     6  cjson.o(i.cJSON_GetObjectItem)
    cJSON_Parse                              0x08016131   Thumb Code     8  cjson.o(i.cJSON_Parse)
    cJSON_ParseWithOpts                      0x08016139   Thumb Code   218  cjson.o(i.cJSON_ParseWithOpts)
    cJSON_Print                              0x0801621d   Thumb Code     8  cjson.o(i.cJSON_Print)
    display_base                             0x08016251   Thumb Code   534  main_ui.o(i.display_base)
    fputc                                    0x08016561   Thumb Code    18  usart.o(i.fputc)
    main                                     0x08016651   Thumb Code   108  main.o(i.main)
    osDelay                                  0x08016751   Thumb Code    14  cmsis_os.o(i.osDelay)
    osKernelStart                            0x0801675f   Thumb Code    10  cmsis_os.o(i.osKernelStart)
    osMessageCreate                          0x08016769   Thumb Code    38  cmsis_os.o(i.osMessageCreate)
    osSemaphoreCreate                        0x0801678f   Thumb Code    62  cmsis_os.o(i.osSemaphoreCreate)
    osThreadCreate                           0x080167cd   Thumb Code    84  cmsis_os.o(i.osThreadCreate)
    pvPortMalloc                             0x080176fd   Thumb Code   210  heap_4.o(i.pvPortMalloc)
    pvTaskIncrementMutexHeldCount            0x080177d5   Thumb Code    18  tasks.o(i.pvTaskIncrementMutexHeldCount)
    pxPortInitialiseStack                    0x080177ed   Thumb Code    40  port.o(i.pxPortInitialiseStack)
    realloc                                  0x08017819   Thumb Code   102  mallocr.o(i.realloc)
    update_ui                                0x080178a1   Thumb Code   358  main_ui.o(i.update_ui)
    uxListRemove                             0x08017af3   Thumb Code    38  list.o(i.uxListRemove)
    vApplicationGetIdleTaskMemory            0x08017b19   Thumb Code    16  freertos.o(i.vApplicationGetIdleTaskMemory)
    vListInitialise                          0x08017b2d   Thumb Code    22  list.o(i.vListInitialise)
    vListInitialiseItem                      0x08017b43   Thumb Code     6  list.o(i.vListInitialiseItem)
    vListInsert                              0x08017b49   Thumb Code    48  list.o(i.vListInsert)
    vListInsertEnd                           0x08017b79   Thumb Code    24  list.o(i.vListInsertEnd)
    vPortEnterCritical                       0x08017b91   Thumb Code    54  port.o(i.vPortEnterCritical)
    vPortExitCritical                        0x08017bd1   Thumb Code    34  port.o(i.vPortExitCritical)
    vPortFree                                0x08017bf9   Thumb Code    88  heap_4.o(i.vPortFree)
    vPortSetupTimerInterrupt                 0x08017c55   Thumb Code    32  port.o(i.vPortSetupTimerInterrupt)
    vPortValidateInterruptPriority           0x08017c79   Thumb Code    74  port.o(i.vPortValidateInterruptPriority)
    vTaskDelay                               0x08017ccd   Thumb Code    66  tasks.o(i.vTaskDelay)
    vTaskInternalSetTimeOutState             0x08017d19   Thumb Code    12  tasks.o(i.vTaskInternalSetTimeOutState)
    vTaskMissedYield                         0x08017d29   Thumb Code     8  tasks.o(i.vTaskMissedYield)
    vTaskPlaceOnEventList                    0x08017d35   Thumb Code    44  tasks.o(i.vTaskPlaceOnEventList)
    vTaskPriorityDisinheritAfterTimeout      0x08017d65   Thumb Code   160  tasks.o(i.vTaskPriorityDisinheritAfterTimeout)
    vTaskResume                              0x08017e0d   Thumb Code   112  tasks.o(i.vTaskResume)
    vTaskStartScheduler                      0x08017e89   Thumb Code    90  tasks.o(i.vTaskStartScheduler)
    vTaskSuspend                             0x08017ef5   Thumb Code   174  tasks.o(i.vTaskSuspend)
    vTaskSuspendAll                          0x08017fb1   Thumb Code    10  tasks.o(i.vTaskSuspendAll)
    vTaskSwitchContext                       0x08017fc1   Thumb Code    82  tasks.o(i.vTaskSwitchContext)
    xPortStartScheduler                      0x0801801d   Thumb Code   222  port.o(i.xPortStartScheduler)
    xQueueGenericCreate                      0x08018111   Thumb Code    72  queue.o(i.xQueueGenericCreate)
    xQueueGenericCreateStatic                0x08018159   Thumb Code   102  queue.o(i.xQueueGenericCreateStatic)
    xQueueGenericReset                       0x080181c1   Thumb Code   132  queue.o(i.xQueueGenericReset)
    xQueueGenericSend                        0x08018249   Thumb Code   346  queue.o(i.xQueueGenericSend)
    xQueueGenericSendFromISR                 0x080183a9   Thumb Code   188  queue.o(i.xQueueGenericSendFromISR)
    xQueueReceive                            0x08018465   Thumb Code   308  queue.o(i.xQueueReceive)
    xQueueSemaphoreTake                      0x0801859d   Thumb Code   372  queue.o(i.xQueueSemaphoreTake)
    xTaskCheckForTimeOut                     0x08018715   Thumb Code   112  tasks.o(i.xTaskCheckForTimeOut)
    xTaskCreate                              0x08018789   Thumb Code    90  tasks.o(i.xTaskCreate)
    xTaskCreateStatic                        0x080187e9   Thumb Code    86  tasks.o(i.xTaskCreateStatic)
    xTaskGetSchedulerState                   0x08018841   Thumb Code    22  tasks.o(i.xTaskGetSchedulerState)
    xTaskIncrementTick                       0x0801885d   Thumb Code   192  tasks.o(i.xTaskIncrementTick)
    xTaskPriorityDisinherit                  0x08018925   Thumb Code   144  tasks.o(i.xTaskPriorityDisinherit)
    xTaskPriorityInherit                     0x080189bd   Thumb Code   138  tasks.o(i.xTaskPriorityInherit)
    xTaskRemoveFromEventList                 0x08018a51   Thumb Code   108  tasks.o(i.xTaskRemoveFromEventList)
    xTaskResumeAll                           0x08018ac5   Thumb Code   182  tasks.o(i.xTaskResumeAll)
    AHBPrescTable                            0x08018c44   Data          16  system_stm32l4xx.o(.constdata)
    MSIRangeTable                            0x08018c54   Data          48  system_stm32l4xx.o(.constdata)
    APBPrescTable                            0x08018c84   Data           8  system_stm32l4xx.o(.constdata)
    asc2_1206                                0x08018c8c   Data        1140  lcd_spi2_drv.o(.constdata)
    asc2_2412                                0x08019100   Data        4560  lcd_spi2_drv.o(.constdata)
    __ctype_table                            0x0801a2d0   Data         129  ctype_o.o(.constdata)
    Region$$Table$$Base                      0x0801a390   Number         0  anon$$obj.o(Region$$Table)
    Region$$Table$$Limit                     0x0801a3b0   Number         0  anon$$obj.o(Region$$Table)
    dat                                      0x20000000   Data           2  sensor_work.o(.data)
    err                                      0x20000004   Data           4  sensor_work.o(.data)
    recv_dat                                 0x20000008   Data           6  sensor_work.o(.data)
    defaultTaskHandle                        0x20000010   Data           4  freertos.o(.data)
    EC600S_TaskHandle                        0x20000014   Data           4  freertos.o(.data)
    Sensor_TaskHandle                        0x20000018   Data           4  freertos.o(.data)
    OTA_TaskHandle                           0x2000001c   Data           4  freertos.o(.data)
    UI_TaskHandle                            0x20000020   Data           4  freertos.o(.data)
    EC600S_Rev_QueueHandle                   0x20000024   Data           4  freertos.o(.data)
    Sensor_QueueHandle                       0x20000028   Data           4  freertos.o(.data)
    MQTT_REV_QueueHandle                     0x2000002c   Data           4  freertos.o(.data)
    OTA_StartHandle                          0x20000030   Data           4  freertos.o(.data)
    uwTickFreq                               0x20000034   Data           1  stm32l4xx_hal.o(.data)
    uwTickPrio                               0x20000038   Data           4  stm32l4xx_hal.o(.data)
    uwTick                                   0x2000003c   Data           4  stm32l4xx_hal.o(.data)
    pFlash                                   0x20000040   Data          32  stm32l4xx_hal_flash.o(.data)
    SystemCoreClock                          0x20000060   Data           4  system_stm32l4xx.o(.data)
    pxCurrentTCB                             0x20000064   Data           4  tasks.o(.data)
    LED_Toggle_time                          0x200000c4   Data           2  e53_ia1.o(.data)
    __stdout                                 0x200000dc   Data           4  stdout.o(.data)
    __microlib_freelist                      0x200000e0   Data           4  mvars.o(.data)
    __microlib_freelist_initialised          0x200000e4   Data           4  mvars.o(.data)
    E53_Sensor_type                          0x200000ec   Data          12  sensor_work.o(.bss)
    hi2c1                                    0x2000034c   Data          76  i2c.o(.bss)
    hiwdg                                    0x20000398   Data          16  iwdg.o(.bss)
    AT_usartype                              0x200003a8   Data        1204  usart.o(.bss)
    hlpuart1                                 0x2000085c   Data         128  usart.o(.bss)
    huart1                                   0x200008dc   Data         128  usart.o(.bss)
    huart2                                   0x2000095c   Data         128  usart.o(.bss)
    huart3                                   0x200009dc   Data         128  usart.o(.bss)
    hdma_lpuart_rx                           0x20000a5c   Data          72  usart.o(.bss)
    hdma_usart3_rx                           0x20000aa4   Data          72  usart.o(.bss)
    hspi2                                    0x20000aec   Data         100  spi.o(.bss)
    htim1                                    0x20000b50   Data          76  stm32l4xx_hal_timebase_tim.o(.bss)
    AT_rev                                   0x2000a8cc   Data        1200  ec600s.o(.bss)
    AT_send                                  0x2000ad7c   Data         200  ec600s.o(.bss)
    EC600S_type                              0x2000ae44   Data          26  ec600s.o(.bss)
    __heap_base                              0x2000b2e0   Data           0  startup_stm32l431xx.o(HEAP)
    __heap_limit                             0x2000b6e0   Data           0  startup_stm32l431xx.o(HEAP)
    __initial_sp                             0x2000bee0   Data           0  startup_stm32l431xx.o(STACK)



==============================================================================

Memory Map of the image

  Image Entry point : 0x0800f18d

  Load Region LR_IROM1 (Base: 0x0800f000, Size: 0x0000b49c, Max: 0x00016800, ABSOLUTE)

    Execution Region ER_IROM1 (Exec base: 0x0800f000, Load base: 0x0800f000, Size: 0x0000b3b0, Max: 0x00016800, ABSOLUTE)

    Exec Addr    Load Addr    Size         Type   Attr      Idx    E Section Name        Object

    0x0800f000   0x0800f000   0x0000018c   Data   RO            3    RESET               startup_stm32l431xx.o
    0x0800f18c   0x0800f18c   0x00000000   Code   RO         7151  * .ARM.Collect$$$$00000000  mc_w.l(entry.o)
    0x0800f18c   0x0800f18c   0x00000004   Code   RO         7501    .ARM.Collect$$$$00000001  mc_w.l(entry2.o)
    0x0800f190   0x0800f190   0x00000004   Code   RO         7504    .ARM.Collect$$$$00000004  mc_w.l(entry5.o)
    0x0800f194   0x0800f194   0x00000000   Code   RO         7506    .ARM.Collect$$$$00000008  mc_w.l(entry7b.o)
    0x0800f194   0x0800f194   0x00000000   Code   RO         7508    .ARM.Collect$$$$0000000A  mc_w.l(entry8b.o)
    0x0800f194   0x0800f194   0x00000008   Code   RO         7509    .ARM.Collect$$$$0000000B  mc_w.l(entry9a.o)
    0x0800f19c   0x0800f19c   0x00000000   Code   RO         7511    .ARM.Collect$$$$0000000D  mc_w.l(entry10a.o)
    0x0800f19c   0x0800f19c   0x00000000   Code   RO         7513    .ARM.Collect$$$$0000000F  mc_w.l(entry11a.o)
    0x0800f19c   0x0800f19c   0x00000004   Code   RO         7502    .ARM.Collect$$$$00002712  mc_w.l(entry2.o)
    0x0800f1a0   0x0800f1a0   0x000000de   Code   RO         5878    .emb_text           port.o
    0x0800f27e   0x0800f27e   0x00000002   PAD
    0x0800f280   0x0800f280   0x00000024   Code   RO            4    .text               startup_stm32l431xx.o
    0x0800f2a4   0x0800f2a4   0x00000068   Code   RO         7154    .text               mc_w.l(uldiv.o)
    0x0800f30c   0x0800f30c   0x0000000c   Code   RO         7156    .text               mc_w.l(tolower.o)
    0x0800f318   0x0800f318   0x00000024   Code   RO         7158    .text               mc_w.l(memcpya.o)
    0x0800f33c   0x0800f33c   0x00000024   Code   RO         7162    .text               mc_w.l(memseta.o)
    0x0800f360   0x0800f360   0x00000024   Code   RO         7166    .text               mc_w.l(strstr.o)
    0x0800f384   0x0800f384   0x0000000e   Code   RO         7168    .text               mc_w.l(strlen.o)
    0x0800f392   0x0800f392   0x0000001c   Code   RO         7170    .text               mc_w.l(strcmp.o)
    0x0800f3ae   0x0800f3ae   0x00000012   Code   RO         7172    .text               mc_w.l(strcpy.o)
    0x0800f3c0   0x0800f3c0   0x0000001e   Code   RO         7174    .text               mc_w.l(strncmp.o)
    0x0800f3de   0x0800f3de   0x00000002   PAD
    0x0800f3e0   0x0800f3e0   0x00000038   Code   RO         7475    .text               mc_w.l(__0sscanf.o)
    0x0800f418   0x0800f418   0x00000366   Code   RO         7477    .text               mc_w.l(scanf_fp.o)
    0x0800f77e   0x0800f77e   0x0000001a   Code   RO         7481    .text               mc_w.l(atoi.o)
    0x0800f798   0x0800f798   0x000000ea   Code   RO         7483    .text               mf_w.l(dmul.o)
    0x0800f882   0x0800f882   0x000000de   Code   RO         7485    .text               mf_w.l(ddiv.o)
    0x0800f960   0x0800f960   0x0000001a   Code   RO         7489    .text               mf_w.l(dfltui.o)
    0x0800f97a   0x0800f97a   0x0000003e   Code   RO         7491    .text               mf_w.l(dfixi.o)
    0x0800f9b8   0x0800f9b8   0x00000026   Code   RO         7495    .text               mf_w.l(f2d.o)
    0x0800f9de   0x0800f9de   0x00000002   PAD
    0x0800f9e0   0x0800f9e0   0x00000030   Code   RO         7497    .text               mf_w.l(cdcmple.o)
    0x0800fa10   0x0800fa10   0x00000030   Code   RO         7499    .text               mf_w.l(cdrcmple.o)
    0x0800fa40   0x0800fa40   0x0000002c   Code   RO         7516    .text               mc_w.l(uidiv.o)
    0x0800fa6c   0x0800fa6c   0x0000001e   Code   RO         7518    .text               mc_w.l(llshl.o)
    0x0800fa8a   0x0800fa8a   0x00000020   Code   RO         7520    .text               mc_w.l(llushr.o)
    0x0800faaa   0x0800faaa   0x00000002   PAD
    0x0800faac   0x0800faac   0x00000028   Code   RO         7531    .text               mc_w.l(scanf_char.o)
    0x0800fad4   0x0800fad4   0x00000040   Code   RO         7533    .text               mc_w.l(_sgetc.o)
    0x0800fb14   0x0800fb14   0x0000009c   Code   RO         7535    .text               mc_w.l(strtod.o)
    0x0800fbb0   0x0800fbb0   0x00000070   Code   RO         7537    .text               mc_w.l(strtol.o)
    0x0800fc20   0x0800fc20   0x00000000   Code   RO         7539    .text               mc_w.l(iusefp.o)
    0x0800fc20   0x0800fc20   0x000000ba   Code   RO         7540    .text               mf_w.l(depilogue.o)
    0x0800fcda   0x0800fcda   0x0000015e   Code   RO         7542    .text               mf_w.l(dadd.o)
    0x0800fe38   0x0800fe38   0x00000018   Code   RO         7544    .text               mf_w.l(dfltul.o)
    0x0800fe50   0x0800fe50   0x00000030   Code   RO         7546    .text               mf_w.l(dfixul.o)
    0x0800fe80   0x0800fe80   0x00000038   Code   RO         7548    .text               mf_w.l(d2f.o)
    0x0800feb8   0x0800feb8   0x00000024   Code   RO         7550    .text               mc_w.l(init.o)
    0x0800fedc   0x0800fedc   0x00000024   Code   RO         7552    .text               mc_w.l(llsshr.o)
    0x0800ff00   0x0800ff00   0x00000008   Code   RO         7556    .text               mc_w.l(ctype_o.o)
    0x0800ff08   0x0800ff08   0x00000012   Code   RO         7578    .text               mc_w.l(isspace_o.o)
    0x0800ff1a   0x0800ff1a   0x00000002   PAD
    0x0800ff1c   0x0800ff1c   0x00000332   Code   RO         7584    .text               mc_w.l(_scanf.o)
    0x0801024e   0x0801024e   0x000000a4   Code   RO         7586    .text               mc_w.l(_strtoul.o)
    0x080102f2   0x080102f2   0x0000006e   Code   RO         7588    .text               mf_w.l(fepilogue.o)
    0x08010360   0x08010360   0x0000001c   Code   RO         7593    .text               mc_w.l(_chval.o)
    0x0801037c   0x0801037c   0x00000034   Code   RO         6307    i.BH1750_Dat_To_Lux  e53_ia1.o
    0x080103b0   0x080103b0   0x0000001c   Code   RO         6308    i.BH1750_Read_Dat   e53_ia1.o
    0x080103cc   0x080103cc   0x0000001c   Code   RO         6309    i.BH1750_Send_Cmd   e53_ia1.o
    0x080103e8   0x080103e8   0x00000002   Code   RO          634    i.BusFault_Handler  stm32l4xx_it.o
    0x080103ea   0x080103ea   0x00000030   Code   RO         6310    i.CheckCrc8         e53_ia1.o
    0x0801041a   0x0801041a   0x00000002   PAD
    0x0801041c   0x0801041c   0x0000000c   Code   RO          635    i.DMA1_Channel3_IRQHandler  stm32l4xx_it.o
    0x08010428   0x08010428   0x0000000c   Code   RO          636    i.DMA2_Channel7_IRQHandler  stm32l4xx_it.o
    0x08010434   0x08010434   0x0000002e   Code   RO         2088    i.DMA_SetConfig     stm32l4xx_hal_dma.o
    0x08010462   0x08010462   0x00000002   Code   RO          637    i.DebugMon_Handler  stm32l4xx_it.o
    0x08010464   0x08010464   0x00000024   Code   RO         5958    i.EC600S_ATE0_EN    ec600s.o
    0x08010488   0x08010488   0x00000110   Code   RO         5959    i.EC600S_AT_SR      ec600s.o
    0x08010598   0x08010598   0x0000006c   Code   RO         5960    i.EC600S_Check_Net  ec600s.o
    0x08010604   0x08010604   0x00000112   Code   RO         5961    i.EC600S_Connect_MQTT  ec600s.o
    0x08010716   0x08010716   0x00000002   PAD
    0x08010718   0x08010718   0x00000084   Code   RO         5962    i.EC600S_GET_CSQ    ec600s.o
    0x0801079c   0x0801079c   0x00000064   Code   RO         5963    i.EC600S_GET_IMEI   ec600s.o
    0x08010800   0x08010800   0x000002c8   Code   RO         5964    i.EC600S_GET_Version  ec600s.o
    0x08010ac8   0x08010ac8   0x000002bc   Code   RO         5965    i.EC600S_Get_Bin    ec600s.o
    0x08010d84   0x08010d84   0x000000c4   Code   RO         5966    i.EC600S_Publish_MQTT  ec600s.o
    0x08010e48   0x08010e48   0x0000007c   Code   RO         5967    i.EC600S_Subscribe_MQTT  ec600s.o
    0x08010ec4   0x08010ec4   0x00000034   Code   RO         5968    i.EC600S_WAIT_CREG  ec600s.o
    0x08010ef8   0x08010ef8   0x00000048   Code   RO         5969    i.EC600S_Wait_Wakeup  ec600s.o
    0x08010f40   0x08010f40   0x00000030   Code   RO          504    i.EnableUsart_IT    usart.o
    0x08010f70   0x08010f70   0x000000b0   Code   RO         4575    i.Erase_page        wenzheng_ota.o
    0x08011020   0x08011020   0x00000002   Code   RO          238    i.Error_Handler     main.o
    0x08011022   0x08011022   0x00000002   PAD
    0x08011024   0x08011024   0x00000054   Code   RO         1923    i.FLASH_FlushCaches  stm32l4xx_hal_flash_ex.o
    0x08011078   0x08011078   0x0000001c   Code   RO         1924    i.FLASH_MassErase   stm32l4xx_hal_flash_ex.o
    0x08011094   0x08011094   0x00000028   Code   RO         1927    i.FLASH_PageErase   stm32l4xx_hal_flash_ex.o
    0x080110bc   0x080110bc   0x0000001c   Code   RO         1814    i.FLASH_Program_DoubleWord  stm32l4xx_hal_flash.o
    0x080110d8   0x080110d8   0x0000002c   Code   RO         1815    i.FLASH_Program_Fast  stm32l4xx_hal_flash.o
    0x08011104   0x08011104   0x00000064   Code   RO         1816    i.FLASH_WaitForLastOperation  stm32l4xx_hal_flash.o
    0x08011168   0x08011168   0x00000060   Code   RO         6056    i.Find_string       my_string.o
    0x080111c8   0x080111c8   0x00000068   Code   RO         4576    i.GetPage           wenzheng_ota.o
    0x08011230   0x08011230   0x0000004a   Code   RO         2089    i.HAL_DMA_Abort     stm32l4xx_hal_dma.o
    0x0801127a   0x0801127a   0x0000004e   Code   RO         2090    i.HAL_DMA_Abort_IT  stm32l4xx_hal_dma.o
    0x080112c8   0x080112c8   0x00000004   Code   RO         2092    i.HAL_DMA_GetError  stm32l4xx_hal_dma.o
    0x080112cc   0x080112cc   0x000000ba   Code   RO         2094    i.HAL_DMA_IRQHandler  stm32l4xx_hal_dma.o
    0x08011386   0x08011386   0x00000002   PAD
    0x08011388   0x08011388   0x000000c0   Code   RO         2095    i.HAL_DMA_Init      stm32l4xx_hal_dma.o
    0x08011448   0x08011448   0x00000070   Code   RO         2099    i.HAL_DMA_Start_IT  stm32l4xx_hal_dma.o
    0x080114b8   0x080114b8   0x00000024   Code   RO          792    i.HAL_Delay         stm32l4xx_hal.o
    0x080114dc   0x080114dc   0x000000e6   Code   RO         1928    i.HAL_FLASHEx_Erase  stm32l4xx_hal_flash_ex.o
    0x080115c2   0x080115c2   0x00000002   PAD
    0x080115c4   0x080115c4   0x00000014   Code   RO         1820    i.HAL_FLASH_Lock    stm32l4xx_hal_flash.o
    0x080115d8   0x080115d8   0x000000aa   Code   RO         1825    i.HAL_FLASH_Program  stm32l4xx_hal_flash.o
    0x08011682   0x08011682   0x00000002   PAD
    0x08011684   0x08011684   0x00000028   Code   RO         1827    i.HAL_FLASH_Unlock  stm32l4xx_hal_flash.o
    0x080116ac   0x080116ac   0x000001be   Code   RO         2025    i.HAL_GPIO_Init     stm32l4xx_hal_gpio.o
    0x0801186a   0x0801186a   0x00000010   Code   RO         2028    i.HAL_GPIO_TogglePin  stm32l4xx_hal_gpio.o
    0x0801187a   0x0801187a   0x0000000a   Code   RO         2029    i.HAL_GPIO_WritePin  stm32l4xx_hal_gpio.o
    0x08011884   0x08011884   0x0000000c   Code   RO          796    i.HAL_GetTick       stm32l4xx_hal.o
    0x08011890   0x08011890   0x00000056   Code   RO         1481    i.HAL_I2CEx_ConfigAnalogFilter  stm32l4xx_hal_i2c_ex.o
    0x080118e6   0x080118e6   0x00000052   Code   RO         1482    i.HAL_I2CEx_ConfigDigitalFilter  stm32l4xx_hal_i2c_ex.o
    0x08011938   0x08011938   0x000000b8   Code   RO         1030    i.HAL_I2C_Init      stm32l4xx_hal_i2c.o
    0x080119f0   0x080119f0   0x0000012a   Code   RO         1036    i.HAL_I2C_Master_Receive  stm32l4xx_hal_i2c.o
    0x08011b1a   0x08011b1a   0x00000002   PAD
    0x08011b1c   0x08011b1c   0x0000012a   Code   RO         1043    i.HAL_I2C_Master_Transmit  stm32l4xx_hal_i2c.o
    0x08011c46   0x08011c46   0x00000002   PAD
    0x08011c48   0x08011c48   0x00000064   Code   RO          433    i.HAL_I2C_MspInit   i2c.o
    0x08011cac   0x08011cac   0x0000005e   Code   RO         2714    i.HAL_IWDG_Init     stm32l4xx_hal_iwdg.o
    0x08011d0a   0x08011d0a   0x0000000c   Code   RO         2715    i.HAL_IWDG_Refresh  stm32l4xx_hal_iwdg.o
    0x08011d16   0x08011d16   0x00000002   PAD
    0x08011d18   0x08011d18   0x00000010   Code   RO          802    i.HAL_IncTick       stm32l4xx_hal.o
    0x08011d28   0x08011d28   0x0000001e   Code   RO          803    i.HAL_Init          stm32l4xx_hal.o
    0x08011d46   0x08011d46   0x00000002   PAD
    0x08011d48   0x08011d48   0x00000074   Code   RO          746    i.HAL_InitTick      stm32l4xx_hal_timebase_tim.o
    0x08011dbc   0x08011dbc   0x0000002c   Code   RO          722    i.HAL_MspInit       stm32l4xx_hal_msp.o
    0x08011de8   0x08011de8   0x0000001a   Code   RO         2512    i.HAL_NVIC_EnableIRQ  stm32l4xx_hal_cortex.o
    0x08011e02   0x08011e02   0x00000002   PAD
    0x08011e04   0x08011e04   0x00000040   Code   RO         2518    i.HAL_NVIC_SetPriority  stm32l4xx_hal_cortex.o
    0x08011e44   0x08011e44   0x00000024   Code   RO         2519    i.HAL_NVIC_SetPriorityGrouping  stm32l4xx_hal_cortex.o
    0x08011e68   0x08011e68   0x00000024   Code   RO         2520    i.HAL_NVIC_SystemReset  stm32l4xx_hal_cortex.o
    0x08011e8c   0x08011e8c   0x00000068   Code   RO         2316    i.HAL_PWREx_ControlVoltageScaling  stm32l4xx_hal_pwr_ex.o
    0x08011ef4   0x08011ef4   0x00000010   Code   RO         2339    i.HAL_PWREx_GetVoltageRange  stm32l4xx_hal_pwr_ex.o
    0x08011f04   0x08011f04   0x000002ba   Code   RO         1658    i.HAL_RCCEx_PeriphCLKConfig  stm32l4xx_hal_rcc_ex.o
    0x080121be   0x080121be   0x00000002   PAD
    0x080121c0   0x080121c0   0x00000120   Code   RO         1536    i.HAL_RCC_ClockConfig  stm32l4xx_hal_rcc.o
    0x080122e0   0x080122e0   0x00000040   Code   RO         1539    i.HAL_RCC_GetClockConfig  stm32l4xx_hal_rcc.o
    0x08012320   0x08012320   0x00000024   Code   RO         1542    i.HAL_RCC_GetPCLK1Freq  stm32l4xx_hal_rcc.o
    0x08012344   0x08012344   0x00000024   Code   RO         1543    i.HAL_RCC_GetPCLK2Freq  stm32l4xx_hal_rcc.o
    0x08012368   0x08012368   0x000000a4   Code   RO         1544    i.HAL_RCC_GetSysClockFreq  stm32l4xx_hal_rcc.o
    0x0801240c   0x0801240c   0x0000056c   Code   RO         1547    i.HAL_RCC_OscConfig  stm32l4xx_hal_rcc.o
    0x08012978   0x08012978   0x000000e0   Code   RO         3195    i.HAL_SPI_Init      stm32l4xx_hal_spi.o
    0x08012a58   0x08012a58   0x00000080   Code   RO          587    i.HAL_SPI_MspInit   spi.o
    0x08012ad8   0x08012ad8   0x0000018e   Code   RO         3203    i.HAL_SPI_Transmit  stm32l4xx_hal_spi.o
    0x08012c66   0x08012c66   0x00000002   Code   RO         4251    i.HAL_TIMEx_Break2Callback  stm32l4xx_hal_tim_ex.o
    0x08012c68   0x08012c68   0x00000002   Code   RO         4252    i.HAL_TIMEx_BreakCallback  stm32l4xx_hal_tim_ex.o
    0x08012c6a   0x08012c6a   0x00000002   Code   RO         4253    i.HAL_TIMEx_CommutCallback  stm32l4xx_hal_tim_ex.o
    0x08012c6c   0x08012c6c   0x00000062   Code   RO         3537    i.HAL_TIM_Base_Init  stm32l4xx_hal_tim.o
    0x08012cce   0x08012cce   0x00000002   Code   RO         3539    i.HAL_TIM_Base_MspInit  stm32l4xx_hal_tim.o
    0x08012cd0   0x08012cd0   0x00000058   Code   RO         3542    i.HAL_TIM_Base_Start_IT  stm32l4xx_hal_tim.o
    0x08012d28   0x08012d28   0x00000002   Code   RO         3571    i.HAL_TIM_IC_CaptureCallback  stm32l4xx_hal_tim.o
    0x08012d2a   0x08012d2a   0x00000184   Code   RO         3585    i.HAL_TIM_IRQHandler  stm32l4xx_hal_tim.o
    0x08012eae   0x08012eae   0x00000002   Code   RO         3588    i.HAL_TIM_OC_DelayElapsedCallback  stm32l4xx_hal_tim.o
    0x08012eb0   0x08012eb0   0x00000002   Code   RO         3615    i.HAL_TIM_PWM_PulseFinishedCallback  stm32l4xx_hal_tim.o
    0x08012eb2   0x08012eb2   0x00000002   PAD
    0x08012eb4   0x08012eb4   0x00000014   Code   RO          239    i.HAL_TIM_PeriodElapsedCallback  main.o
    0x08012ec8   0x08012ec8   0x00000002   Code   RO         3628    i.HAL_TIM_TriggerCallback  stm32l4xx_hal_tim.o
    0x08012eca   0x08012eca   0x00000002   Code   RO         3125    i.HAL_UARTEx_WakeupCallback  stm32l4xx_hal_uart_ex.o
    0x08012ecc   0x08012ecc   0x00000072   Code   RO         2764    i.HAL_UART_DMAStop  stm32l4xx_hal_uart.o
    0x08012f3e   0x08012f3e   0x00000002   Code   RO         2768    i.HAL_UART_ErrorCallback  stm32l4xx_hal_uart.o
    0x08012f40   0x08012f40   0x00000164   Code   RO         2771    i.HAL_UART_IRQHandler  stm32l4xx_hal_uart.o
    0x080130a4   0x080130a4   0x00000066   Code   RO         2772    i.HAL_UART_Init     stm32l4xx_hal_uart.o
    0x0801310a   0x0801310a   0x00000002   PAD
    0x0801310c   0x0801310c   0x000001b8   Code   RO          506    i.HAL_UART_MspInit  usart.o
    0x080132c4   0x080132c4   0x0000009c   Code   RO         2776    i.HAL_UART_Receive_DMA  stm32l4xx_hal_uart.o
    0x08013360   0x08013360   0x00000100   Code   RO          507    i.HAL_UART_RxCpltCallback  usart.o
    0x08013460   0x08013460   0x00000002   Code   RO         2780    i.HAL_UART_RxHalfCpltCallback  stm32l4xx_hal_uart.o
    0x08013462   0x08013462   0x00000002   PAD
    0x08013464   0x08013464   0x000000b6   Code   RO         2781    i.HAL_UART_Transmit  stm32l4xx_hal_uart.o
    0x0801351a   0x0801351a   0x00000002   Code   RO         2784    i.HAL_UART_TxCpltCallback  stm32l4xx_hal_uart.o
    0x0801351c   0x0801351c   0x00000002   Code   RO          638    i.HardFault_Handler  stm32l4xx_it.o
    0x0801351e   0x0801351e   0x00000022   Code   RO         1077    i.I2C_Flush_TXDR    stm32l4xx_hal_i2c.o
    0x08013540   0x08013540   0x00000084   Code   RO         1085    i.I2C_IsAcknowledgeFailed  stm32l4xx_hal_i2c.o
    0x080135c4   0x080135c4   0x0000002c   Code   RO         1092    i.I2C_TransferConfig  stm32l4xx_hal_i2c.o
    0x080135f0   0x080135f0   0x00000058   Code   RO         1094    i.I2C_WaitOnFlagUntilTimeout  stm32l4xx_hal_i2c.o
    0x08013648   0x08013648   0x00000084   Code   RO         1095    i.I2C_WaitOnRXNEFlagUntilTimeout  stm32l4xx_hal_i2c.o
    0x080136cc   0x080136cc   0x0000004c   Code   RO         1096    i.I2C_WaitOnSTOPFlagUntilTimeout  stm32l4xx_hal_i2c.o
    0x08013718   0x08013718   0x00000050   Code   RO         1097    i.I2C_WaitOnTXISFlagUntilTimeout  stm32l4xx_hal_i2c.o
    0x08013768   0x08013768   0x00000052   Code   RO         6113    i.LCD_Address_Set   lcd_spi2_drv.o
    0x080137ba   0x080137ba   0x00000002   PAD
    0x080137bc   0x080137bc   0x00000058   Code   RO         6114    i.LCD_Clear         lcd_spi2_drv.o
    0x08013814   0x08013814   0x00000010   Code   RO         6116    i.LCD_DisplayOn     lcd_spi2_drv.o
    0x08013824   0x08013824   0x0000010e   Code   RO         6117    i.LCD_Draw_ColorCircle  lcd_spi2_drv.o
    0x08013932   0x08013932   0x00000002   PAD
    0x08013934   0x08013934   0x00000108   Code   RO         6118    i.LCD_Draw_ColorLine  lcd_spi2_drv.o
    0x08013a3c   0x08013a3c   0x00000016   Code   RO         6119    i.LCD_Draw_ColorPoint  lcd_spi2_drv.o
    0x08013a52   0x08013a52   0x00000002   PAD
    0x08013a54   0x08013a54   0x00000080   Code   RO         6122    i.LCD_Fill          lcd_spi2_drv.o
    0x08013ad4   0x08013ad4   0x000000c0   Code   RO         6123    i.LCD_GPIO_Init     lcd_spi2_drv.o
    0x08013b94   0x08013b94   0x00000190   Code   RO         6124    i.LCD_Init          lcd_spi2_drv.o
    0x08013d24   0x08013d24   0x00000004   Code   RO         6126    i.LCD_SPI_Send      lcd_spi2_drv.o
    0x08013d28   0x08013d28   0x000000c6   Code   RO         6127    i.LCD_ShowChar      lcd_spi2_drv.o
    0x08013dee   0x08013dee   0x00000046   Code   RO         6128    i.LCD_ShowCharStr   lcd_spi2_drv.o
    0x08013e34   0x08013e34   0x00000028   Code   RO         6130    i.LCD_Write_2Byte   lcd_spi2_drv.o
    0x08013e5c   0x08013e5c   0x0000001c   Code   RO         6131    i.LCD_Write_Cmd     lcd_spi2_drv.o
    0x08013e78   0x08013e78   0x0000001c   Code   RO         6132    i.LCD_Write_Data    lcd_spi2_drv.o
    0x08013e94   0x08013e94   0x0000005c   Code   RO          639    i.LPUART1_IRQHandler  stm32l4xx_it.o
    0x08013ef0   0x08013ef0   0x0000004c   Code   RO          408    i.MX_DMA_Init       dma.o
    0x08013f3c   0x08013f3c   0x00000100   Code   RO          318    i.MX_FREERTOS_Init  freertos.o
    0x0801403c   0x0801403c   0x000000f0   Code   RO          294    i.MX_GPIO_Init      gpio.o
    0x0801412c   0x0801412c   0x00000058   Code   RO          434    i.MX_I2C1_Init      i2c.o
    0x08014184   0x08014184   0x00000034   Code   RO          474    i.MX_IWDG_Init      iwdg.o
    0x080141b8   0x080141b8   0x0000003c   Code   RO          508    i.MX_LPUART1_UART_Init  usart.o
    0x080141f4   0x080141f4   0x00000050   Code   RO          588    i.MX_SPI2_Init      spi.o
    0x08014244   0x08014244   0x0000003c   Code   RO          509    i.MX_USART1_UART_Init  usart.o
    0x08014280   0x08014280   0x0000003c   Code   RO          510    i.MX_USART2_UART_Init  usart.o
    0x080142bc   0x080142bc   0x0000003c   Code   RO          511    i.MX_USART3_UART_Init  usart.o
    0x080142f8   0x080142f8   0x00000002   Code   RO          640    i.MemManage_Handler  stm32l4xx_it.o
    0x080142fa   0x080142fa   0x00000002   Code   RO          641    i.NMI_Handler       stm32l4xx_it.o
    0x080142fc   0x080142fc   0x000002d6   Code   RO         4648    i.OTA_Task          ota_task.o
    0x080145d2   0x080145d2   0x00000002   PAD
    0x080145d4   0x080145d4   0x0000012c   Code   RO         1662    i.RCCEx_PLLSAI1_Config  stm32l4xx_hal_rcc_ex.o
    0x08014700   0x08014700   0x0000007c   Code   RO         1548    i.RCC_SetFlashLatencyFromMSIRange  stm32l4xx_hal_rcc.o
    0x0801477c   0x0801477c   0x0000007c   Code   RO         6311    i.SHT30_Dat_To_Float  e53_ia1.o
    0x080147f8   0x080147f8   0x00000008   Code   RO         6312    i.SHT30_Init        e53_ia1.o
    0x08014800   0x08014800   0x00000024   Code   RO         6313    i.SHT30_Read_Dat    e53_ia1.o
    0x08014824   0x08014824   0x00000014   Code   RO         6314    i.SHT30_Reset       e53_ia1.o
    0x08014838   0x08014838   0x00000024   Code   RO         6315    i.SHT30_Send_Cmd    e53_ia1.o
    0x0801485c   0x0801485c   0x00000014   Code   RO          589    i.SPI2_WriteByte    spi.o
    0x08014870   0x08014870   0x00000048   Code   RO         3233    i.SPI_EndRxTxTransaction  stm32l4xx_hal_spi.o
    0x080148b8   0x080148b8   0x000000ce   Code   RO         3238    i.SPI_WaitFifoStateUntilTimeout  stm32l4xx_hal_spi.o
    0x08014986   0x08014986   0x00000002   PAD
    0x08014988   0x08014988   0x000000b8   Code   RO         3239    i.SPI_WaitFlagStateUntilTimeout  stm32l4xx_hal_spi.o
    0x08014a40   0x08014a40   0x00000140   Code   RO           13    i.Sensor_Task       sensor_work.o
    0x08014b80   0x08014b80   0x00000018   Code   RO         4581    i.Set_Update_Down   wenzheng_ota.o
    0x08014b98   0x08014b98   0x0000002c   Code   RO          319    i.StartDefaultTask  freertos.o
    0x08014bc4   0x08014bc4   0x00000218   Code   RO          320    i.Start_EC600S_Task  freertos.o
    0x08014ddc   0x08014ddc   0x00000050   Code   RO          321    i.Start_OTA_Task    freertos.o
    0x08014e2c   0x08014e2c   0x00000044   Code   RO          322    i.Start_Sensor_Task  freertos.o
    0x08014e70   0x08014e70   0x0000001c   Code   RO          323    i.Start_UI_Task     freertos.o
    0x08014e8c   0x08014e8c   0x0000002c   Code   RO         5879    i.SysTick_Handler   port.o
    0x08014eb8   0x08014eb8   0x00000080   Code   RO          240    i.SystemClock_Config  main.o
    0x08014f38   0x08014f38   0x00000044   Code   RO         4537    i.SystemInit        system_stm32l4xx.o
    0x08014f7c   0x08014f7c   0x0000000c   Code   RO          642    i.TIM1_UP_TIM16_IRQHandler  stm32l4xx_it.o
    0x08014f88   0x08014f88   0x0000006c   Code   RO         3630    i.TIM_Base_SetConfig  stm32l4xx_hal_tim.o
    0x08014ff4   0x08014ff4   0x000000c8   Code   RO         2786    i.UART_AdvFeatureConfig  stm32l4xx_hal_uart.o
    0x080150bc   0x080150bc   0x00000058   Code   RO         2787    i.UART_CheckIdleState  stm32l4xx_hal_uart.o
    0x08015114   0x08015114   0x00000014   Code   RO         2788    i.UART_DMAAbortOnError  stm32l4xx_hal_uart.o
    0x08015128   0x08015128   0x00000048   Code   RO         2789    i.UART_DMAError     stm32l4xx_hal_uart.o
    0x08015170   0x08015170   0x0000003c   Code   RO         2790    i.UART_DMAReceiveCplt  stm32l4xx_hal_uart.o
    0x080151ac   0x080151ac   0x0000000a   Code   RO         2792    i.UART_DMARxHalfCplt  stm32l4xx_hal_uart.o
    0x080151b6   0x080151b6   0x0000001e   Code   RO         2798    i.UART_EndRxTransfer  stm32l4xx_hal_uart.o
    0x080151d4   0x080151d4   0x00000010   Code   RO         2799    i.UART_EndTxTransfer  stm32l4xx_hal_uart.o
    0x080151e4   0x080151e4   0x00000204   Code   RO         2802    i.UART_SetConfig    stm32l4xx_hal_uart.o
    0x080153e8   0x080153e8   0x000000a4   Code   RO         2805    i.UART_WaitOnFlagUntilTimeout  stm32l4xx_hal_uart.o
    0x0801548c   0x0801548c   0x0000000c   Code   RO          643    i.USART1_IRQHandler  stm32l4xx_it.o
    0x08015498   0x08015498   0x00000002   Code   RO          644    i.UsageFault_Handler  stm32l4xx_it.o
    0x0801549a   0x0801549a   0x0000002e   Code   RO         4583    i.WriteFlash        wenzheng_ota.o
    0x080154c8   0x080154c8   0x00000020   Code   RO         7419    i.__0printf         mc_w.l(printfa.o)
    0x080154e8   0x080154e8   0x00000030   Code   RO         7420    i.__0snprintf       mc_w.l(printfa.o)
    0x08015518   0x08015518   0x00000028   Code   RO         7421    i.__0sprintf        mc_w.l(printfa.o)
    0x08015540   0x08015540   0x00000020   Code   RO         2525    i.__NVIC_SetPriority  stm32l4xx_hal_cortex.o
    0x08015560   0x08015560   0x00000008   Code   RO         7524    i.__aeabi_errno_addr  mc_w.l(errno.o)
    0x08015568   0x08015568   0x0000005c   Code   RO         7451    i.__free$realloc    mc_w.l(mallocr.o)
    0x080155c4   0x080155c4   0x00000004   PAD
    0x080155c8   0x080155c8   0x00000028   Code   RO         7145    i.__hardfp_strtod   m_wm.l(strtod.o)
    0x080155f0   0x080155f0   0x00000050   Code   RO         7452    i.__malloc$realloc  mc_w.l(mallocr.o)
    0x08015640   0x08015640   0x0000000e   Code   RO         7597    i.__scatterload_copy  mc_w.l(handlers.o)
    0x0801564e   0x0801564e   0x00000002   Code   RO         7598    i.__scatterload_null  mc_w.l(handlers.o)
    0x08015650   0x08015650   0x0000000e   Code   RO         7599    i.__scatterload_zeroinit  mc_w.l(handlers.o)
    0x0801565e   0x0801565e   0x00000002   PAD
    0x08015660   0x08015660   0x0000018a   Code   RO         7426    i._fp_digits        mc_w.l(printfa.o)
    0x080157ea   0x080157ea   0x0000000e   Code   RO         7479    i._is_digit         mc_w.l(scanf_fp.o)
    0x080157f8   0x080157f8   0x000006e2   Code   RO         7427    i._printf_core      mc_w.l(printfa.o)
    0x08015eda   0x08015eda   0x00000024   Code   RO         7428    i._printf_post_padding  mc_w.l(printfa.o)
    0x08015efe   0x08015efe   0x0000002e   Code   RO         7429    i._printf_pre_padding  mc_w.l(printfa.o)
    0x08015f2c   0x08015f2c   0x00000016   Code   RO         7430    i._snputc           mc_w.l(printfa.o)
    0x08015f42   0x08015f42   0x0000000a   Code   RO         7431    i._sputc            mc_w.l(printfa.o)
    0x08015f4c   0x08015f4c   0x00000022   Code   RO         6381    i.add_item_to_array  cjson.o
    0x08015f6e   0x08015f6e   0x00000056   Code   RO         6382    i.add_item_to_object  cjson.o
    0x08015fc4   0x08015fc4   0x0000002c   Code   RO         6383    i.buffer_skip_whitespace  cjson.o
    0x08015ff0   0x08015ff0   0x00000030   Code   RO         6393    i.cJSON_AddNumberToObject  cjson.o
    0x08016020   0x08016020   0x00000078   Code   RO         6407    i.cJSON_CreateNumber  cjson.o
    0x08016098   0x08016098   0x00000018   Code   RO         6408    i.cJSON_CreateObject  cjson.o
    0x080160b0   0x080160b0   0x00000048   Code   RO         6415    i.cJSON_Delete      cjson.o
    0x080160f8   0x080160f8   0x0000000c   Code   RO         6424    i.cJSON_GetArrayItem  cjson.o
    0x08016104   0x08016104   0x00000010   Code   RO         6426    i.cJSON_GetErrorPtr  cjson.o
    0x08016114   0x08016114   0x00000006   Code   RO         6427    i.cJSON_GetObjectItem  cjson.o
    0x0801611a   0x0801611a   0x00000016   Code   RO         6444    i.cJSON_New_Item    cjson.o
    0x08016130   0x08016130   0x00000008   Code   RO         6445    i.cJSON_Parse       cjson.o
    0x08016138   0x08016138   0x000000e4   Code   RO         6446    i.cJSON_ParseWithOpts  cjson.o
    0x0801621c   0x0801621c   0x0000000c   Code   RO         6447    i.cJSON_Print       cjson.o
    0x08016228   0x08016228   0x00000028   Code   RO         6459    i.cJSON_strdup      cjson.o
    0x08016250   0x08016250   0x00000284   Code   RO         6267    i.display_base      main_ui.o
    0x080164d4   0x080164d4   0x0000008a   Code   RO         6461    i.ensure            cjson.o
    0x0801655e   0x0801655e   0x00000002   PAD
    0x08016560   0x08016560   0x00000018   Code   RO          512    i.fputc             usart.o
    0x08016578   0x08016578   0x00000016   Code   RO         6462    i.get_array_item    cjson.o
    0x0801658e   0x0801658e   0x00000070   Code   RO         6463    i.get_object_item   cjson.o
    0x080165fe   0x080165fe   0x00000002   PAD
    0x08016600   0x08016600   0x00000050   Code   RO         7453    i.internal_alloc    mc_w.l(mallocr.o)
    0x08016650   0x08016650   0x000000f4   Code   RO          241    i.main              main.o
    0x08016744   0x08016744   0x0000000c   Code   RO         5450    i.makeFreeRtosPriority  cmsis_os.o
    0x08016750   0x08016750   0x0000000e   Code   RO         5452    i.osDelay           cmsis_os.o
    0x0801675e   0x0801675e   0x0000000a   Code   RO         5455    i.osKernelStart     cmsis_os.o
    0x08016768   0x08016768   0x00000026   Code   RO         5464    i.osMessageCreate   cmsis_os.o
    0x0801678e   0x0801678e   0x0000003e   Code   RO         5481    i.osSemaphoreCreate  cmsis_os.o
    0x080167cc   0x080167cc   0x00000054   Code   RO         5489    i.osThreadCreate    cmsis_os.o
    0x08016820   0x08016820   0x000000cc   Code   RO         6464    i.parse_array       cjson.o
    0x080168ec   0x080168ec   0x00000040   Code   RO         6465    i.parse_hex4        cjson.o
    0x0801692c   0x0801692c   0x00000100   Code   RO         6466    i.parse_number      cjson.o
    0x08016a2c   0x08016a2c   0x00000106   Code   RO         6467    i.parse_object      cjson.o
    0x08016b32   0x08016b32   0x0000010c   Code   RO         6468    i.parse_string      cjson.o
    0x08016c3e   0x08016c3e   0x00000002   PAD
    0x08016c40   0x08016c40   0x000000fc   Code   RO         6469    i.parse_value       cjson.o
    0x08016d3c   0x08016d3c   0x00000098   Code   RO         6470    i.print             cjson.o
    0x08016dd4   0x08016dd4   0x00000096   Code   RO         6471    i.print_array       cjson.o
    0x08016e6a   0x08016e6a   0x00000002   PAD
    0x08016e6c   0x08016e6c   0x000000a8   Code   RO         6472    i.print_number      cjson.o
    0x08016f14   0x08016f14   0x00000136   Code   RO         6473    i.print_object      cjson.o
    0x0801704a   0x0801704a   0x00000002   PAD
    0x0801704c   0x0801704c   0x00000110   Code   RO         6474    i.print_string_ptr  cjson.o
    0x0801715c   0x0801715c   0x000000d0   Code   RO         6475    i.print_value       cjson.o
    0x0801722c   0x0801722c   0x00000070   Code   RO         5138    i.prvAddCurrentTaskToDelayedList  tasks.o
    0x0801729c   0x0801729c   0x000000d0   Code   RO         5139    i.prvAddNewTaskToReadyList  tasks.o
    0x0801736c   0x0801736c   0x00000026   Code   RO         4814    i.prvCopyDataFromQueue  queue.o
    0x08017392   0x08017392   0x0000006c   Code   RO         4815    i.prvCopyDataToQueue  queue.o
    0x080173fe   0x080173fe   0x00000034   Code   RO         5140    i.prvDeleteTCB      tasks.o
    0x08017432   0x08017432   0x00000002   PAD
    0x08017434   0x08017434   0x00000048   Code   RO         5817    i.prvHeapInit       heap_4.o
    0x0801747c   0x0801747c   0x00000060   Code   RO         5141    i.prvIdleTask       tasks.o
    0x080174dc   0x080174dc   0x00000016   Code   RO         4817    i.prvInitialiseNewQueue  queue.o
    0x080174f2   0x080174f2   0x00000002   PAD
    0x080174f4   0x080174f4   0x000000b6   Code   RO         5142    i.prvInitialiseNewTask  tasks.o
    0x080175aa   0x080175aa   0x00000002   PAD
    0x080175ac   0x080175ac   0x0000004c   Code   RO         5818    i.prvInsertBlockIntoFreeList  heap_4.o
    0x080175f8   0x080175f8   0x0000001c   Code   RO         4818    i.prvIsQueueEmpty   queue.o
    0x08017614   0x08017614   0x00000020   Code   RO         5143    i.prvResetNextTaskUnblockTime  tasks.o
    0x08017634   0x08017634   0x00000028   Code   RO         5880    i.prvTaskExitError  port.o
    0x0801765c   0x0801765c   0x00000034   Code   RO         5144    i.prvTaskIsTaskSuspended  tasks.o
    0x08017690   0x08017690   0x0000006a   Code   RO         4819    i.prvUnlockQueue    queue.o
    0x080176fa   0x080176fa   0x00000002   PAD
    0x080176fc   0x080176fc   0x000000d8   Code   RO         5819    i.pvPortMalloc      heap_4.o
    0x080177d4   0x080177d4   0x00000018   Code   RO         5145    i.pvTaskIncrementMutexHeldCount  tasks.o
    0x080177ec   0x080177ec   0x0000002c   Code   RO         5881    i.pxPortInitialiseStack  port.o
    0x08017818   0x08017818   0x0000006c   Code   RO         7454    i.realloc           mc_w.l(mallocr.o)
    0x08017884   0x08017884   0x0000001c   Code   RO         6477    i.update_offset     cjson.o
    0x080178a0   0x080178a0   0x00000180   Code   RO         6268    i.update_ui         main_ui.o
    0x08017a20   0x08017a20   0x000000d2   Code   RO         6478    i.utf16_literal_to_utf8  cjson.o
    0x08017af2   0x08017af2   0x00000026   Code   RO         4774    i.uxListRemove      list.o
    0x08017b18   0x08017b18   0x00000014   Code   RO          324    i.vApplicationGetIdleTaskMemory  freertos.o
    0x08017b2c   0x08017b2c   0x00000016   Code   RO         4775    i.vListInitialise   list.o
    0x08017b42   0x08017b42   0x00000006   Code   RO         4776    i.vListInitialiseItem  list.o
    0x08017b48   0x08017b48   0x00000030   Code   RO         4777    i.vListInsert       list.o
    0x08017b78   0x08017b78   0x00000018   Code   RO         4778    i.vListInsertEnd    list.o
    0x08017b90   0x08017b90   0x00000040   Code   RO         5883    i.vPortEnterCritical  port.o
    0x08017bd0   0x08017bd0   0x00000028   Code   RO         5884    i.vPortExitCritical  port.o
    0x08017bf8   0x08017bf8   0x0000005c   Code   RO         5820    i.vPortFree         heap_4.o
    0x08017c54   0x08017c54   0x00000024   Code   RO         5885    i.vPortSetupTimerInterrupt  port.o
    0x08017c78   0x08017c78   0x00000054   Code   RO         5886    i.vPortValidateInterruptPriority  port.o
    0x08017ccc   0x08017ccc   0x0000004c   Code   RO         5152    i.vTaskDelay        tasks.o
    0x08017d18   0x08017d18   0x00000010   Code   RO         5155    i.vTaskInternalSetTimeOutState  tasks.o
    0x08017d28   0x08017d28   0x0000000c   Code   RO         5156    i.vTaskMissedYield  tasks.o
    0x08017d34   0x08017d34   0x00000030   Code   RO         5158    i.vTaskPlaceOnEventList  tasks.o
    0x08017d64   0x08017d64   0x000000a8   Code   RO         5160    i.vTaskPriorityDisinheritAfterTimeout  tasks.o
    0x08017e0c   0x08017e0c   0x0000007c   Code   RO         5163    i.vTaskResume       tasks.o
    0x08017e88   0x08017e88   0x0000006c   Code   RO         5165    i.vTaskStartScheduler  tasks.o
    0x08017ef4   0x08017ef4   0x000000bc   Code   RO         5166    i.vTaskSuspend      tasks.o
    0x08017fb0   0x08017fb0   0x00000010   Code   RO         5167    i.vTaskSuspendAll   tasks.o
    0x08017fc0   0x08017fc0   0x0000005c   Code   RO         5168    i.vTaskSwitchContext  tasks.o
    0x0801801c   0x0801801c   0x000000f4   Code   RO         5887    i.xPortStartScheduler  port.o
    0x08018110   0x08018110   0x00000048   Code   RO         4828    i.xQueueGenericCreate  queue.o
    0x08018158   0x08018158   0x00000066   Code   RO         4829    i.xQueueGenericCreateStatic  queue.o
    0x080181be   0x080181be   0x00000002   PAD
    0x080181c0   0x080181c0   0x00000088   Code   RO         4830    i.xQueueGenericReset  queue.o
    0x08018248   0x08018248   0x00000160   Code   RO         4831    i.xQueueGenericSend  queue.o
    0x080183a8   0x080183a8   0x000000bc   Code   RO         4832    i.xQueueGenericSendFromISR  queue.o
    0x08018464   0x08018464   0x00000138   Code   RO         4838    i.xQueueReceive     queue.o
    0x0801859c   0x0801859c   0x00000178   Code   RO         4840    i.xQueueSemaphoreTake  queue.o
    0x08018714   0x08018714   0x00000074   Code   RO         5169    i.xTaskCheckForTimeOut  tasks.o
    0x08018788   0x08018788   0x00000060   Code   RO         5170    i.xTaskCreate       tasks.o
    0x080187e8   0x080187e8   0x00000056   Code   RO         5171    i.xTaskCreateStatic  tasks.o
    0x0801883e   0x0801883e   0x00000002   PAD
    0x08018840   0x08018840   0x0000001c   Code   RO         5175    i.xTaskGetSchedulerState  tasks.o
    0x0801885c   0x0801885c   0x000000c8   Code   RO         5178    i.xTaskIncrementTick  tasks.o
    0x08018924   0x08018924   0x00000098   Code   RO         5181    i.xTaskPriorityDisinherit  tasks.o
    0x080189bc   0x080189bc   0x00000094   Code   RO         5182    i.xTaskPriorityInherit  tasks.o
    0x08018a50   0x08018a50   0x00000074   Code   RO         5183    i.xTaskRemoveFromEventList  tasks.o
    0x08018ac4   0x08018ac4   0x000000c4   Code   RO         5184    i.xTaskResumeAll    tasks.o
    0x08018b88   0x08018b88   0x000000bc   Data   RO          326    .constdata          freertos.o
    0x08018c44   0x08018c44   0x00000040   Data   RO         4538    .constdata          system_stm32l4xx.o
    0x08018c84   0x08018c84   0x00000008   Data   RO         4539    .constdata          system_stm32l4xx.o
    0x08018c8c   0x08018c8c   0x00001644   Data   RO         6134    .constdata          lcd_spi2_drv.o
    0x0801a2d0   0x0801a2d0   0x00000081   Data   RO         7557    .constdata          mc_w.l(ctype_o.o)
    0x0801a351   0x0801a351   0x00000003   PAD
    0x0801a354   0x0801a354   0x00000004   Data   RO         7558    .constdata          mc_w.l(ctype_o.o)
    0x0801a358   0x0801a358   0x00000038   Data   RO          327    .conststring        freertos.o
    0x0801a390   0x0801a390   0x00000020   Data   RO         7595    Region$$Table       anon$$obj.o


    Execution Region RW_IRAM1 (Exec base: 0x20000000, Load base: 0x0801a3b0, Size: 0x0000bee0, Max: 0x00010000, ABSOLUTE)

    Exec Addr    Load Addr    Size         Type   Attr      Idx    E Section Name        Object

    0x20000000   0x0801a3b0   0x0000000e   Data   RW           15    .data               sensor_work.o
    0x2000000e   0x0801a3be   0x00000002   PAD
    0x20000010   0x0801a3c0   0x00000024   Data   RW          328    .data               freertos.o
    0x20000034   0x0801a3e4   0x0000000c   Data   RW          820    .data               stm32l4xx_hal.o
    0x20000040   0x0801a3f0   0x00000020   Data   RW         1828    .data               stm32l4xx_hal_flash.o
    0x20000060   0x0801a410   0x00000004   Data   RW         4540    .data               system_stm32l4xx.o
    0x20000064   0x0801a414   0x0000003c   Data   RW         5187    .data               tasks.o
    0x200000a0   0x0801a450   0x00000018   Data   RW         5825    .data               heap_4.o
    0x200000b8   0x0801a468   0x0000000c   Data   RW         5888    .data               port.o
    0x200000c4   0x0801a474   0x00000002   Data   RW         6316    .data               e53_ia1.o
    0x200000c6   0x0801a476   0x00000002   PAD
    0x200000c8   0x0801a478   0x00000014   Data   RW         6480    .data               cjson.o
    0x200000dc   0x0801a48c   0x00000004   Data   RW         7515    .data               mc_w.l(stdout.o)
    0x200000e0   0x0801a490   0x00000004   Data   RW         7522    .data               mc_w.l(mvars.o)
    0x200000e4   0x0801a494   0x00000004   Data   RW         7523    .data               mc_w.l(mvars.o)
    0x200000e8   0x0801a498   0x00000004   Data   RW         7527    .data               mc_w.l(errno.o)
    0x200000ec        -       0x0000000c   Zero   RW           14    .bss                sensor_work.o
    0x200000f8        -       0x00000254   Zero   RW          325    .bss                freertos.o
    0x2000034c        -       0x0000004c   Zero   RW          435    .bss                i2c.o
    0x20000398        -       0x00000010   Zero   RW          475    .bss                iwdg.o
    0x200003a8        -       0x00000744   Zero   RW          513    .bss                usart.o
    0x20000aec        -       0x00000064   Zero   RW          590    .bss                spi.o
    0x20000b50        -       0x0000004c   Zero   RW          749    .bss                stm32l4xx_hal_timebase_tim.o
    0x20000b9c        -       0x000000f0   Zero   RW         5186    .bss                tasks.o
    0x20000c8c        -       0x00009c40   Zero   RW         5824    .bss                heap_4.o
    0x2000a8cc        -       0x00000592   Zero   RW         5970    .bss                ec600s.o
    0x2000ae5e        -       0x00000480   Zero   RW         6133    .bss                lcd_spi2_drv.o
    0x2000b2de   0x0801a49c   0x00000002   PAD
    0x2000b2e0        -       0x00000400   Zero   RW            2    HEAP                startup_stm32l431xx.o
    0x2000b6e0        -       0x00000800   Zero   RW            1    STACK               startup_stm32l431xx.o


==============================================================================

Image component sizes


      Code (inc. data)   RO Data    RW Data    ZI Data      Debug   Object Name

      3848        172          0         20          0      32329   cjson.o
       220          0          0          0          0      24847   cmsis_os.o
        76          4          0          0          0        862   dma.o
       380         44          0          2          0       7119   e53_ia1.o
      2778       1462          0          0       1426      10655   ec600s.o
         0          0          0          0          0      18888   event_groups.o
      1032        380        244         36        596      10715   freertos.o
       240         14          0          0          0       1051   gpio.o
       456         22          0         24      40000       7471   heap_4.o
       188         24          0          0         76       1785   i2c.o
        52         10          0          0         16        767   iwdg.o
      1830         72       5700          0       1152      13786   lcd_spi2_drv.o
       138          0          0          0          0       3670   list.o
       394        142          0          0          0       2824   main.o
      1028        136          0          0          0       1651   main_ui.o
        96         24          0          0          0        834   my_string.o
       726        382          0          0          0       1107   ota_task.o
       818         82          0         12          0      12189   port.o
      1840         18          0          0          0      18648   queue.o
       320         98          0         14         12     748287   sensor_work.o
       228         32          0          0        100       2382   spi.o
        36          8        396          0       3072        856   startup_stm32l431xx.o
        94         14          0         12          0      12098   stm32l4xx_hal.o
       194         24          0          0          0      33785   stm32l4xx_hal_cortex.o
       692         14          0          0          0       5925   stm32l4xx_hal_dma.o
       402         52          0         32          0      22838   stm32l4xx_hal_flash.o
       382         26          0          0          0       4034   stm32l4xx_hal_flash_ex.o
       472         28          0          0          0       3193   stm32l4xx_hal_gpio.o
      1366         38          0          0          0      10890   stm32l4xx_hal_i2c.o
       168          0          0          0          0       1971   stm32l4xx_hal_i2c_ex.o
       106          0          0          0          0       1827   stm32l4xx_hal_iwdg.o
        44          6          0          0          0        894   stm32l4xx_hal_msp.o
       120         20          0          0          0       1410   stm32l4xx_hal_pwr_ex.o
      2100        108          0          0          0       7817   stm32l4xx_hal_rcc.o
       998         32          0          0          0       2992   stm32l4xx_hal_rcc_ex.o
      1084          8          0          0          0       5918   stm32l4xx_hal_spi.o
       692         26          0          0          0       7568   stm32l4xx_hal_tim.o
         6          0          0          0          0       2248   stm32l4xx_hal_tim_ex.o
       116         18          0          0         76       1483   stm32l4xx_hal_timebase_tim.o
      2092         74          0          0          0      15062   stm32l4xx_hal_uart.o
         2          0          0          0          0       1044   stm32l4xx_hal_uart_ex.o
       152         38          0          0          0       5527   stm32l4xx_it.o
         0          0          0          0          0        392   stream_buffer.o
        68         12         72          4          0       1297   system_stm32l4xx.o
      2744        202          0         60        240      31040   tasks.o
      1008        236          0          0       1860      11213   usart.o
       350        122          0          0          0       3300   wenzheng_ota.o

    ----------------------------------------------------------------------
     32240       4224       6444        220      48628    1118489   Object Totals
         0          0         32          0          0          0   (incl. Generated)
        64          0          0          4          2          0   (incl. Padding)

    ----------------------------------------------------------------------

      Code (inc. data)   RO Data    RW Data    ZI Data      Debug   Library Member Name

        40         10          0          0          0        128   strtod.o
        56          8          0          0          0         84   __0sscanf.o
        28          0          0          0          0         68   _chval.o
       818          4          0          0          0        112   _scanf.o
        64          0          0          0          0         84   _sgetc.o
       164          0          0          0          0         92   _strtoul.o
        26          0          0          0          0         80   atoi.o
         8          4        133          0          0         68   ctype_o.o
         0          0          0          0          0          0   entry.o
         0          0          0          0          0          0   entry10a.o
         0          0          0          0          0          0   entry11a.o
         8          4          0          0          0          0   entry2.o
         4          0          0          0          0          0   entry5.o
         0          0          0          0          0          0   entry7b.o
         0          0          0          0          0          0   entry8b.o
         8          4          0          0          0          0   entry9a.o
         8          4          0          4          0         68   errno.o
        30          0          0          0          0          0   handlers.o
        36          8          0          0          0         68   init.o
        18          0          0          0          0         76   isspace_o.o
         0          0          0          0          0          0   iusefp.o
        30          0          0          0          0         68   llshl.o
        36          0          0          0          0         68   llsshr.o
        32          0          0          0          0         68   llushr.o
       360         30          0          0          0        356   mallocr.o
        36          0          0          0          0         68   memcpya.o
        36          0          0          0          0        108   memseta.o
         0          0          0          8          0          0   mvars.o
      2390        100          0          0          0        756   printfa.o
        40          8          0          0          0         84   scanf_char.o
       884         12          0          0          0        216   scanf_fp.o
         0          0          0          4          0          0   stdout.o
        28          0          0          0          0         76   strcmp.o
        18          0          0          0          0         68   strcpy.o
        14          0          0          0          0         68   strlen.o
        30          0          0          0          0         80   strncmp.o
        36          0          0          0          0         80   strstr.o
       156         12          0          0          0        120   strtod.o
       112          0          0          0          0         88   strtol.o
        12          0          0          0          0         68   tolower.o
        44          0          0          0          0         80   uidiv.o
       104          0          0          0          0         92   uldiv.o
        48          0          0          0          0         68   cdcmple.o
        48          0          0          0          0         68   cdrcmple.o
        56          0          0          0          0         88   d2f.o
       350          0          0          0          0        148   dadd.o
       222          0          0          0          0        100   ddiv.o
       186          0          0          0          0        176   depilogue.o
        62          0          0          0          0         80   dfixi.o
        48          0          0          0          0         68   dfixul.o
        26          0          0          0          0         76   dfltui.o
        24          0          0          0          0         76   dfltul.o
       234          0          0          0          0         96   dmul.o
        38          0          0          0          0         68   f2d.o
       110          0          0          0          0        168   fepilogue.o

    ----------------------------------------------------------------------
      7180        212        136         16          0       4820   Library Totals
        14          4          3          0          0          0   (incl. Padding)

    ----------------------------------------------------------------------

      Code (inc. data)   RO Data    RW Data    ZI Data      Debug   Library Name

        40         10          0          0          0        128   m_wm.l
      5674        198        133         16          0       3412   mc_w.l
      1452          0          0          0          0       1280   mf_w.l

    ----------------------------------------------------------------------
      7180        212        136         16          0       4820   Library Totals

    ----------------------------------------------------------------------

==============================================================================


      Code (inc. data)   RO Data    RW Data    ZI Data      Debug   

     39420       4436       6580        236      48628    1094613   Grand Totals
     39420       4436       6580        236      48628    1094613   ELF Image Totals
     39420       4436       6580        236          0          0   ROM Totals

==============================================================================

    Total RO  Size (Code + RO Data)                46000 (  44.92kB)
    Total RW  Size (RW Data + ZI Data)             48864 (  47.72kB)
    Total ROM Size (Code + RO Data + RW Data)      46236 (  45.15kB)

==============================================================================

