:020000040800F2
:10000000680E0020A901000845280008F71C000818
:1000100049260008BD0200089935000800000000CC
:10002000000000000000000000000000312E000869
:10003000BF02000800000000472800081531000832
:10004000C3010008C3010008C3010008C301000880
:10005000C3010008C3010008C3010008C301000870
:10006000C3010008C3010008C3010008C301000860
:10007000C3010008C3010008C3010008C301000850
:10008000C3010008C3010008C3010008C301000840
:10009000C3010008C3010008C3010008C301000830
:1000A000C3010008C3010008C3010008C301000820
:1000B000C30100080000000000000000C3010008A8
:1000C000C3010008C3010008C3010008C301000800
:1000D000C3010008C3010008C3010008C3010008F0
:1000E000C3010008C3010008000000000000000078
:1000F0000000000000000000000000000000000000
:1001000000000000C301000800000000C301000857
:100110000000000000000000C3010008C301000847
:10012000C3010008C3010008C3010008C30100089F
:10013000C3010008000000000000000000000000F3
:10014000C3010008C3010008C3010008000000004B
:10015000C3010008C3010008C3010008C30100086F
:10016000C3010008C3010008C3010008000000002B
:10017000C3010008C30100080000000000000000E7
:10018000C3010008C3010008C3010008DFF80CD058
:1001900000F082F800480047CD3B0008680E0020C0
:1001A00080F30888704700000648804706480047EB
:1001B000FEE7FEE7FEE7FEE7FEE7FEE7FEE7FEE717
:1001C000FEE7FEE78D3100088D0100082DE9F05FA4
:1001D0000546002092469B468846064681464024B6
:1001E0001BE0284641464746224600F044F8534665
:1001F0005A46C01A914110D311461846224600F0C3
:100200002BF82D1A67EB01084F46224601200021EA
:1002100000F022F817EB00094E41201EA4F1010462
:10022000DFDC484631462A46434600F000B830BC81
:10023000BDE8C09FD2B201E000F8012B491EFBD2FD
:1002400070470022F6E710B513460A4604461946E1
:10025000FFF7F0FF204610BD202A04DB203A00FA09
:1002600002F1002070479140C2F1200320FA03F30D
:10027000194390407047202A04DB203A21FA02F00B
:100280000021704721FA02F3D040C2F120029140D0
:100290000843194670470000064C074D06E0E06829
:1002A00040F0010394E8070098471034AC42F6D3BD
:1002B000FFF770FFECD300080CD40008FEE770478E
:1002C0001FB510A40DF1040C1CCC8CE81C000129F6
:1002D0000ED000290BD1084600F01AF800209DF836
:1002E0000D200090BC23B6210C2001F07DFE1FBD27
:1002F0000A2190FBF1F001A90A5C4FF4FC60009028
:10030000F0E7000014285064788CA0B4C8E4000022
:1003100038B50024012810D000280DD10094BE2348
:10032000E622B4210A2001F03CFEBC23E422B621DF
:100330000C20009401F058FE38BD1F200090EEE71D
:1003400070B586B000250C460646049572B6124874
:100350001249086100F00AFA0120CDE90050304648
:1003600000F0EAF8CDE90204014622460CA003F0B1
:10037000BDF904A9684600F025F910B110A003F0FA
:10038000B5F91648416816A003F0B0F900F08EF9EF
:1003900062B6012006B070BDF98001000020024065
:1003A000CAB6B1F0B5C4B3F5CABCD2B3CAFDA3BADC
:1003B00025642020C9BEB3FD256420D2B30D0A00F8
:1003C00048414C5F464C41534845785F45726173E4
:1003D0006520204552524F520D0A00000C000020AB
:1003E000657272636F6465203D2025780A00000005
:1003F00070470000124A117F1248012901D00329D9
:100400000BD1036843F400630360036823F40063C3
:100410000360036843F400730360022901D00329D9
:100420000BD1016841F480510160016821F48051D1
:100430000160016841F4806101600020107770471D
:100440000C00002000200240C107054803D041698C
:1004500041F004014161416941F4803141617047DB
:100460000020024008494A69C0B222F47E7242EA82
:10047000C0004861486940F002004861486940F4A2
:10048000803048617047000000200240054910B5E7
:100490004C6944F001044C610260BFF36F8F43600C
:1004A00010BD000000200240094A10B554694023E5
:1004B00044F480245461EFF3108272B610C910C066
:1004C0005B1E13F0FF03F9D182F3108810BD00000A
:1004D0000020024070B5054600F040FA0646134C75
:1004E00008E0681C06D000F039FA801BA84201D34E
:1004F000032070BD2069C003F3D420690C49084073
:100500000CD00C494A6802434A60810F01D0A169AE
:10051000A161810000D02061012070BD2069C00769
:1005200001D001202061002070BD000000200240A9
:10053000FAC302000C000020124910B509684FF4FC
:100540008024CB431A04120C0BD00A045FEA9212E7
:1005500002F10062824206D9A0F10060C40A0AA03A
:100560000BE02246F4E71A04120C01D009048C09AE
:10057000001BA0F10060C40A06A003F0B7F82046F3
:1005800010BD0000E075FF1F42616E6B2031200D31
:100590000A00000042616E6B2032200D0A0000004C
:1005A00070B5044600F0DAF90546601C02D0044834
:1005B0000078044400F0D2F9401BA042FAD370BD89
:1005C000000000202DE9F05F054634488946017897
:1005D00001290CD00127804607704CF2503B584649
:1005E000FFF778FF06004FF0000A03D052E0022028
:1005F00000F058B851464046C8F804A0284C22687C
:1006000092050ED5216821F4007121602168490509
:1006100005D5216821F480612160032109E0077775
:1006200008E02268520504D5216821F48061216028
:10063000022101772868012807D04FF0FF31C9F85F
:10064000001040F2FA3BAF681DE06868FFF7FCFE5F
:100650005846FFF73FFF0646606920F004006061DE
:1006600016E038466968FFF7FDFE4CF25030FFF7A0
:1006700031FF0600606920EA0B00606102D0C9F812
:10068000007005E07F1CD5E902010844B842E8D8B3
:10069000FFF7B0FE88F800A03046A9E70C00002064
:1006A0000020024030BCBDE8C09F00000348416903
:1006B00041F00041416100207047000000200240ED
:1006C0002DE9FF5F254C0646904620789A46012882
:1006D0000BD0012020704CF2503B5846FFF7FAFE39
:1006E00007004FF0000904D02AE0022004B000F017
:1006F00039B84846C4F80490194D2968490504D50D
:10070000286820F4806028600220207726B1012E1E
:1007100009D0022E07D00CE0424653460198FFF75D
:10072000B5FE012612E041460198FFF7BDFE022EFC
:100730000AD05846FFF7CEFE4FEA0007FFF75AFEF1
:1007400084F800903846D1E74FF480265846FFF7EA
:10075000C1FE07466869B0436861EFE70C000020FE
:100760000020024030BCBDE8C09F000006490020C8
:100770004A69002A07DA054A8A60054A8A60496997
:10078000002900DA0120704700200240230167455C
:10079000AB89EFCD2DE9FC4FDFF894A100230125B3
:1007A0000AF1040B03244FF00F0C0BF1040EB8E018
:1007B00005FA03F632406FD04F68012F05D0022FA3
:1007C00003D0112F01D0122F17D1D0F808905F005D
:1007D00004FA07F829EA08090097D1F80C8008FA0A
:1007E00007F848EA0908C0F808804768B7430E7957
:1007F000C6F300169E403E434660C6684FEA430873
:1008000004FA08F7BE4301978F6807FA08F73743E1
:10081000C7604E68022E01D0122E13D1DE0800EB05
:1008200086060096366A5F07FF0E0CFA07F926EA7D
:100830000906D1F8109009FA07F949EA0609009E5D
:10084000C6F820900668019FBE430F7907F00307A2
:1008500007FA08F7374307604E68F60060D5354E53
:10086000376E47F001073766366E23F0030706F050
:1008700001060096304E3E44B146B6689F074FEAE7
:1008800017780CFA08F7BE43B0F1904F05D02B4F04
:10089000B84204D1012712E042E000270FE0284FC0
:1008A000B84201D102270AE0264FB84201D10327FE
:1008B00005E0254FB84201D1042700E0072707FAD9
:1008C00008F73743C9F80870DAF800605746D1F8DE
:1008D000048096435FEAC83800D516433E60DBF8D3
:1008E00000605F46D1F8048096435FEA883800D5FF
:1008F00016433E60DEF800607746D1F804809643E8
:100900005FEAC82800D516433E60094F0C373E68A1
:10091000D1F8048096435FEA882800D516433E60EC
:100920005B1C0A6832FA03F67FF442AF00F00EB89F
:100930000004014000100240000001400004004893
:1009400000080048000C0048001000481CBCBDE82E
:10095000E08F0AB181617047816270470148806809
:1009600070470000000000200248816802781144AE
:10097000816070470000002010B50024032000F0C3
:1009800063F8002000F008F808B1012401E000F04D
:1009900025F8204610BD000070B50E4E0546002417
:1009A000307898B14FF47A71B1FBF0F00A490968D8
:1009B000B1FBF0F001F0B5F840B9102D06D20022DD
:1009C0002946501E00F020F8756000E00124204602
:1009D00070BD0000000000202C000020094808B570
:1009E000016E41F001010166016E01F0010100910B
:1009F000816D41F080518165806D00F080500090E4
:100A000008BD000000100240F0B40E4B1B680C46FD
:100A1000C3F30223C3F10705042D00D90425191DD2
:100A2000072901D2002300E0DB1E012606FA05F1AA
:100A3000491E214099409E40761E16403143F0BC2D
:100A400002F064BE0CED00E0064900F00702086801
:100A50004FF6FF03184040EA0220034A10430860A3
:100A6000704700000CED00E00000FA051649B0F5F3
:100A7000007F0868C0F3412009D0022805D008682B
:100A800020F4C06040F480600860002070470128B6
:100A9000FBD0086820F4C06040F4007008600B4888
:100AA0003222006850430A4AB0FBF2F0401C00E0DA
:100AB000401E4A69520501D50028F9D14869400510
:100AC000E3D5032070470000007000402C00002098
:100AD00040420F000248006800F4C0607047000008
:100AE000007000402DE9F84F17468B460446FFF78B
:100AF00035FF824694F8400001280ED0012684F884
:100B0000406094F841004FF00008012807D002250A
:100B100084F84080284600F028B80220FBE7C4F89B
:100B200044804FF0020984F841905346002220216E
:100B30002046009701F06CFF0500E9D100225946DC
:100B4000204601F081FEDBF8240058B9534601220B
:100B500002212046009701F05BFF0500D8D12168F3
:100B6000C1F80C9084F84160D2E718BCBDE8E08F72
:100B7000F8B50446FFF7F2FE064624B194F84100AA
:100B8000002510B109E00120F8BD84F8405020464E
:100B900000F042F841F28830A06420680168A26841
:100BA0006FF0FF0321F4706103EB02221143016037
:100BB000A06C0090334600222021204601F028FF3F
:100BC00010BBE269E16823791143226A42EA0362B9
:100BD0001143226813680E4E334019431160D4E963
:100BE00005121143226853680A4E3340268A43EAAD
:100BF00006431943516021680A6842F001020A6005
:100C00006564012184F8411084F84050F8BD00006B
:100C10002FFFFF00FEF8E0FF10B586B00446142158
:100C20006846FFF70EFB1349206888421FD112481F
:100C3000016D41F480710165016D01F480710591D0
:100C4000C16C41F00201C164C06C694600F0020051
:100C5000059040F603400090022001900020029091
:100C6000032003900A2004900448FFF793FD06B088
:100C700010BD0000001000A0001002400004004859
:100C80002DE9F84F15460E460446FFF767FE8246EB
:100C90002068816994F8402000F12009012A0DD0D4
:100CA000012784F8407094F841204FF00008012A91
:100CB00006D0022084F8408000F041B80220FBE713
:100CC000C4F84480A6B3222284F841200269521C51
:100CD000A2630269521C62632663426922F0406289
:100CE00042F080624261206881610EE00621204668
:100CF00001F08EFEC8B999F80000216B0870206BD6
:100D0000401C2063A06B401EA063A06B53464FF0B5
:100D1000010200950028E9D14FF00201204601F0C0
:100D200077FE10B922680221D16084F84170C1E7D2
:100D3000FFE7606C40F0080060640120BAE718BC6F
:100D4000BDE8E08F2DE9F84F15460E460446FFF743
:100D500005FE8246206894F8401000F12009012920
:100D60000ED0012784F8407094F841104FF000082D
:100D7000012907D05FF0020084F8408000F03DB800
:100D80000220FBE7C4F8448086B3122184F84110A6
:100D90000169491CE1620169491CA16266624169FD
:100DA00021F0406141610EE00421204601F030FE57
:100DB000C8B9606A017889F80010606A401C6062F6
:100DC000E06A401EE062E06A53464FF0010200957F
:100DD0000028E9D14FF00201204601F019FE10B9B8
:100DE00022680221D16084F84170C5E7FFE7606C9A
:100DF00040F0080060640120BEE718BCBDE8E08F49
:100E00002DE9F84F044600270088A84D3E4600050E
:100E100015D5606C60B1B0F5000F04D0B0F5400F8F
:100E20002BD001270AE0E86840F48030E86024E035
:100E30000021201D01F010FE07001ED03E46206854
:100E400080033AD5A86D4FF00008C00009D4A86D02
:100E500040F08050A865A86D4FF0010800F0805068
:100E60000090DFF84CA2DAF8001041F48071CAF863
:100E70000010FFF773FD814610E0D5F88800616C23
:100E800020F440000843C5F88800D8E7FFF766FD66
:100E9000A0EB0900022801D9032705E0DAF80000D9
:100EA000C005F3D5002F7DD04FEA0706B8F1000F3B
:100EB00003D0A86D20F08050A8652078C00707D027
:100EC000D5F88800216A20F003000843C5F888009F
:100ED0002078800707D5D5F88800616A20F00C00DB
:100EE0000843C5F888002078400707D5D5F8880062
:100EF000A16A20F030000843C5F8880020788006F9
:100F000007D5D5F88800E16A20F440600843C5F8A9
:100F100088002088800507D5D5F88800E16B20F48B
:100F200040200843C5F888002088400507D5D5F83B
:100F30008800216C20F440100843C5F88800207810
:100F4000400607D5D5F88800216B20F440500843AF
:100F5000C5F888002078000607D5D5F88800616BB1
:100F600020F440400843C5F888002088C00507D514
:100F7000D5F88800A16B20F440300843C5F88800FC
:100F800020684FF0006700034FF0806850D5D5F817
:100F90008800A16C20F040600843C5F88800A06C70
:100FA000B84200E005E03BD1E86840F48010E8601A
:100FB0003EE0D5F8900010F4407014D0A16D81424D
:100FC00011D0D5F89000D5F8901020F4407041F47D
:100FD0008031C5F89010D5F8901021F48031C5F813
:100FE0009010C5F89000C00711D0FFF7B7FC074676
:100FF00041F2883907E000BFFFF7B0FCC11B49454B
:1010000001D9032652E7D5F890008007F4D5D5F82A
:101010009000A16D20F440700843C5F8900045E7AA
:10102000404505D10121201D01F016FD00B1064605
:101030002068400317D5D5F88800E16C20F04060A7
:101040000843C5F88800E06CB84204D1E86840F471
:101050008010E86007E0404505D10121201D01F026
:10106000FBFC00B106462088400411D5D5F8880065
:10107000216D20F040500843C5F88800206DB0F184
:10108000805F05D10221201D01F0E6FC00B106467B
:101090002088000406D555F8880F616D20F0804047
:1010A00008432860304600F005B8000000100240F8
:1010B0000070004018BCBDE8E08F00002DE9F0474B
:1010C0000F46050058D0404E306800F00700B84287
:1010D00009D2306820F0070038433060306800F0F3
:1010E0000700B84248D12878384CC0072CD068682F
:1010F000032811D0022812D0216898B1490500298F
:101100003ADAA16821F003010143A160FFF726FC50
:10111000804641F2883910E021688901EFE72168B3
:101120008903ECE78907EAE7FFF718FCA0EB080161
:10113000494502D90320BDE8F087A068696800F03E
:101140000C00B0EB810FEFD12878800705D5A0689F
:10115000A96820F0F0000843A060306800F00700A4
:10116000B8420BD9306820F007003843306030684F
:1011700000F00700B84201D00120DCE728784007E2
:1011800005D5A068E96820F4E0600843A0602878ED
:10119000000706D5A068296920F4605040EAC10024
:1011A000A06000F03FF8A168094AC1F30311515C47
:1011B00001F01F01C8400749086007480068BDE802
:1011C000F047FFF7E9BB000000200240001002409A
:1011D00060BD00082C0000200400002005480649DE
:1011E00000688968054AC1F30221515C01F01F01C2
:1011F000C84070472C00002000100240A0BD00082D
:101200000548064900688968054AC1F3C221515C56
:1012100001F01F01C84070472C0000200010024060
:10122000A0BD000870B52549002318468A68CC681F
:1012300012F00C0204F00306214C4FEA640509D0B9
:101240000C2A05D0042A32D0082A00D1284670BDC5
:10125000012E10D10B681B0704D4D1F89430C3F3CE
:10126000032302E00B68C3F30313164E56F8233032
:10127000DAB10C2AEBD1C86800F00300022818D0BC
:10128000032818D01846CA68CB68C2F30212C3F309
:1012900006234343521CB3FBF2F2C868C0F341601B
:1012A000401C4000B2FBF0F070BD184670BD2046F7
:1012B00070BD2046E7E72846E5E700000010024041
:1012C0000024F40070BD00082DE9F84304006FD03D
:1012D000FE4DA86800F00C06E86800F003072078CF
:1012E000C00664D576B10C2E01D1012F0AD0A069B9
:1012F000002828687AD040F001002860FFF72EFB14
:1013000080465DE02868800702D5A0690028DED00D
:10131000216A2868000703D5286800F0F00004E07F
:10132000D5F89400F02202EA1010814216D908463E
:1013300001F028FC00283BD1286840F00800286014
:101340002868216A20F0F000084328606868E16995
:1013500020F47F4040EA0120686016E0286840F0F1
:10136000080028602868216A20F0F00008432860FF
:101370006868E16920F47F4040EA0120686026B98E
:10138000206A01F0FFFB0028D5D1FFF74BFFA968C9
:10139000CF4AC1F30311515C01F01F01C840CD4990
:1013A0000860CD480068FFF7F7FA00287ED12EE0EC
:1013B000CAE000BFFFF7D2FAA0EB0800022876D8F7
:1013C00028688007F6D5286840F00800286028685B
:1013D000216A20F0F000084328606868E16920F481
:1013E0007F4040EA0120686011E0FFE720F0010043
:1013F0002860FFF7B3FA804606E000BFFFF7AEFAB9
:10140000A0EB08000228DAD828688007F6D42078F4
:10141000C00740D0082E18D00C2E01D1032F14D0B5
:101420006068B0F5803F17D0B0F5A02F286817D0BE
:1014300020F480302860286820F4802028606068CC
:10144000E0B1FFF78BFA804614E02868800322D5CC
:101450006068002878D01EE0286840F48030EDE70E
:1014600040F480202860F7E7FFF778FAA0EB080047
:101470006428A4D828688003F6D50CE0FFF76EFA3C
:10148000804605E0FFF76AFAA0EB0800642896D8CA
:1014900028688003F6D4207880073BD5042E11D02D
:1014A0000C2E01D1022F0DD0E06801E0B6E1FFE083
:1014B000002828681ED040F480702860FFF74EFA9C
:1014C00007460CE0286840050CD5E0680028C1D02C
:1014D00008E000BFFFF742FAC01B022893D8286833
:1014E0004005F7D56868217C20F0FE4040EA0160A5
:1014F00068600FE020F480702860FFF72FFA07463D
:1015000005E000BFFFF72AFAC01B0228B1D82868FF
:101510004005F7D42078000729D560690028D5F860
:10152000940012D040F00100C5F89400FFF716FABD
:10153000074604E0FFF712FAC01B022899D8D5F835
:1015400094008007F6D512E02BE120F00100C5F8E9
:101550009400FFF703FA074605E000BFFFF7FEF926
:10156000C01B022885D8D5F894008007F6D42078CF
:10157000400766D5A86D0027C00008D4A86D40F0CC
:101580008050A865A86D012700F080500090534856
:101590000168C90512D40168814641F48071016077
:1015A000FFF7DCF9804605E0FFF7D8F9A0EB08006B
:1015B00002287DD8D9F80000C005F5D5A06801281B
:1015C00016D00528D5F8900017D020F00100C5F8F6
:1015D0009000D5F8900020F0040000BFC5F89000FE
:1015E000A06841F28839C0B1FFF7B8F980460FE032
:1015F000D5F8900040F00100F0E740F00400C5F895
:101600009000F5E7FFF7AAF9A0EB080149454FD88C
:10161000D5F890008007F5D50EE0FFF79FF98046DA
:1016200006E000BFFFF79AF9A0EB080149453FD853
:10163000D5F890008007F5D41FB1A86D20F0805038
:10164000A8652078800628D5606A0028D5F898001B
:1016500012D040F00100C5F89800FFF77FF9074667
:1016600005E000BFFFF77AF9C01B022820D8D5F8A3
:1016700098008007F6D510E020F00100C5F898002A
:10168000FFF76CF9074604E0FFF768F9C01B022872
:101690000ED8D5F898008007F6D4A06AA8B1022821
:1016A00024D00C2E7DD0286820F08070286000E0C7
:1016B000B3E02868000103D4E86820F00300E86084
:1016C000E86807490840E8600CE09FE0001002402D
:1016D00060BD00082C0000200400002000700040C5
:1016E000FFFFEEFEFFF73AF9044699E0E868E26A88
:1016F00000F00301914226D1216B00F07002090134
:10170000103991421FD1626B00F4FE41B1EB022F00
:1017100019D194F8382000F07841B1EBC26F12D1A2
:10172000A18F00F4C00249084905A1F500119142BA
:1017300009D194F8401000F0C06049084906A1F1B1
:10174000007181424BD00C2E6FD0286840016CD4C0
:10175000286820F080702860FFF700F9064604E052
:10176000FFF7FCF8801B022857D828688001F7D4BF
:10177000F4E90B016FF00F0202EB01110843218A1B
:101780005204490802EB4151A26841EA0221084390
:10179000217D4FF07E42490802EB41610843217BE5
:1017A00000E042E040EAC160E968214A1140084394
:1017B000E860286840F080702860E86840F0807039
:1017C000E860FFF7CBF8044605E000BFFFF7C6F876
:1017D000001B022821D828688001F7D523E028685B
:1017E000800120D4286840F080702860E86840F0CC
:1017F0008070E860FFF7B2F8044604E0FFF7AEF847
:10180000001B022809D828688001F7D50BE000BF2B
:10181000FFF7A4F8001B022802D90320BDE8F883D3
:1018200028688001F4D40020F8E70120F6E70000E2
:101830008C809D0170B5040009D0606A002540B11C
:1018400025616561A56294F85D0040B10CE001205E
:1018500070BD6068B0F5827FF4D0E561F2E784F88E
:101860005C50204600F056F8022084F85D002068A5
:10187000016821F040010160E1684FF4E0629142AB
:1018800001D9002001E04FF48050B1F5706F02D013
:10189000914200D0A562A188228901F4827102F4EC
:1018A00004421143227C02F002021143227D02F025
:1018B00001021143228B02F400721143227F02F0D5
:1018C0003802114394F8202002F080021143228D47
:1018D00002F40052114322681160A169042202EA55
:1018E000114194F8242000F4805002F010021143BA
:1018F00094F8342002F008021143A28902F47062C5
:1019000011430143206841602566012084F85D0091
:10191000002070BDF0B587B0044614216846FEF77C
:1019200090FC1849206888422AD11748816D41F4FB
:1019300080418165816D01F480410591C16C41F068
:101940000401C164C16C01F004010591C16C41F056
:101950000201C164C06C022400F00200059008205E
:101960000025032605278DE8F10069460748FEF7A4
:1019700011FF20038DE8F10069460548FEF70AFFD4
:1019800007B0F0BD003800400010024000080048D9
:10199000000400482DE9F84F044690F85C00002749
:1019A0001D461646894601280DD04FF0010B84F8DC
:1019B0005CB0FEF7D3FF804694F85D00BA4601287C
:1019C00004D00227A4E0022000F0A8B8B9F1000F6B
:1019D00074D0002E72D0032084F85D00C4F860A09B
:1019E000C4F83890A687E687C4F840A0A4F844A0BD
:1019F000A4F846A0C4F850A0C4F84CA0A068B0F564
:101A0000004F09D12068016821F040010160206881
:101A1000016841F48041016020680168490603D4EF
:101A2000016841F040010160E068B0F5E06F606876
:101A300023D908B1012E1CD1A06B21680088C86091
:101A400006E020688168890709D5A16B0988C16013
:101A5000A06B801CA063E08F401EE08709E0FEF7CA
:101A60007DFFA0EB0800A84202D3681C01D046E02D
:101A7000ADB3E08F0028E4D136E008B1012E30D1BB
:101A8000E08F0128A06B03D921680088C8600FE0AF
:101A900021680078087314E0E08722E020688168FC
:101AA000890714D5E18F0129A16B08D90988C16084
:101AB000A06B801CA063E08F801EEDE727E0097813
:101AC0000173A06B401CA063E08F401EE4E7FEF7AB
:101AD00045FFA0EB0800A84202D3681C01D00EE02D
:101AE0006DB1E08F0028D9D142462946204601F049
:101AF000B7F808B120202066A06810B105E00327E0
:101B000006E02068C16880680090206E00B101275F
:101B100084F85DB084F85CA0384655E718BCBDE891
:101B2000E08F10B5401EB0F1807F01D3012010BDC1
:101B30004FF0E02460610F21601701F0E7FD002005
:101B4000A06107202061002010BD10B5040002D064
:101B5000606F10B107E0012010BD002084F8700014
:101B6000204600F025F8242060672068016821F0F5
:101B700001010160204601F0BBFB0128ECD0606A46
:101B800010B1204601F024FB2068416821F4904107
:101B900041602068816821F02A0181602068016825
:101BA00041F0010101602046BDE8104001F074BB26
:101BB000F0B587B0044614216846FEF742FB1D4F7E
:101BC000266800221C490223032407254FF0904079
:101BD000BE4211D10E6E46F480460E660E6E06F4BD
:101BE00080460596CE6C46F00106CE64C96C01F0C5
:101BF00001010591610213E0104FBE4218D18E6DB4
:101C000046F400368E658E6D06F400360596CE6C71
:101C100046F00106CE64C96C01F0010105910C216A
:101C2000CDE9001302AE694686E83400FEF7B2FD46
:101C300007B0F0BD003801400010024000440040F1
:101C40002DE9F8430446406F1F4616460D462028EE
:101C50004FD1CDB1C6B194F87000012849D0012010
:101C600084F870004FF00008C4F87C802120606781
:101C7000FEF774FEA4F850608146A4F85260A06894
:101C8000B0F5805F03D004E00120BDE8F88320694F
:101C900028B12E465FF0000584F8708010E0002621
:101CA000FAE78021204601F025FCB8B9C6B116F844
:101CB000010B21680885B4F85200401EA4F85200B8
:101CC000B4F852004B464FF0000200970028E8D1CC
:101CD0004FF04001204601F00DFC30B10320D4E765
:101CE00035F8020BC0F30800E3E72020606700200E
:101CF000CBE70220C9E7FEE7FEB501681B4A1140A9
:101D0000B1F1005F20D000F085FF18234FF6FF747B
:101D10004FF478410094CDE90113154E4FF4B435DA
:101D2000FF281AD013A3F022D221002000F029FBB3
:101D300016A000BF01F0DAFC03B02A463146BDE828
:101D4000F040002001F0A2BF44680068FEF728FAC6
:101D500003B0A446BDE8F040604712A3F022D221B0
:101D6000002000F00EFB13A0E4E700000000FE2FAF
:101D700000F000083E204A756D70546F4170702D60
:101D80002D4552524F522121210000004A756D709D
:101D9000546F4170702D2D4552524F522121210D0B
:101DA0000A0000003E204170702D2D4E4F4E4521FF
:101DB000212100003E204170702D2D4E4F4E4521B7
:101DC00021210D0A000000002DE9F04107461C46C4
:101DD00015460E462A2000F045FB380A00F050FB5D
:101DE000F8B200F04DFB280A00F04AFBE8B200F020
:101DF00047FB2B2000F036FB300A00F041FBF0B22D
:101E000000F03EFB200A00F03BFBE0B200F038FBA4
:101E1000BDE8F0412C2000F025BB000070B5040A9D
:101E2000C5B2EF2300211A460846FFF7CDFF0F4940
:101E300000204FF4107200BF01F8104001EB400386
:101E4000401C80B25D709042F6D3012240210848C8
:101E5000FEF77FFD00244FF490652946034800F00B
:101E60002BFA641CA4B2642CF7D370BDE4010020EB
:101E7000000800480122D1030148FEF76ABD0000B6
:101E8000000400482DE9FE4F0024151AA346A2467F
:101E9000A146A0462746994220D1FFF795FF0C980E
:101EA0000C99020A3348C9B207E000BF00F81420B9
:101EB00000EB4403641C5970A4B2A542F6DC012275
:101EC00040212D48FEF745FD4FF6FF7000EA450121
:101ED00003B0284800F052B800F0EEB92EB25A1AFA
:101EE00015B24FF0FF32002E02DD4FF0010B04E07F
:101EF00003D0C6F1000393461EB2002D02DD4FF061
:101F0000010A04E003D09246C5F1000215B2AE42C8
:101F100001DDB4B200E0ACB2CDE90010601C02906B
:101F200022E000BFDDE900100C9A00F02FF808EB6A
:101F300006001FFA80F8A04508D9A8EB0400019913
:101F40001FFA80F801EB0B0080B20190781987B27C
:101F5000A74205D9381B87B20098504480B2009040
:101F600009F101001FFA80F902998945DAD900F0D8
:101F70000AB80000E40100200008004830BCBDE8B9
:101F8000C04FFFF7A9BF1EBCBDE8E08F10B51446D7
:101F90000B460246FFF718FF2046BDE8104000F050
:101FA0004DBA2DE9F8431D46089C1646884607465B
:101FB0000B460094FFF766FF3A462B464146104613
:101FC0000094FFF75FFF2B463246194638460094CF
:101FD000FFF758FF32462B46414610460094FFF764
:101FE00051FFBDE8F88300002DE9F047141A5F1A8D
:101FF000641C7F1C7C43002564004FF49068089E9D
:10200000444502D9A4F590654446FFF7DDFE370A42
:10201000DFF84C90DFF84CA0F6B20020494606E00D
:1020200001F8107001EB4002401C567080B2B0EB1A
:10203000540FF5D3012240215046FEF78AFCA1B28D
:10204000074800F039F9002D07D0454502D9A5F51C
:102050009065E2E72C460025DFE7BDE8F087000049
:10206000E4010020000800482DE9F04186B0142169
:102070006846FEF7E6F82948C16C41F00401C164E6
:10208000C16C01F004010591C16C41F08001C16493
:10209000C16C01F080010591C16C41F00201C16485
:1020A000C06C1F4F00F002004FF400450590002265
:1020B00029463846FEF74DFCDFF868800022C02133
:1020C0004046FEF746FC012600240095CDE9016458
:1020D000694638460394FEF75DFBC0200090CDE9C9
:1020E0000164694640460394FEF754FB00222946EA
:1020F0003846FEF72EFC002280214046FEF729FCE0
:102100006420FEF74DFA012280214046FEF721FCB3
:1021100000F036FA06B0BDE8F08100000010024081
:10212000000400480008004810B5FFF79DFF782024
:10213000FEF736FA112000F095F97820FEF730FA14
:10214000362000F08FF9002000F09AF93A2000F0D4
:1021500089F9652000F094F9B22000F083F90C2091
:1021600000F08EF90C2000F08BF9002000F088F9C7
:10217000332000F085F9332000F082F9B72000F019
:1021800071F9722000F07CF9BB2000F06BF93D2062
:1021900000F076F9C02000F065F92C2000F070F90D
:1021A000C22000F05FF9012000F06AF9C32000F0BE
:1021B00059F9192000F064F9C42000F053F92020E7
:1021C00000F05EF9C62000F04DF9012000F058F94A
:1021D000D02000F047F9A42000F052F9A12000F02F
:1021E0004FF9E02000F03EF9D02000F049F904203A
:1021F00000F046F90D2000F043F9112000F040F9FD
:10220000132000F03DF92B2000F03AF93F2000F0B8
:1022100037F9542000F034F94C2000F031F918203F
:1022200000F02EF90D2000F02BF90B2000F028F91A
:102230001F2000F025F9232000F022F9E12000F012
:1022400011F9D02000F01CF9042000F019F90C203D
:1022500000F016F9112000F013F9132000F010F926
:102260002C2000F00DF93F2000F00AF9442000F086
:1022700007F9512000F004F92F2000F001F91F2088
:1022800000F0FEF81F2000F0FBF8202000F0F8F826
:10229000232000F0F5F8212000F0E4F8292000F0D8
:1022A000E1F8EF2300211A460846FFF78DFDBDE84F
:1022B00010400020FFF7B2BD00F0C8BC2DE9F05F70
:1022C0001646DDE90AB5F0220024A2EB55029A4633
:1022D00082423FD3C5F1F0028A423BDB4A19521ECB
:1022E00093B200EB5502521E92B2FFF76DFD203EF5
:1022F000F0B2102D16D0202D14D00C2D12D0182D88
:1023000028D11C4900EB40004FF0300901EB0018C8
:10231000E00718F804501FD00427002628061DD512
:1023200058461CE0144900EB40004FF00C0801EB4C
:10233000800700263D5D280601D5584600E050463E
:1023400000F07CF86806050E761C062EF3DB641C94
:102350004445EEDB00F012B80827DEE7504600F0F7
:102360006DF86806050E761CBE42D7DB641C4C4532
:10237000CEDBEFE71CC20008A8BD000830BCBDE8FA
:10238000C09F2DE9FC470446DDE90B8710191D4667
:102390008A46C6B2DDF828900CE0B4420FD2CDE9EF
:1023A00000874B4651462046FFF788FF04EB570055
:1023B00084B26D1C2A78A2F120005E28EDD900F0CD
:1023C00000B80CBCBDE8F0872DE9F04702FB03F430
:1023D000660000250244DDF820903446F02A29D812
:1023E0000B44F02B26D85B1E521E9BB292B2FFF715
:1023F000EBFC012240211048FEF7ABFA4FF6FF77C5
:102400004FF4803813E0444508D339464846FFF777
:1024100053FFA4F57F44B944FF3C06E0B4FBF7F05A
:1024200007FB10414846FFF747FF6D1CEDB2B5EBC7
:10243000164FE8D9BDE8F0870008004808B500212C
:102440000091010A8DF800108DF801000122402151
:102450000348FEF77EFA02216846FFF72DFF08BD0C
:102460000008004801B5002240210448FEF771FA37
:1024700001216846FFF720FF08BD00000008004862
:1024800001B5012240210448FEF763FA01216846A4
:10249000FFF712FF08BD0000000800482DE9F041D9
:1024A00086B014216846FDF7CCFE2248C16C41F08D
:1024B0000401C164C16C01F004010591C16C41F0DB
:1024C0008001C164C16C01F080010591C16C41F0D3
:1024D0000101C164C16C01F001010591C16C41F0C1
:1024E0000201C164C06C144F00F002004FF40244BA
:1024F0000590002221463846FEF72BFADFF83C8093
:102500000022C0214046FEF724FA009401AA0124CB
:102510000025032682E8700069463846FEF73AF93E
:10252000C0208DE8710069464046FEF733F906B0D9
:10253000BDE8F08100100240000400480008004897
:102540000E4810B50C49016000210422C0E90112B7
:102550001022C260162202614FF44072C0E90521C8
:10256000C1610162FEF704FB002803D0BDE8104002
:10257000FDF73EBF10BD0000001000A03400002099
:10258000124810B5104901604FF48271416000217A
:102590004FF4E062C0E902120222026101224261AC
:1025A0005202C0E90621016207224162C0E90A1213
:1025B00001634163FFF73EF9002803D0BDE81040F6
:1025C000FDF716BF10BD000000380040800000205D
:1025D0000D4810B50B4901604FF4E1314160002115
:1025E00081600C22C160C0E904128161C161016295
:1025F0004162FFF7AAFA002803D0BDE81040FDF7BA
:10260000F7BE10BD00380140E40000200D4810B5B1
:102610000B4901604FF4E1314160002181600C22DF
:10262000C160C0E904128161C16101624162FFF7CA
:102630008CFA002803D0BDE81040FDF7D9BE10BDCC
:102640000044004064010020FEE700002DE9F04155
:102650000646ADF5A06D154688461EA001F046F869
:10266000002407E0214623A001F040F8204600F0B6
:1026700094FF641CB4EB153FF4D300244FF480772F
:102680000FE000BF06EB04203A460DF5806100F034
:10269000B7FA08EB04213A460DF5806000F092FF8E
:1026A000641CB4EB152FEDD34FF480652A464146E8
:1026B000684600F0A1FF00246E4618A0315D01F0CD
:1026C00015F8641CAC42F8DB0DF5A06D0020BDE8E8
:1026D000F08100003E20537461727420636F707942
:1026E0002E746F205732355136342E2E2E2E2E0D4D
:1026F0000A0000002D2D2D2D2D2D2D2D2065726110
:10270000736520736563746F72202564202D2D2DF1
:102710002D2D2D2D2D2D2D2D0D0A0000257820007D
:102720002DE9F0438146ADF2044D15460E461AA040
:1027300000F0DCFFE80A804601463046FDF700FE67
:102740001DA000F0D3FF24A000F0D0FF00244FF420
:1027500080670CE009EB84203A46694600F050FAA5
:1027600006EB84203A46694600F0A8FF641CB4EBEF
:10277000952FEFD31EA000F0B9FF22A000F0B6FF06
:1027800041464846FDF7DCFD26A000F0AFFF0DF204
:10279000044DBDE8F08300003E2053746172742044
:1027A00065726173652064657320666C6173682E61
:1027B0002E2E2E2E2E0D0A003E20457261736520AE
:1027C00064657320666C61736820646F776E2E2E6B
:1027D0002E2E2E2E0D0A00003E205374617274209E
:1027E000636F70792E2E2E2E2E2E0D0A0000000003
:1027F0003E20436F707920646F776E2E2E2E2E2E22
:102800002E0D0A003E20537461727420657261734C
:10281000652073726320666C6173682E2E2E2E2ED7
:102820002E0D0A003E20457261736520737263208D
:10283000666C61736820646F776E2E2E2E2E2E2E9E
:102840000D0A000070477047F0B54B6A4FF04065C5
:102850002BB1AA4203D08B6A04685B1E23618C698A
:102860000B6A002C57D05BB304688B68E361CC69BA
:10287000B4B1D1E90B3633434F6A4E6B3E43334319
:102880008E8A43EA86430E6933430E6A3343CE6829
:10289000334323438C6924E0006849688161F0BDBB
:1028A000D1E90B3423434D6A4C6B2C4323438C8A70
:1028B00043EA84430C6923430C6A23438C6923E075
:1028C000CE69BEB1D1E90B373B43D1F824C04F6B81
:1028D00047EA0C073B438F8A43EA8743CF683B4371
:1028E000334323430C682343046813436361AA42C0
:1028F000D2D1F0BDD1E90B352B434E6A4D6B354338
:102900002B438D8A43EA85430968234300680B43C0
:1029100013434361F0BD3BB304688B68E361CC694A
:1029200094B1D1E90B3633434F6A4E6B3E43334388
:102930008E8A43EA86430E6933430E6A3343CE6878
:10294000334323438C69CEE7D1E90B3423434D6AEB
:102950004C6B2C4323438C8A43EA84430C69234306
:102960000C6A89692343D1E7CC6964B1D1E90B369C
:1029700033434F6A4E6B3E4333438E8A43EA86436A
:10298000CE683343AFE74B6A002BC3D0D1E90B4588
:102990002C434D6B898A1D432C43006844EA8141D6
:1029A00011434161F0BD0000044A491E12681161E3
:1029B000014641F288320148FEF762B93400002036
:1029C00070B58EB00DF1480C9CE87000CDE90001A7
:1029D0000395002009960D90CDE907400B900C90CF
:1029E000CDE9052341F2883269460248FEF77AF8BC
:1029F0000EB070BD34000020044A491E12681161F7
:102A0000014641F288320148FEF79CB934000020AB
:102A10002DE9F041984616460F460446069D08E00B
:102A2000681C06D0FDF79AFFA0EB0800A8420AD860
:102A30004DB120688068384000D00120B042EFD10D
:102A40000020BDE8F081042084F84100606C40F073
:102A5000010060640120F4E72DE9F041444C054693
:102A60008846E0680026810728680DD0E16801F0FB
:102A70000301814216D1A8B1E0686968C0F3021071
:102A8000401C88420ED120E0012804D0022805D045
:102A9000032807D108E02168890701E0216849057A
:102AA000002907DB01265FE02168890302D4216841
:102AB0004903F5E7E1686A686FF00F0321F07301DD
:102AC00003EB021211430143E160206820F08060B3
:102AD0002060FDF743FF074605E000BFFDF73EFF1E
:102AE000C01B022837D820680001F7D4B8F1000FC6
:102AF00018D0B8F1010F1DD0287D4FF07E4140085D
:102B000001EB4060A96840EA01202169194A11409F
:102B100008432061206840F080602060FDF71EFFC0
:102B200007461AE0A868297B000240EAC1602169D3
:102B3000114AECE7288A1149400801EB4050A96886
:102B400040EA012021690E4AE1E700BFFDF706FFD8
:102B5000C01B022801D9032606E020680001F5D534
:102B60002069A969084320613046BDE8F081000072
:102B700000100240FF80FFF9FF80FF070000E0FF28
:102B8000FF809FFFF8B51C4D06460024A86DC000CD
:102B900002D5FDF79FFF0DE0A86D40F08050A865BD
:102BA000A86D00F080500090FDF794FFA96D21F012
:102BB0008051A965B0F5007F04D0802E07D94FF071
:102BC00003040AE0802E08D9A02E01D804E001D128
:102BD000022402E0702E00D101240848016821F08F
:102BE000070121430160006800F00700A04201D006
:102BF0000120F8BD0020F8BD001002400020024076
:102C000010B5002302E0C45CCC545B1C9342FAD3A1
:102C100010BD000008B500208DF8000001226946B3
:102C20000248FFF7EDFF9DF8000008BD00F0000826
:102C300008B500208DF80000012269460248FFF720
:102C4000DFFF9DF8000008BDF8BF03080A460146F3
:102C50004FF47A730148FEF79DBE0000800000200B
:102C6000F8B515460E460B460092044600224FF476
:102C7000C05100F019F888B933460022802120465F
:102C8000009500F079F848B9334600224FF4C0614E
:102C90002046009500F008F8002804D0206E40F08F
:102CA000200020660320F8BD2DE9F84F994617460D
:102CB0000E4604460A9DFDF751FE411BA9EB010596
:102CC000FDF74CFE804629484FF4C06A0068C0EB0F
:102CD000C00000EB8000000D684300903FE05645C7
:102CE00001D107B9007BB9F1FF3F38D0FDF736FEBF
:102CF000A0EB0800A84203D215B1009860B32CE005
:102D00002068416821F0E00141606068B0F5827F91
:102D10000BD1A068B0F5004F02D0B0F5806F04D1A0
:102D20002068016821F040010160A06AB0F5005FF1
:102D300009D12068016821F4005101602068016810
:102D400041F400510160012084F85D00002084F806
:102D50005C00032000F00CB80025401E00902068A5
:102D600081683140B942BAD10020F3E72C0000203D
:102D700018BCBDE8E08F00002DE9F8431E469146DF
:102D800088460446089DFDF7E9FD401B351AFDF70E
:102D9000E5FD074625480068C0F3CB30684338E0BE
:102DA000701C37D0FDF7DAFDC01BA84203D215B165
:102DB000009860B32CE02068416821F0E001416098
:102DC0006068B0F5827F0BD1A068B0F5004F02D0EB
:102DD000B0F5806F04D12068016821F040010160E6
:102DE000A06AB0F5005F09D12068016821F40051A4
:102DF00001602068016841F400510160012084F8FD
:102E00005D00002084F85C000320BDE8F883002505
:102E1000401E00902068816838EA010004D000213B
:102E20004945BDD10020F0E70121F9E72C00002041
:102E3000704700002DE9FE4344A000F057FC44A079
:102E400000F054FC4CA000F051FC55A000F04EFCEA
:102E500049A000F04BFC3EA000F048FC5AA000F056
:102E600045FCFFF7E5FE0C261F24DFF880814FF6B6
:102E7000FF75AA281AD0BB2847D0FF2810D0FFF72B
:102E8000D7FE01465AA000F031FCCDE900545EA304
:102E9000F022D22100200296FFF773FA00F032B937
:102EA0005DA000F023FC62A3029626E065A000F07E
:102EB0001DFCCDE9005469A3F022D2210020029626
:102EC000FFF75FFA4FF4B4394A46002147464046BF
:102ED000FFF7BCFBCDE9005465A3F022D22100200E
:102EE0000296FFF74EFA4A4639466648FFF718FC45
:102EF00065A000F0FBFB6AA30296CDE90054F02226
:102F0000D2210020FFF73DFA02E06AA000F0EEFBBC
:102F1000002701213846FDF7D3F90F20FDF740FBCC
:102F20007F1C642FF5DB72B66CA000F0DFFBCDE9EF
:102F3000005470A3F022D22100200296FFF721FA5C
:102F4000404600F0E2B8FEF7D7BE00000D0A0000D0
:102F50002A2A2A2A2A2A2A2A2A2A2A2A2A2A2A2AD1
:102F60002A2A2A2A2A2A2A2A2A2A2A2A2A2A2A2AC1
:102F70002A2A2A0D0A0000002A20202020202020B2
:102F80002020202020202020202020202020202041
:102F9000202020202020202020202A0D0A000000B0
:102FA0002A2020202057656E7A68656E6727732077
:102FB000426F6F744C6F6164657220202020202066
:102FC00020202A0D0A0000003E2043686F6F7365C1
:102FD00020612073746172747570206D6574686F00
:102FE000642E2E2E2E2E2E0D0A00000000F000085A
:102FF0003E204572726F723A25582121212E2E2EC5
:103000002E2E2E0D0A0000003E203E204572726FCB
:10301000722E2E2E000000003E204E6F726D616CED
:103020002073746172742E2E2E2E2E2E0D0A000027
:103030003E203E204E6F726D616C2073746172741D
:103040002E0000003E20537461727420757064611C
:1030500074652E2E2E2E2E2E0D0A00003E203E20B0
:103060005374617274206261636B75702E2E000060
:103070003E203E20537461727420757064617465E3
:103080002E2E0000005802083E20557064617465C1
:1030900020646F776E2E2E2E2E2E2E0D0A0000002D
:1030A0003E203E2055706461746520646F776E2EFB
:1030B000000000003E20526573746F726520746FCB
:1030C00020666163746F72792070726F6772616DD0
:1030D0002E2E2E2E2E2E0D0A000000003E205374A0
:1030E0006172742075702E2E2E2E2E2E0D0A0D0A52
:1030F000000000003E203E20537461727420757001
:103100002E2E000006BCBDE8F88306BCBDE8F843DF
:10311000FFF719BFFDF728BC30B5ADB044216846B4
:10312000FDF78FF8142128A8FDF78BF85C2111A872
:10313000FDF787F801210804CDE9001002200325DE
:103140000A90CDE90B5114210D910721CDE90E1004
:1031500010906846FEF7B8F80F20CDE92805002446
:103160004FF48060CDE92A40042128A82C94FDF773
:10317000A5FF199411A811951A94FDF741FE4FF47B
:103180000070FDF773FC2DB030BD00000D480168E4
:1031900041F4700101600C48016841F001010160D7
:1031A000002181600268094B1A4002608214C260EB
:1031B000026822F48022026081610249C0038039E2
:1031C0000860704788ED00E000100240FFFFF6EA5B
:1031D00090F82410C90706D001684A68836A22F46F
:1031E00000321A434A6090F82410890706D5016816
:1031F0004A68C36A22F480321A434A6090F8241065
:10320000490706D501684A68036B22F480221A43F5
:103210004A6090F82410090706D501684A68436B94
:1032200022F400421A434A6090F82410C90606D5D9
:1032300001688A68836B22F480521A438A6090F88E
:103240002410890606D501688A68C36B22F40052EF
:103250001A438A6090F82410490611D501684A681B
:10326000036C22F480121A434A60016CB1F5801F8E
:1032700006D101684A68436C22F4C0021A434A60CE
:1032800090F82410090606D501684A68806C22F47B
:10329000002202434A607047F8B500260446C6671C
:1032A000FDF75CFB0546206800686FF07E4700076D
:1032B00008D52B4600224FF400112046009700F05D
:1032C00019F960B92068006840070AD52B4600222A
:1032D0004FF480012046009700F00CF908B103205C
:1032E000F8BD20206067A06784F870600020F8BDFA
:1032F0002DE9F0410446016880682269E3691043C2
:10330000626900251A431043724F0A68724B1A40D3
:1033100002430A6020684168E26821F44051114389
:1033200041602168A069B94201D0226A10438A68CD
:1033300022F4306202438A606849236868488B42FD
:103340000DD1D0F8880010F0030006D0012847D036
:10335000022843D0032830D144E001212EE0614906
:103360008B420BD1D0F8880010F00C0034D0042828
:1033700036D0082832D00C281FD133E05A498B426E
:103380000BD1D0F8880010F0300025D0102827D0BD
:10339000202823D0302810D124E0BB420DD1D0F812
:1033A000880010F4406017D0B0F5806F18D0B0F5E9
:1033B000006F13D0B0F5406F14D010214B4A002697
:1033C0004FF40040BB422FD171B102290FD0042924
:1033D0000FD0082975D10FE00021EFE70221EDE7BA
:1033E0000421EBE70821E9E7FDF7F8FE03E01046CA
:1033F00002E0FDF717FFE0B3626802EB4201814291
:103400005FD8B0EB023F5CD8010E000273084FEAB0
:103410003207C01959410023FCF7D8FE344AA0F501
:10342000407191424FD94CE0E3694FF6EF77834208
:1034300029D1092945D2DFE801F005080B440D44E4
:1034400044441000FDF7CAFE06E0FDF7D9FE03E094
:10345000104602E0FDF7E6FE58B14100606801EB5E
:103460005001B1FBF0F080B2A0F11001B94228D8B0
:1034700000E02AE04FF6F0710140C0F34200014342
:103480002068C16021E009291BD2DFE801F00508AE
:103490000B1A0D1A1A1A1000FDF7A0FE06E0FDF730
:1034A000AFFE03E0104602E0FDF7BCFE68B16168C4
:1034B00000EB5100B0FBF1F080B2A0F11001B94275
:1034C00001D9012501E02168C860266628466666A4
:1034D000BDE8F08100800040F369FFEF0038014053
:1034E0000010024000440040004800400024F40066
:1034F000FFFC0F002DE9F0479A4617460E4604469A
:103500004FF000094FF02008089D39E0681C37D0C3
:10351000FDF724FAA0EB0A00A84222D80DB32068D8
:10352000016849072CD5C069C043000528D421682B
:103530004FF4006008622068016821F4D0710160D6
:103540002068816821F001018160C4F87480C4F8AA
:103550007880C4F87C8000BF84F870900320BDE8B8
:10356000F0872068016821F4D071016020688168CB
:1035700021F001018160C4F87480C4F87880EBE721
:103580002068C06936EA000004D00020B842BDD0EF
:103590000020E4E70120F9E7FEE73EB5040300F070
:1035A0007DF800F074F84FF40051C81000228DE847
:1035B0000700831021462020FFF702FABDE83E40B5
:1035C00000F065B8FEB516460C46054600F066F8F4
:1035D0004FF08072D112C8108DE8070083100022CE
:1035E00021460220FFF7ECF931462846FFF704FA9E
:1035F000BDE8FE4000F04BB8FEB516460C46054649
:1036000000F045F84FF08072D112C8108DE8070025
:103610008310002221460320FFF7D2F903B0314680
:103620002846BDE8F040FFF7BFB91FB500204FF0B6
:103630008072D1120390C8108DE807008310002219
:1036400011469020FFF7BCF920B9022103A8FFF72B
:10365000ABF910B1002004B010BDBDF80C0040BAA9
:10366000F9E71FB500214FF080738DF80C10DA12C6
:103670008DE80E00531105200A46FFF7A1F901213C
:1036800003A8FFF791F99DF80C0004B010BD10B528
:103690000120FFF7E6FFC007FAD110BD0EB50020EC
:1036A000009001900246014602904FF4807306207C
:1036B000FFF786F9BDE80E40FFF7E9BF2DE9F041BD
:1036C00015460E460746FDF751F8002407E030196D
:1036D0003919D0E900230020FCF7F2FF0834AC428E
:1036E000F5DBBDE8F041FCF7E1BF00000FB4054B8E
:1036F00010B503A9044A029800F028F810BC5DF840
:1037000014FB0000B53B0008300000200907090E3B
:10371000002804DB00F1E02080F80014704700F07E
:103720000F0000F1E02080F8141D704702E008C887
:10373000121F08C1002AFAD170477047002001E02B
:1037400001C1121F002AFBD1704700002DE9FF4F75
:103750008DB00F460546002606E025280BD0DDE992
:103760000F1290476D1C761C28780028F5D111B0F7
:10377000304600F0F3B90024A246A1460122EC49EC
:1037800000E0044315F8013F203B02FA03F0084231
:10379000F7D128782A2810D06FF02F022878A0F1CE
:1037A0003001092914D80AEB8A0102EB410144F0E7
:1037B000020400EB010A6D1CF0E701CF5FEA000A8A
:1037C00003D544F40054CAF1000A44F002046D1C0D
:1037D00028782E2817D115F8010F44F004042A2860
:1037E0000ED06FF02F022878A0F1300109290AD8F5
:1037F00009EB890102EB410100EB01096D1CF2E7C5
:1038000057F8049B6D1C28786C280FD006DC4C28D8
:1038100017D068280DD06A2814D104E0742810D07D
:103820007A280FD10DE044F400140AE044F4801427
:1038300001E044F440146978814202D104F5801417
:103840006D1C6D1C2A786E2A1FD00CDC632A31D0C7
:1038500004DC002A8BD0582A11D1A3E0642A68D056
:10386000692A0CD165E0732A2ED004DC6F2A73D04C
:10387000702A04D19BE0752A6FD0782A6ED010464A
:10388000DDE90F129047761C50E1C4F30250022884
:1038900006D0032809D0042801CF09D0066045E1ED
:1038A00001CFF117C0E9006140E101CF06803DE1A1
:1038B00006703BE117F8040B8DF8000000208DF82E
:1038C0000100EB46012003E057F804BB4FF0FF3046
:1038D00061074FF0000102D40DE008F101018846B4
:1038E00049450FDA8045F8DB1BF808100029F4D1B0
:1038F00008E008F1010188468142FADB1BF8081054
:103900000029F6D1DDE90F23AAEB08008146214604
:1039100000F039F9304400EB080604E0DDE90F124D
:103920001BF8010B9047B8F10108F7D22146484631
:10393000F7E00A21C4F302534FF0000B0891022B69
:1039400004D001CFC117032B09D00AE0FF1D27F0D7
:103950000707F7E8020108E032E01FE020E000B2CC
:10396000C117042B01D140B2C117031E71F100032E
:1039700007DA4FF0000CD0EB0C006CEB01012D23AB
:1039800002E0230504D52B238DF82430012303E026
:10399000E30701D02023F7E7984658E00A2110E01A
:1039A00010210EE010204FF0000B08900CE01021C9
:1039B0004FF0000B44F004044FF00809089103E0B5
:1039C00008214FF0000B0891C4F30253022B04D0DE
:1039D00001CF0021032B06D006E0FF1D27F00707CB
:1039E000F7E8020103E080B2042B00D1C0B24FF02F
:1039F000000823072BD5702A07D0DDF820C08CF0F3
:103A0000100C5CEA0B0C05D00EE040238DF824303E
:103A1000012308E050EA010306D030238DF824305A
:103A20008DF8252002239846DDF820C08CF0080C84
:103A30005CEA0B0C0BD150EA010301D1630706D5F8
:103A400030238DF824304FF00108A9F10109582ADC
:103A500004D038A20B9208AA0A920BE03AA2F9E726
:103A60005B46089AFCF7B2FB0B9B9B5C0A9A521EC2
:103A70000A92137050EA0102F2D10A98ADEB0000ED
:103A800000F1200B600702D524F4803401E04FF0F0
:103A90000109D94502DDA9EB0B0000E0002000EB95
:103AA0000B0141440890AAEB010AE00306D4DDE9CA
:103AB0000F232146504600F066F806444FF00009F7
:103AC00008E009A911F80900DDE90F12904709F192
:103AD0000109761CC145F4DBE0030CD5DDE90F23B9
:103AE0002146504600F04FF8064404E0DDE90F128D
:103AF00030209047761C0899481E08900029F5DC74
:103B000008E00A980A990078491C0A91DDE90F1229
:103B10009047761CBBF10001ABF1010BF1DC2146B3
:103B20005046DDE90F2300F01CF806446D1C1BE62F
:103B30000928010030313233343536373839616283
:103B40006364656600000000303132333435363747
:103B500038394142434445460000000030BCBDE8CE
:103B6000C08F2DE9F041044600251E461746880403
:103B700004D405E039462020B0476D1C641EF9D5F9
:103B80002846BDE8F0812DE9F041044600251E4697
:103B90009046C80301D5302700E02027880404D5CB
:103BA00005E041463846B0476D1C641EF9D52846ED
:103BB000BDE8F08113B54FF6FF7301226946024854
:103BC000FEF73EF81CBD0000E40000200EB5FCF737
:103BD000D3FEFFF7A1FAFEF761FCFEF7D1FCFEF77A
:103BE000F7FCFEF713FDFEF7ABFCC820FCF7D8FC92
:103BF000FEF79AFAFEF73EF94FF6FF742046FEF7FD
:103C00000DF91248802300901A4600213720FEF754
:103C1000DBFB18201F210094CDE901100CA3F0223A
:103C200096210F20FEF7ADFB0DA0FFF75FFDFFF71C
:103C3000FCFC01460FA0FFF759FD41F2883400BF9C
:103C4000FFF7F8F82046FCF7ABFCF9E7603D000809
:103C5000426F6F746C6F616465722056322E300053
:103C600054657374205732355158582E2E2E0D0A34
:103C7000000000006465766963655F6964203D202B
:103C80003078253034580D0A0D0A00002DE9F04136
:103C90008046ADF5806D15460E4613A0FFF726FD54
:103CA0001AA0FFF723FDE90A3046FCF749FB22A0E2
:103CB000FFF71CFD00244FF480670CE008EB842123
:103CC0003A466846FFF798FC06EB84203A46694678
:103CD000FFF7F4FC641CB4EB952FEFD30DF5806D6A
:103CE0000020BDE8F08100003E20726F6C6C6261C4
:103CF000636B20537461727420726F6C6C626163C9
:103D00006B2E2E2E2E2E2E0D0A0000003E20726FDE
:103D10006C6C6261636B20537461727420657261B4
:103D200073652064657320666C6173682E2E2E2E79
:103D30002E2E0D0A000000003E20726F6C6C626136
:103D4000636B2045726173652064657320666C61E6
:103D5000736820646F776E2E2E2E2E2E2E0D0A0085
:103D6000FFFFFFFFFFFFFFFFFFFFFFFFFFFFFFFF63
:103D7000FFFFFFFFFFFFFFFFFFFFFFFFFFFFFFFF53
:103D8000FFFFFFFFFFFFFFFFFFFFFFFFFFFFFFFF43
:103D9000FFFFFFFFFFFFFFFFFFFFFFFFFFFFFFFF33
:104E7000FFDFFFFFFFFFFFFFFFFFFFFFFFFFFFFF62
:104E8000FFFFFFFFFFFFFFFFFFFFFFFFFFFFFFFF32
:104E9000FFFFFFFFFFFFFFFFFFFFFFFFFFFFFFFF22
:104EA000FFFFFFFFFFFFFFFFFFFFFFFFFFFFFFFF12
:104EB000FFFFFFFFFFFFFFFFFFFFFFFFFFFFFFFF02
:10533000FFFFFFFFFFFFFFFFFFFFFFFFFFFFFFDF9D
:10534000FFFFFFFFFFFFFFFFFFFFFFFFFFFFFFFF6D
:10535000FFFFFFFFFFFFFFFFFFFFFFFFFFFFFFFF5D
:10536000FFFFFFFFFFFFFFFFFFFFFFFFFFFFFFFF4D
:10537000FFFFFFFFFFFFFFFFFFFFFFFFFFFFFFFF3D
:10538000FFFFFFFFFFFFFFFFFFFFFFFFFFFFFFFF2D
:10539000FFFFFFFFFFFFFFFFFFFFFFFFFFFFFFFF1D
:1053A000FFFFFFFFFFFFFFFFFFFFFFFFFFFFFFFF0D
:1053B000FFFFFFFFFFFFFFFFFFFFFFFFFFFFFFFFFD
:1053C000FFFFFFFFFFFFFFFFFFFFFFFFFFFFFFFFED
:1053D000FFFFFFFFFFFFFFFFFFFFFFFFFFFFFFFFDD
:1053E000FFFFFFFFFFFFFFFFFFFFFFFFFFFFFFFFCD
:1053F000FFFFFFFFFFFFFFFFFFFFFFFFFFFFFFFFBD
:10540000FFFFFFFFFFFFFFFFFFFFFFFFFFFFFFFFAC
:10541000FFFFFFFFFFFFFFFFFFFFFFFFFFFFFFFF9C
:10542000FFFFFFFFFFFFFFFFFFFFFFFFFFFFFFFF8C
:10543000FFFFFFFFFFFFFFFFFFFFFFFFFFFFFFFF7C
:10544000FFFFFFFFFFFFFFFFFFFFFFFFFFFFFFFF6C
:10545000FFFFFFFFFFFFFFFFFFFFFFFFFFFFFFFF5C
:10546000FFFFFFFFFFFFFFFFFFFFFFFFFFFFFFFF4C
:10547000FFFFFFFFFFFFFFFFFFFFF79EDEFBCE59A1
:10548000CE79CE79CE79CE79CE79CE79CE79CE79E4
:10549000CE79CE79CE79CE79CE79CE79CE79CE79D4
:1054A000CE79CE79CE79CE79CE79CE79CE79CE79C4
:1054B000CE79CE79CE79CE79CE79CE79CE79CE79B4
:1054C000CE79CE79CE79CE79CE79CE79CE79CE79A4
:1054D000CE79CE79CE79CE79CE79CE79CE79CE7994
:1054E000CE79CE79CE79CE79CE79CE79CE79CE7984
:1054F000CE79CE79CE79CE79CE79CE79CE79CE7974
:10550000CE79CE79CE79CE79CE79CE79CE79CE7963
:10551000CE79CE79CE79CE79CE79CE79CE79CE7953
:10552000CE59CE59CE79CE59CE59CE59CE59CE7903
:10553000D679CE79CE79CE79D6BAE73CF7BEFFFFE1
:10554000FFFFFFFFFFFFFFFFFFFFFFFFFFFFFFFF6B
:10555000FFFFFFFFFFFFFFFFFFFFFFFFFFFFFFFF5B
:10556000FFFFFFFFFFFFFFFFFFFFFFFFFFFFFFFF4B
:10557000FFFFFFFFFFFFBDF76B6D41E8318639E7A5
:1055800039C739C739C739C739C739C739C739C71B
:1055900039C739C739C739C739C739C739C739C70B
:1055A00039C739C739C739C739C739C739C739C7FB
:1055B00039C739C739C739C739C739C739C739C7EB
:1055C00039C739C739C739C739C739C739C739C7DB
:1055D00039C739C739C739C739C739C739C739C7CB
:1055E00039C739C739C739C739C739C739C739C7BB
:1055F00039C739C739C739C739C739C739C739C7AB
:1056000039C739C739C739C739C739C739C739C79A
:1056100039C739C739C739C739C739C739C739C78A
:1056200039C739C739C739C739C739C739C739C77A
:1056300039C739A739C741E739C739C74A49630B61
:10564000B596F79EFFFFFFFFFFDFFFFFF79EFFFF0F
:10565000FFFFFFFFFFFFFFFFFFFFFFFFFFFFFFFF5A
:10566000FFFFFFFFFFFFFFFFFFFFFFFFFFFFFFFF4A
:10567000FFFFEF3C9CF3526A31A739C731C739E8C5
:1056800039E839C839C839C839C839C839C839C8F2
:1056900039C839C839C839C839C839C839C839C802
:1056A00039C839C839C839C839C839C839C839C8F2
:1056B00039C839C839C839C839C839C839C839C8E2
:1056C00039C839C839C839C839C839C839C839C8D2
:1056D00039C839C839C839C839C839C839C839C8C2
:1056E00039C839C839C839C839C839C839C839C8B2
:1056F00039C839C839C839C839C839C839C839C8A2
:1057000039C839C839C839C839C839C839C839C891
:1057100039C839C839C839C839C839C839C839C881
:1057200039C839C839C839C839C839C839C839C871
:1057300039C839C739C739E739C731A739C7422806
:1057400042298C71EF5DFFFFFFFFFFFFFFFFFFFFAF
:10575000FFFFFFFFFFFFFFFFFFFFFFFFFFFFFFFF59
:10576000FFFFFFFFFFFFFFFFFFFFFFFFFFFFFFFF49
:10577000FFDF9CB24208294531A739E931E83A09EF
:1057800031C831C831C931C831C931C831C931C84E
:1057900031C931C831C931C831C931C831C931C83D
:1057A00031C931C831C931C831C931C831C931C82D
:1057B00031C931C831C931C831C931C831C931C81D
:1057C00031C931C831C931C831C931C831C931C80D
:1057D00031C931C831C931C831C931C831C931C8FD
:1057E00031C931C831C931C831C931C831C931C8ED
:1057F00031C931C831C931C831C931C831C931C8DD
:1058000031C931C831C931C831C931C831C931C8CC
:1058100031C931C831C931C831C931C831C931C8BC
:1058200031C931C831C931C831C931C831C931C8AC
:1058300031E831C831C831E831E931E831C831C81F
:1058400029454228A534FFFFFFFFFFFFFFFFFFFFB1
:10585000FFFFFFFFFFFFFFFFFFFFFFFFFFFFFFFF58
:10586000FFFFFFFFFFFFFFFFFFFFFFFFFFFFFFFF48
:10587000C6174A69212542293A2931C829C929C9A7
:1058800029CA29EA29EA29EA29EA29EA29EA29EAA0
:1058900029EA29EA29EA29EA29EA29EA29EA29EA70
:1058A00029EA29EA29EA29EA29EA29EA29EA29EA60
:1058B00029EA29EA29EA29EA29EA29EA29EA29EA50
:1058C00029EA29EA29EA29EA29EA29EA29EA29EA40
:1058D00029EA29EA29EA29EA29EA29EA29EA29EA30
:1058E00029EA29EA29EA29EA29EA29EA29EA29EA20
:1058F00029EA29EA29EA29EA29EA29EA29EA29EA10
:1059000029EA29EA29EA29EA29EA29EA29EA29EAFF
:1059100029EA29EA29EA29EA29EA29EA29EA29EAEF
:1059200029EA29EA29CA29EA29CA29EA29CA29EA3F
:1059300029E929E929C929E929E929EA29EA31E9ED
:105940003A0929655ACBCE59FFFFFFFFFFFFFFFF42
:10595000FFFFFFFFFFFFFFFFFFFFFFFFFFFFFFFF57
:10596000FFFFFFFFFFFFFFFFFFFFFFFFFFFFFFFF47
:105970008C71420831A7422A29A821A929EB21CA02
:1059800021EB21EB21EB21EB21EB21EB21EB21EBB7
:1059900021EB21EB21EB21EB21EB21EB21EB21EBA7
:1059A00021EB21EB21EB21EB21EB21EB21EB21EB97
:1059B00021EB21EB21EB21EB21EB21EB21EB21EB87
:1059C00021EB21EB21EB21EB21EB21EB21EB21EB77
:1059D00021EB21EB21EB21EB21EB21EB21EB21EB67
:1059E00021EB21EB21EB21EB21EB21EB21EB21EB57
:1059F00021EB21EB21EB21EB21EB21EB21EB21EB47
:105A000021EB21EB21EB21EB21EB21EB21EB21EB36
:105A100021EB21EB21EB21EB21EB21EB21EB21EB26
:105A200021EB21EB21CB21EB21CB21EB21CB21EB76
:105A300021CA21EB21EB21CA21CA21EA21EB29CA83
:105A40003A0931A631868C72FFFFFFFFFFFFFFFF8F
:105A5000FFFFFFFFFFFFFFFFFFFFFFFFFFFFFFFF56
:105A6000FFFFFFFFFFFFFFFFFFFFFFFFFFFFFFFF46
:105A70006B2C422831E831E921A921CA21EB220C03
:105A800019EC19EC19EC19EC19EC19EC19EC19ECEE
:105A900019EC19EC19EC19EC19EC19EC19EC19ECDE
:105AA00019EC19EC19EC19EC19EC19EC19EC19ECCE
:105AB00019EC19EC19EC19EC19EC19EC19EC19ECBE
:105AC00019EC19EC19EC19EC19EC19EC19EC19ECAE
:105AD00019EC19EC19EC19EC19EC19EC19EC19EC9E
:105AE00019EC19EC19EC19EC19EC19EC19EC19EC8E
:105AF00019EC19EC19EC19EC19EC19EC19EC19EC7E
:105B000019EC19EC19EC19EC19EC19EC19EC19EC6D
:105B100019EC19EC19EC19EC19EC19EC19EC19EC5D
:105B200019EC19EC19EC19EC19EC19EC19EC19EC4D
:105B300019CB19EB21EC19EB19CB19CB19EB21EA95
:105B400031C8422931A6632DFFFFFFFFFFFFFFFF92
:105B5000FFFFFFFFFFFFFFFFFFFFFFFFFFFFFFFF55
:105B6000FFFFFFFFFFFFFFFFFFFFFFFFFFFFFFFF45
:105B7000422831C731C829C929EA21EB19CB1A0DAE
:105B800019EC19EC19EC19EC19EC19EC19EC19ECED
:105B900019EC19EC19EC19EC19EC19EC19EC19ECDD
:105BA00019EC19EC19EC19EC19EC19EC19EC19ECCD
:105BB00019EC19EC19EC19EC19EC19EC19EC19ECBD
:105BC00019EC19EC19EC19EC19EC19EC19EC19ECAD
:105BD00019EC19EC19EC19EC19EC19EC19EC19EC9D
:105BE00019EC19EC19EC19EC19EC19EC19EC19EC8D
:105BF00019EC19EC19EC19EC19EC19EC19EC19EC7D
:105C000019EC19EC19EC19EC19EC19EC19EC19EC6C
:105C100019EC19EC19EC19EC19EC19EC19EC19EC5C
:105C200019EC19EC19EC19EC19EC19EC19EC19EC4C
:105C300019CB19EC19EC1A0C1A0C19EC19EC220BF3
:105C40002987420831864229D6BAF7BEFFFFFFFFF7
:105C5000FFFFFFFFFFFFFFFFFFFFFFFFFFFFFFFF54
:105C6000FFFFFFFFFFFFFFFFFFFFFFFFFFFFFFFF44
:105C700039E731C73A0931EA21CA220C1A0D11CC91
:105C800019EC19EC19EC19EC19EC19EC19EC19ECEC
:105C900019EC19EC19EC19EC19EC19EC19EC19ECDC
:105CA00019EC19EC19EC19EC19EC19EC19EC19ECCC
:105CB00019EC19EC19EC19EC19EC19EC19EC19ECBC
:105CC00019EC19EC19EC19EC19EC19EC19EC19ECAC
:105CD00019EC19EC19EC19EC19EC19ED19ED19ED99
:105CE00019EC19EC19EC19EC19EC19EC19EC19EC8C
:105CF00019EC19EC19EC19EC19EC19EC19EC19EC7C
:105D000019EC19EC19EC19EC19EC19EC19EC19EC6B
:105D100019EC19EC19EC19EC19EC19EC19EC19EC5B
:105D200019EC19EC19EC19EC19EC19EC19EC19EC4B
:105D30001A0C19EC19EC19EC19EC19EC19EC21EB13
:105D400031E939E839E73A08A555C638E75DFFFF7C
:105D5000FFFFFFFFFFFFFFFFFFFFFFFFFFFFFFFF53
:105D6000FFFFFFFFFFFFFFFFFFFFFFFFFFFFFFFF43
:105D700039C739C731E829E921EB19EC19EC19ECDD
:105D800019EC19EC19EC19EC19EC19EC19EC19ECEB
:105D900019EC19EC19EC19EC19EC19EC19EC19ECDB
:105DA00019EC19EC19EC19EC19EC19EC19EC19ECCB
:105DB00019EC19EC19EC19EC19EC19EC19EC19ECBB
:105DC00019EC19EC19EC19EC19EC19EC19EC19ECAB
:105DD00019EC19EB21EC19CC220D222E11CC19ED66
:105DE00011CC19EC19ED19EC19EC220C19EC21EC81
:105DF00019ED19ED19ED19EC19EC19EC19EC19EC78
:105E000019EC19EC19EC19EC19EC19EC19EC19EC6A
:105E100019EC19EC19EC19EC19EC19EC19EC19EC5A
:105E200019EC19EC19EC19EC19EC19EC19EC19EC4A
:105E300019EC19EC19EC19EC19EC19EC19EC21EB33
:105E400029E931C839C739E8ADD7ADD8BE39EFBF78
:105E5000FFFFFFFFFFFFFFFFFFFFFFFFFFFFFFFF52
:105E6000FFFFFFFFFFFFFFFFFFFFFFFFFFFFFFFF42
:105E700039C739C731C829E921EB19EC19EC19ECFC
:105E800019EC19EC19EC19EC19EC19EC19EC19ECEA
:105E900019EC19EC19EC19EC19EC19EC19EC19ECDA
:105EA00019EC19EC19EC19EC19EC19EC19EC19ECCA
:105EB00019EC19EC19EC19EC19EC19EC19EC19ECBA
:105EC00019EC19EC19EC19EC19EC19EC19EC19ECAA
:105ED000220C11AA21EC220D11AC11CC1A0D222D8D
:105EE000220D220D11CC1A2D1A0C11CB220C19CB1C
:105EF00019ED19ED19ED19EC19EC19EC19EC19EC77
:105F000019EC19EC19EC19EC19EC19EC19EC19EC69
:105F100019EC19EC19EC19EC19EC19EC19EC19EC59
:105F200019EC19EC19EC19EC19EC19EC19EC19EC49
:105F300019EC19EC19EC19EC19EC19EC19EC21EB32
:105F400029C931E839C739E8ADB7A5B8ADF8DF1DC3
:105F5000FFFFFFFFFFFFFFFFFFFFFFFFFFFFFFFF51
:105F6000FFFFFFFFFFFFFFFFFFFFFFFFFFFFFFFF41
:105F700039C739C731C829E921EB19EC19EC19ECFB
:105F800019EC19EC19EC19EC19EC19EC19EC19ECE9
:105F900019EC19EC19EC19EC19EC19EC19EC19ECD9
:105FA00019EC19EC19EC19EC19EC19EC19EC19ECC9
:105FB00019EC19EC19EC19EC19EC19EC19EC19ECB9
:105FC00019EC19EC19EC19EC19EC19EC19ED19ECA8
:105FD00019EC1A0C19EC11CC19CC1A0D19EC116A28
:105FE000118A220C1A0D11EC1A0C1A0C222D19EC24
:105FF00019EC19ED19ED19EC19EC19EC19EC19EC77
:1060000019EC19EC19EC19EC19EC19EC19EC19EC68
:1060100019EC19EC19EC19EC19EC19EC19EC19EC58
:1060200019EC19EC19EC19EC19EC19EC19EC19EC48
:1060300019EC19EC19EC19EC19EC19EC19EC21EB31
:1060400029C931E839C739E7ADB7A5B8A5B7C67AC8
:10605000FFFFFFFFFFFFFFFFFFFFFFFFFFFFFFFF50
:10606000FFFFFFFFFFFFFFFFFFFFFFFFFFFFFFFF40
:1060700039C739C731C829E921EB19EC19EC19ECFA
:1060800019EC19EC19EC19EC19EC19EC19EC19ECE8
:1060900019EC19EC19EC19EC19EC19EC19EC19ECD8
:1060A00019EC19EC19EC19EC19EC19EC19EC19ECC8
:1060B00019EC19EC19EC19EC19EC19EC19EC19ECB8
:1060C00019EC19EC19EC19EC19EC19EC19ED19ECA7
:1060D00011CB224D11CC11CB2A2D21CB21A93A4C29
:1060E0003A2C196919CB11CB19EC1A0C19EC19ECD3
:1060F00019EC19ED19EC19EC19EC19EC19EC19EC77
:1061000019EC19EC19EC19EC19EC19EC19EC19EC67
:1061100019EC19EC19EC19EC19EC19EC19EC19EC57
:1061200019EC19EC19EC19EC19EC19EC19EC19EC47
:1061300019EC19EC19EC19EC19EC19EC19EC21EB30
:1061400029C931E839C739E7ADD8ADF8A597B618F0
:10615000FFFFFFFFFFFFFFFFFFFFFFFFFFFFFFFF4F
:10616000FFFFFFFFFFFFFFFFFFFFFFFFFFFFFFFF3F
:1061700039C739C731C829E921EB19EC19EC19ECF9
:1061800019EC19EC19EC19EC19EC19EC19EC19ECE7
:1061900019EC19EC19EC19EC19EC19EC19EC19ECD7
:1061A00019EC19EC19EC19EC19EC19EC19EC19ECC7
:1061B00019EC19EC19EC19EC19EC19EC19EC19ECB7
:1061C00019EC19EC19EC19EC19EC19EC19ED19EDA5
:1061D0001A0C11EC19EC220C21CB29895A8C9CB495
:1061E0009C944A4B29AA220C222D09AB11EC19ECE4
:1061F00019ED19ED19EC19EC19EC19EC19ED19EC74
:1062000019EC19EC19EC19EC19EC19EC19EC19EC66
:1062100019EC19EC19EC19EC19EC19EC19EC19EC56
:1062200019EC19EC19EC19EC19EC19EC19EC19EC46
:1062300019EC19EC19EC19EC19EC19EC19EC21EB2F
:1062400029E931E939C731C7ADD8AE19A5B7ADD8FD
:10625000FFFFFFFFFFFFFFFFFFFFFFFFFFFFFFFF4E
:10626000FFFFFFFFFFFFFFFFFFFFFFFFFFFFFFFF3E
:1062700039C739C731C829E921EB19EC19EC19ECF8
:1062800019EC19EC19EC19EC19EC19EC19EC19ECE6
:1062900019EC19EC19EC19EC19EC19EC19EC19ECD6
:1062A00019EC19EC19EC19EC19EC19EC19EC19ECC6
:1062B00019EC19EC19EC19EC19EC19EC19EC19ECB6
:1062C00019EC19EC19EC19EC19EC19EC19EC19ECA6
:1062D0001A0D11AB222D198A29897B70B493B452FF
:1062E000BCD3C55673702189220C11CB222D11EC21
:1062F00019ED19ED19EC19EC19EC19EC19EC19EC74
:1063000019EC19EC19EC19EC19EC19EC19EC19EC65
:1063100019EC19EC19EC19EC19EC19EC19EC19EC55
:1063200019EC19EC19EC19EC19EC19EC19EC19EC45
:1063300019EC19EC19EC19EC19EC19EC19EC21EB2E
:1063400029EA31E939C731C7ADB7ADF9A597ADB77E
:10635000FFFFFFFFFFFFFFFFFFFFFFFFFFFFFFFF4D
:10636000FFFFFFFFFFFFFFFFFFFFFFFFFFFFFFFF3D
:1063700039C739C731C829E921EB19EC19EC19ECF7
:1063800019EC19EC19EC19EC19EC19EC19EC19ECE5
:1063900019EC19EC19EC19EC19EC19EC19EC19ECD5
:1063A00019EC19EC19EC19EC19EC19EC19EC19ECC5
:1063B00019EC19EC19EC19EC19EC19EC19EC19ECB5
:1063C00019EC19EC19EC19EC19EC19EC19EC19ECA5
:1063D00019EC19EC2A0C21486ACEDD97CC729AAAE6
:1063E000A30CE596D5B84A2B21AA19EC220D11CCA5
:1063F00019ED19ED19EC19EC19EC19EC19EC19EC73
:1064000019EC19EC19EC19EC19EC19EC19EC19EC64
:1064100019EC19EC19EC19EC19EC19EC19EC19EC54
:1064200019EC19EC19EC19EC19EC19EC19EC19EC44
:1064300019EC19EC19EC19EC19EC19EC19EC21EB2D
:1064400029E931E839C731C7A5B7ADF8A597ADB788
:10645000FFFFFFFFFFFFFFFFFFFFFFFFFFFFFFFF4C
:10646000FFFFFFFFFFFFFFFFFFFFFFFFFFFFFFFF3C
:1064700039C739C731C829E921EB19EC19EC19ECF6
:1064800019EC19EC19EC19EC19EC19EC19EC19ECE4
:1064900019EC19EC19EC19EC19EC19EC19EC19ECD4
:1064A00019EC19EC19EC19EC19EC19EC19EC19ECC4
:1064B00019EC19EC19EC19EC19EC19EC19EC19ECB4
:1064C00019EC19EC19EC19EC19EC19EC19EC19ECA4
:1064D0001A0C19CB21AA420BBD16ED97A2AABB2B11
:1064E000B2EAA2EAFEDBACD531EA21CB19ED1A0DF6
:1064F00019ED19EC19EC19EC19EC19EC19EC19EC73
:1065000019EC19EC19EC19EC19EC19EC19EC19EC63
:1065100019EC19EC19EC19EC19EC19EC19EC19EC53
:1065200019EC19EC19EC19EC19EC19EC19EC19EC43
:1065300019EC19EC19EC19EC19EC19EC19EC21EB2C
:1065400029C931C839E839E8ADB7ADF8A5B7ADD735
:10655000FFFFFFFFFFFFFFFFFFFFFFFFFFFFFFFF4B
:10656000FFFFFFFFFFFFFFFFFFFFFFFFFFFFFFFF3B
:1065700039C739C731C829E921EB19EC19EC19ECF5
:1065800019EC19EC19EC19EC19EC19EC19EC19ECE3
:1065900019EC19EC19EC19EC19EC19EC19EC19ECD3
:1065A00019EC19EC19EC19EC19EC19EC19EC19ECC3
:1065B00019EC19EC19EC19EC19EC19EC19EC19ECB3
:1065C00019EC19EC19EC19EC19EC19EC19EC19ECA3
:1065D00019EC220C218A73B0F6BBB3AFB30BBB0A24
:1065E000B2C9BB6CBC71F71D4A8C198A220C19EC1C
:1065F00019EC19EC19EC19EC19EC19EC19EC19EC73
:1066000019EC19EC19EC19EC19EC19EC19EC19EC62
:1066100019EC19EC19EC19EC19EC19EC19EC19EC52
:1066200019EC19EC19EC19EC19EC19EC19EC19EC42
:1066300019EC19EC19EC19EC19EC19EC19EC21EB2B
:1066400029EA31E839E831C7ADD8A5D8ADD8ADD7FA
:10665000FFFFFFFFFFFFFFFFFFFFFFFFFFFFFFFF4A
:10666000FFFFFFFFFFFFFFFFFFFFFFFFFFFFFFFF3A
:1066700039C739C731C829E921EB19EC19EC19ECF4
:1066800019EC19EC19EC19EC19EC19EC19EC19ECE2
:1066900019EC19EC19EC19EC19EC19EC19EC19ECD2
:1066A00019EC19EC19EC19EC19EC19EC19EC19ECC2
:1066B00019EC19EC19EC19EC19EC19EC19EC19ECB2
:1066C00019EC19EC19EC19EC19EC19EC19EC19ECA2
:1066D000220C19CB29EAB577D5B78ACAAB2BAAC940
:1066E000AAEAA2EA9B6DE67A8C742A0B19EC19ECE3
:1066F00019EC19EC19EC19EC19EC19EC19EC19EC72
:1067000019EC19EC19EC19EC19EC19EC19EC19EC61
:1067100019EC19EC19EC19EC19EC19EC19EC19EC51
:1067200019EC19EC19EC19EC19EC19EC19EC19EC41
:1067300019EC19EC19EC19EC19EC19EC19EC21EB2A
:1067400029EA31E839E831C7ADD8A5D8ADD8ADD7F9
:10675000FFFFFFFFFFFFFFFFFFFFFFFFFFFFFFFF49
:10676000FFFFFFFFFFFFFFFFFFFFFFFFFFFFFFFF39
:1067700039C739C731C829E921EB19EC19EC19ECF3
:1067800019EC19EC19EC19EC19EC19EC19EC19ECE1
:1067900019EC19EC19EC19EC19EC19EC19EC19ECD1
:1067A00019EC19EC19EC19EC19EC19EC19EC19ECC1
:1067B00019EC19EC19EC19EC19EC19EC19EC19ECB1
:1067C00019EC19EC19EC19EC19EC19EC19EC19ECA1
:1067D00019EC19CB4AEEDF1DCDF7B4B2CD13CCB115
:1067E000D513CCD2B4B2DE7ACEBC324C19AA1A0C74
:1067F00019EC19EC19EC19EC19EC19EC19EC19EC71
:1068000019EC19EC19EC19EC19EC19EC19EC19EC60
:1068100019EC19EC19EC19EC19EC19EC19EC19EC50
:1068200019EC19EC19EC19EC19EC19EC19EC19EC40
:1068300019EC19EC19EC19EC19EC19EC19EC21EB29
:1068400029EA31E839E831C7ADD8A5D8ADD8ADD7F8
:10685000FFFFFFFFFFFFFFFFFFFFFFFFFFFFFFFF48
:10686000FFFFFFFFFFFFFFFFFFFFFFFFFFFFFFFF38
:1068700039C739C731C829E921EB19EC19EC19ECF2
:1068800019EC19EC19EC19EC19EC19EC19EC19ECE0
:1068900019EC19EC19EC19EC19EC19EC19EC19ECD0
:1068A00019EC19EC19EC19EC19EC19EC19EC19ECC0
:1068B00019EC19EC19EC19EC19EC19EC19EC19ECB0
:1068C00019EC19EC19EC19EC19EC19EC19EC19ECA0
:1068D00019CC21EB7C94EFBFEF5DFFBDF71BFF5C94
:1068E000FF3CFF5DFF5DEF5DF7FF3A8C19CA1A0CA4
:1068F00019EC19EC19EC19EC19EC19EC19EC19EC70
:1069000019EC19EC19EC19EC19EC19EC19EC19EC5F
:1069100019EC19EC19EC19EC19EC19EC19EC19EC4F
:1069200019EC19EC19EC19EC19EC19EC19EC19EC3F
:1069300019EC19EC19EC19EC19EC19EC19EC21EB28
:1069400029EA31E839E831C7ADD8A5D8ADD8ADD7F7
:10695000FFFFFFFFFFFFFFFFFFFFFFFFFFFFFFFF47
:10696000FFFFFFFFFFFFFFFFFFFFFFFFFFFFFFFF37
:1069700039C739C731C829E921EB19EC19EC19ECF1
:1069800019EC19EC19EC19EC19EC19EC19EC19ECDF
:1069900019EC19EC19EC19EC19EC19EC19EC19ECCF
:1069A00019EC19EC19EC19EC19EC19EC19EC19ECBF
:1069B00019EC19EC19EC19EC19EC19EC19EC19ECAF
:1069C00019EC19EC19EC19EC19EC19EC19EC19EC9F
:1069D000222D19AAADD9EFDFF7BEFFFFEF7DFFDF54
:1069E000F77EF79EFFFFEF7EF7FF5BB0220B19CB20
:1069F00019EC19EC19EC19EC19EC19EC19EC19EC6F
:106A000019EC19EC19EC19EC19EC19EC19EC19EC5E
:106A100019EC19EC19EC19EC19EC19EC19EC19EC4E
:106A200019EC19EC19EC19EC19EC19EC19EC19EC3E
:106A300019EC19EC19EC19EC19EC19EC19EC21EB27
:106A400029EA31E839E831C7ADD8A5D8ADD8ADD7F6
:106A5000FFFFFFFFFFFFFFFFFFFFFFFFFFFFFFFF46
:106A6000FFFFFFFFFFFFFFFFFFFFFFFFFFFFFFFF36
:106A700039C739C731C829E921EB19EC19EC19ECF0
:106A800019EC19EC19EC19EC19EC19EC19EC19ECDE
:106A900019EC19EC19EC19EC19EC19EC19EC19ECCE
:106AA00019EC19EC19EC19EC19EC19EC19EC19ECBE
:106AB00019EC19EC19EC19EC19EC19EC19EC19ECAE
:106AC00019EC19EC19EC19EC19EC19EC19EC19EC9E
:106AD00021EC21CACEFDF7FFE75CEF9DF7FFE79FB2
:106AE000F7FFEF9EF7DFE75DF7FF9D772A4C19CBA5
:106AF00019EC19EC19EC19EC19EC19EC19EC19EC6E
:106B000019EC19EC19EC19EC19EC19EC19EC19EC5D
:106B100019EC19EC19EC19EC19EC19EC19EC19EC4D
:106B200019EC19EC19EC19EC19EC19EC19EC19EC3D
:106B300019EC19EC19EC19EC19EC19EC19EC21EB26
:106B400029EA31E839E831C7ADD8A5D8ADD8ADD7F5
:106B5000FFFFFFFFFFFFFFFFFFFFFFFFFFFFFFFF45
:106B6000FFFFFFFFFFFFFFFFFFFFFFFFFFFFFFFF35
:106B700039C739C731C829E921EB19EC19EC19ECEF
:106B800019EC19EC19EC19EC19EC19EC19EC19ECDD
:106B900019EC19EC19EC19EC19EC19EC19EC19ECCD
:106BA00019EC19EC19EC19EC19EC19EC19EC19ECBD
:106BB00019EC19EC19EC19EC19EC19EC19EC19ECAD
:106BC00019EC19EC19EC19EC19EC19EC19EC19EC9D
:106BD00019AA320BEF9FF7BFEFBEF7FFD6FDADD876
:106BE000C69BDF3DF7FFF7BEF7DFCF1D220A21EC82
:106BF00019EC19EC19EC19EC19EC19EC21EC21EC5D
:106C000019EC19EC19EC19EC19EC19EC19EC19EC5C
:106C100019EC19EC19EC19EC19EC19EC19EC19EC4C
:106C200019EC19EC19EC19EC19EC19EC19EC19EC3C
:106C300019EC19EC19EC19EC19EC19EC19EC21EB25
:106C400029EA31E839E831C7ADD8A5D8ADD8ADD7F4
:106C5000FFFFFFFFFFFFFFFFFFFFFFFFFFFFFFFF44
:106C6000FFFFFFFFFFFFFFFFFFFFFFFFFFFFFFFF34
:106C700039C739C731E829E921EB19EC19EC19ECCE
:106C800019EC19EC19EC19EC19EC19EC19EC19ECDC
:106C900019EC19EC19EC19EC19EC19EC19EC19ECCC
:106CA00019EC19EC19EC19EC19EC19EC19EC19ECBC
:106CB00019EC19EC19EC19EC19EC19EC19EC19ECAC
:106CC00019EC19EC19EC19EC19EC1A0C19EC19EC7B
:106CD00021CB324CEF9FE77DFFFFE75D3A6B21A9A7
:106CE000218884B3DF5DF7DFEF9EEFFF1989220C67
:106CF00019EC19ED19ED19EC19EC19EC21EC21EC5A
:106D000019EC19EC19EC19EC19EC19EC19EC19EC5B
:106D100019EC19EC19EC19EC19EC19EC19EC19EC4B
:106D200019EC19EC19EC19EC19EC19EC19EC19EC3B
:106D300019EC19EC19EC19EC19EC19EC19EC21EB24
:106D400029EA31E839E831C7ADD8ADB8ADD8ADB82A
:106D5000FFFFFFFFFFFFFFFFFFFFFFFFFFFFFFFF43
:106D6000FFFFFFFFFFFFFFFFFFFFFFFFFFFFFFFF33
:106D700039C639C731E829E921EB19EC19EC19ECCE
:106D800019EC19EC19EC19EC19EC19EC19EC19ECDB
:106D900019EC19EC19EC19EC19EC19EC19EC19ECCB
:106DA00019EC19EC19EC19EC19EC19EC19EC19ECBB
:106DB00019EC19EC19EC19EC19EC19EC19EC19ECAB
:106DC00019ED19ED19EC19EC19EC19EC19EC19EC99
:106DD00021CB5B50E77EEFDFE77DADB719682A0B6B
:106DE00021CA21A9DF5EEFBEEFBEF7FF21A921EC8A
:106DF00019ED19ED19ED19EC1A0C19EC19CD21CD7D
:106E000019EC19EC19EC19EC19EC19EC19EC19EC5A
:106E100019EC19EC19EC19EC19EC19EC19EC19EC4A
:106E200019ED19ED19EC19EC19EC19EC19EC1A0C17
:106E300019EC19EC19EC19EC19EC19EC21EC21CB3B
:106E400029EA31C839E831C7B5B8ADB8ADD8ADD841
:106E5000FFFFFFFFFFFFFFFFFFFFFFFFFFFFFFFF42
:106E6000FFFFFFFFFFFFFFFFFFFFFFFFFFFFFFFF32
:106E700039C639C731E829E921EC19EC19EC19ECCC
:106E800019EC19EC19EC19EC19EC19EC19EC19ECDA
:106E900019EC19EC19EC19EC19EC19EC19EC19ECCA
:106EA00019EC19EC19EC19EC19EC19EC19EC19ECBA
:106EB00019EC19EC19EC19EC19EC19EC19EC19ECAA
:106EC00019EC19EC19EC19EC19EC19EC19EC19EC9A
:106ED00021EB6BF2EFBFF7FFF7DFC69B326B116858
:106EE00021893A4BDF3DEFDFF7DFF7FF29EA19CBC6
:106EF00019ED19ED19ED19EC19EC19EC19ED19CD85
:106F000019EC19EC19EC19EC19EC19EC19EC19EC59
:106F100019EC19EC19EC19EC19EC19EC19EC19EC49
:106F200019ED19ED19ED19ED19EC19EC19EC19EC35
:106F300019EC19EC19EC19EC19EC21EC21EC21CB32
:106F400029EA31C839E831C7B5B8ADB8ADD9ADD83F
:106F5000FFFFFFFFFFFFFFFFFFFFFFFFFFFFFFFF41
:106F6000FFFFFFFFFFFFFFFFFFFFFFFFFFFFFFFF31
:106F700039C739C731E829E921EB19EC19EC19ECCB
:106F800019EC19EC19EC19EC19EC19EC19EC19ECD9
:106F900019EC19EC19EC19EC19EC19EC19EC19ECC9
:106FA00019EC19EC19EC19EC19EC19EC19EC19ECB9
:106FB00019EC19EC19EC19EC19EC19EC19EC19ECA9
:106FC00019EC19EC19EC19EC19EC19EC19EC19EC99
:106FD000220B8CD5EF9FEF9EEF9EDF3C7C734AED3A
:106FE0006BF194D4EF9EF7BEF7DFF7DF3A8D19CB44
:106FF00019ED19ED19EC19EC19EC19EC19EC19EC67
:1070000019EC19EC19EC19EC19EC19EC19EC19EC58
:1070100019EC19EC19EC19EC19EC19EC19EC19EC48
:1070200019EC19EC19ED19ED19ED19ED19ED19EC33
:1070300019EC19EC19EC19ED21CD21CC21CC21CB87
:1070400031EA31C839E831C7B5B8ADB8ADD8ADD837
:10705000FFFFFFFFFFFFFFFFFFFFFFFFFFFFFFFF40
:10706000FFFEFFFFFFFFFFFFFFFFFFFFFFFFFFFF31
:1070700039C739C731E829E921EB19EC19EB19EBCC
:1070800019EC19EC19EC19EC19EC19EC19EC19ECD8
:1070900019EC19EC19EC19EC19EC19EC19EC19ECC8
:1070A00019EC19EC19EC19EC19EC19EC19EC19ECB8
:1070B00019EC19EC19EC19EC19EC19EC19EC19ECA8
:1070C00019EC19EC19EC19EC19EC19EC19EC19EC98
:1070D00021EB9D98EF9FF79EFFFEFFFFEFBFDF5E66
:1070E000DF1DEF7FF7DFF79EF7BEF7DF5B9021EB49
:1070F00019EC19ED19EC19EC19EB19EB19EC19EC69
:1071000019EC19EC19EC19EC19EC19EC19EC19EC57
:1071100019EC19EC19EC19EC19EC19EC19EC19EC47
:1071200019EC19EC19ED19ED19CD19CD19ED19EC72
:1071300019EC19EC19EC19EC19EC21EC21EC21CB30
:1071400031EA31C839E831C7ADD8ADB8ADD8ADD81E
:10715000FFFFFFFFFFFFFFFFFFFFFFFFFFFFFFFF3F
:10716000FFFFFFFFFFFFFFFFFFFFFFFFFFFFFFFF2F
:1071700039C639C731E829E921EB19EB19EC19ECCB
:1071800019EC19EC19EC19EC19EC19EC19EC19ECD7
:1071900019EC19EC19EC19EC19EC19EC19EC19ECC7
:1071A00019EC19EC19EC19EC19EC19EC19EC19ECB7
:1071B00019EC19EC19EC19EC19EC19EC19EC19ECA7
:1071C00019EB19EB19EC19EC19EC19EC19EC19EC99
:1071D00021CBB61AF7BFEF9DEF7DEF7CEFBEF7FF37
:1071E000F7DFFFFFF79DF79DF79EF7FF6C1319EB95
:1071F00019EC19ED19ED19EC19EC19EB19EB19EC67
:1072000019EC19EC19EC19EC19EC19EC19EC19EC56
:1072100019EC19EC19EC19EC19EC19EC19EC19EC46
:1072200019EB19EB19EC19ED19ED19ED19EC19EC35
:1072300019EB19EC19EC19EC19EC19EC19EB21EB21
:1072400029EA31C839E831C7ADD8ADB8ADD8ADD726
:10725000FFFFFFFFFFFFFFFFFFFFFFFFFFFFFFFF3E
:10726000FFFFFFFFFFFFFFFFFFFFFFFFFFFFFFFF2E
:1072700039C639C731E829E921EB21EC19EC19ECC1
:1072800019EC19EC19EC19EC19EC19EC19EC19ECD6
:1072900019EC19EC19EC19EC19EC19EC19EC19ECC6
:1072A00019EC19EC19EC19EC19EC19EC19EC19ECB6
:1072B00019EC19EC19EC19EC19EC19EC19EC19ECA6
:1072C00019EC19EC19EC19EC19ED19EC19EC21EB8E
:1072D00021CAB5FAF7DFF79EF7BDF79DEFBEEFBE07
:1072E000EF9EF79EEF7DF7BEEF9EF7FF6BF221EB6F
:1072F00019EC19ED19ED19EC19EC19EC19EB19EC65
:1073000019EC19EC19EC19EC19EC19EC19EC19EC55
:1073100019EC19EC19EC19EC19EC19EC19EC19EC45
:1073200019EC19EC19EC19EC19EC19EC19EC19EC35
:1073300019EC19EC19EC19EC19EC19EC19EB21EB1F
:1073400031E931C839E831C8ADD8ADB8ADD8ADD71D
:10735000FFFFFFFFFFFFFFFFFFFFFFFFFFFFFFFF3D
:10736000FFFFFFFFFFFFFFFFFFFFFFFFFFFFFFFF2D
:1073700039C639C739C831E929CB21EC19ED19EDE6
:1073800019ED19ED19ED19EC19EC19EC19EC19ECD2
:1073900019EC19EC19EC19EC19EC19EC19EC19ECC5
:1073A00019EC19EC19EC19EC19EC19EC19EC19ECB5
:1073B00019EC19EC19EC19EC19EC19EC19EC19ECA5
:1073C00019EC19EC19ED19ED19ED19EC21EB21CBA4
:1073D00029CA9D36EF9FF7BEEFBDF7DEF7BEF7BEB9
:1073E000F7BEEF9DF7BEF7DEEF9EF7FF532F21EBC1
:1073F00021EC19EC19ED19ED19EC19EC19EC19EC5B
:1074000019EC19EC19EC19EC19EC19EC19EC19EC54
:1074100019EC19EC19EC19EC19EC19EC19EC19EC44
:1074200019EC19EC19EC19EC19EC19EC19EC19EC34
:1074300019EC19ED19ED19ED19ED19EC19EC21EB19
:1074400031E931C839E831C8ADD8ADB8ADD8ADD71C
:10745000FFFFFFFFFFFFFFFFFFFFFFFFFFFFFFFF3C
:10746000FFFFFFFFFFFFFFFFFFFFFFFFFFFFFFFF2C
:1074700039C739C739C831E829EA21CB21EC19EDE0
:1074800019EC19EC19ED19ED19EC19EC19EC19ECD2
:1074900019EC19EC19EC19EC19EC19EC19EC19ECC4
:1074A00019EC19EC19EC19EC19EC19EC19EC19ECB4
:1074B00019EC19EC19EC19EC19EC19EC19EC19ECA4
:1074C00019EC19EC19ED19ED19EC21CB29CA31A9E8
:1074D00039CA9493EF7EFFFFEF7DEF9DF77EF7BEF5
:1074E000F7BEEF7DF7DEEFBEEF9EFFFF4A4B298927
:1074F00029CB21CB19EC19ED19ED19ED19EC19EC8B
:1075000019EC19EC19EC19EC19EC19EC19EC19EC53
:1075100019EC19EC19EC19EC19EC19EC19EC19EC43
:1075200019EC19EC19EC19EC19EC19EC19EC19EC33
:1075300019ED19EC19EC19EC19EB21EB21EB21EA0F
:1075400031E839C739E831C8ADD8ADB8ADD8ADB834
:10755000FFFFFFFFFFFFFFFFFFFFFFFFFFFFFFFF3B
:10756000FFFFFFFFFFFFFFFFFFFFFFFFFFFFFFFF2B
:1075700039C739C739E731E7320821A721EA21EBBA
:1075800021EB19EC19EC19ED11EC11EC19EC11CC03
:1075900019EC19EC19EC19EC19EC19EC19EC19ECC3
:1075A00019EC19EC19EC19EC19EC19EC19EC19ECB3
:1075B00019EC19EC19EC19EC19EC19EC19EC19ECA3
:1075C000220D1A0D11EC222D19AB29AA418951A9BE
:1075D00072ACACB4FF9EF7BEF7BEF79DF75DFFBF80
:1075E000FFDEF7BEE77DF7DEF79EFF9F6ACC51EA2C
:1075F00041A9298A198A222D11CC1A0D220D19CCE4
:1076000019EC19EC19EC19EC19EC19EC19EC19EC52
:1076100019EC19EC19EC19EC19EC19EC19EC19EC42
:1076200019CC11AB222D19EC11EC1A0D11EC1A0D1D
:1076300019CC21EC21EB21CA21C829C829C831A7BE
:1076400039E7318639E731E8A5B7A5B8ADD8ADB788
:10765000FFFFFFFFFFFFFFFFFFFFFFFFFFFFFFFF3A
:10766000FFFFFFFFFFFFFFFFFFFFFFFFFFFFFFFF2A
:1076700039E739E6420652A8738B5AE94227216559
:1076800029E921EA222D19EC11EC19ED11CC1A0D82
:1076900019ED19EC19EC19EC19EC19EC19EC19ECC1
:1076A00019EC19EC19EC19EC19EC19EC19EC19ECB2
:1076B00019EC19EC19EC19EC19EC19EC19EC19ECA2
:1076C00019CC19ED11CC21EC298A4A0B726C92CDA0
:1076D000A34EBC72FF7DF79DF79DF7BEFF9EF71C82
:1076E000F73CFFBEF7BDF7BEFF9EFFBF936E930D45
:1076F0006A4B49EA218A220C11EC1A0D19ED19CCBA
:1077000019EC19EC19EC19EC19EC19EC19EC19EC51
:1077100019EC19EC19EC19EC19EC19EC19EC19EC41
:10772000220D220D19CC11EC1A0D19EC19EC21ECDB
:107730002A0B21A829A631E64A475AC86B2A7B8B17
:107740005A8839C539E731E8ADB7A5B8ADD8ADB776
:10775000FFFFFFFFFFFFFFFFFFFFFFFFFFFFFFFF39
:10776000FFFFFFFFFFFFFFFFFFFFFFFFFFFFFFFF29
:1077700039E739C542057B89C5B0C58FACAB83CA33
:107780003A06196619A919EC19EC19ED11CC1A0D64
:1077900019ED19ED19EC19EC19EC19EC19EC19ECBF
:1077A00019EC19EC19EC19EC19EC19EC19EC19ECB1
:1077B00019EC19EC19EC19EC19EC19EC19EC19ECA1
:1077C00019CC220C19EC21CB3189726CA2EDC34E7D
:1077D000BB2DB38EFF3CFF7DF79DF79DFF5CC5552C
:1077E000D5F7F75CF7BEF77DFF9DFF3CAB2DB32EC1
:1077F000A2ED7A8C39A929EB19EC19EC19CC21EC02
:1078000019EC19EC19EC19EC19EC19EC19EC19EC50
:1078100019EC19EC19EC19EC19EC19EC19EC19EC40
:1078200019CB222C19CB1A0C19ED11CC222C21EAE0
:10783000194542467BA9ACCCC56DD5ADD5CED5F0AA
:107840007B484A0539C631E7ADB7ADD8ADD8A5B745
:10785000FFFFFFFFFFFFFFFFFFFFFFFFFFFFFFFF38
:10786000FFFFFFFFFFFFFFFFFFFFFFFFFFFFFFFF28
:1078700039E739C541C38367E62FEE4EE5ECCD8C81
:10788000942B52C929C829EA220C19EC19ED19CCFC
:1078900019ED19ED19ED19EC19EC19EC19EC19ECBD
:1078A00019EC19EC19EC19EC19EC19EC19EC19ECB0
:1078B00019EC19EC19EC19EC19EC19EC19EC19ECA0
:1078C00019EC220D21EC29AA49AA92EDBB0DCAECB4
:1078D000C2CBB32DFF1BFF9DF7BDF7BDFF3CAC51E5
:1078E000C555FF5CFFDEF77DFF9DFE9AB2EBC2EC53
:1078F000C32E9AED49C929CA21EC19EC19CC21EC07
:1079000019EC19EC19EC19EC19EC19EC19EC19EC4F
:1079100019EC19EC19EC19EC19EC19EC19EC19EC3F
:1079200019CB19EC19EC220D11CC19EB2A2B21865D
:107930004A878C09C58CE62DEE0BEE0BEDEADDAC2B
:107940008BC84A0539C531E7ADD8ADD8ADB8ADB7AC
:10795000FFFFFFFFFFFFFFFFFFFFFFFFFFFFFFFF37
:10796000FFFFFFFFFFFFFFFFFFFFFFFFFFFFFFFF27
:1079700039E641E549C38346DDACE5CAE5C9E5CA58
:10798000DE2FAD0E4A47218721EB19CB1A0D19ECDA
:1079900019ED19ED19ED19EC19EC19EC19EC19ECBC
:1079A00019EC19EC19EC19EC19EC19EC19EC19ECAF
:1079B00019EC19EC19EC19EC19EC19EC19EC19EC9F
:1079C00019EC21EC21CB318A59EAAB2ECB0DCA8AB6
:1079D000C2AABB4DFE79FF9EF79DF79DFF7DB47156
:1079E000CD75FF7DFFBEF77DFF9EEDB6C2EBCACB26
:1079F000CAECB32E59EA31AA21CB19EC19CC19ECF7
:107A000019EC19EC19EC19EC19EC19EC19EC19EC4E
:107A100019EC19EC19EC19EC19EC19EC19EC19EC3E
:107A2000222D19CC19ED19ED19ED220B29C839E5D4
:107A3000BD8FDE0DEE2BEDE8EDA7EDC7EDC8E5A996
:107A400093C749E339A539E7ADD8ADD8ADB8ADD8BE
:107A5000FFFFFFFFFFFFFFFFFFFFFFFFFFFFFFFF36
:107A6000FFFFFFFFFFFFFFFFFFFFFFFFFFFFFFFF26
:107A700039C641E549E38B87DDACE5A9EDC9EE0ADE
:107A8000E5EBDE2F7B69318529EA19EB19EC19EC5E
:107A900019ED19ED19ED19EC19EC19EC19EC19ECBB
:107AA00019EC19EC19EC19EC19EC19EC19EC19ECAE
:107AB00019EC19EC19EC19EC19EC19EC19EC19EC9E
:107AC00019CC19EC21EC31AA61CAAB2ECAECD2AAAE
:107AD000CAEBBB4DD555FF9EF79EF77DFF5DB49178
:107AE000CD55FF5DF77DF79EFF7DC491C2EBCAAB1C
:107AF000C2ABB32E59EA31AA21CC19EC19EC19EC1E
:107B000019EC19EC19EC19EC19EC19EC19EC19EC4D
:107B100019EC19EC19EC19EC19EC19EC19EC19EC3D
:107B20001A0C19EC19ED19CC2A0C21C931E583EA9C
:107B3000DE0EE5EAEDC8F5C6F5C6F5C7F5E7EDEAF0
:107B400093A649C339A539E8ADB8ADD8ADB8ADD81D
:107B5000FFFFFFFFFFFFFFFFFFFFFFFFFFFFFFFF35
:107B6000FFFFFFFFFFFFFFFFFFFFFFFFFFFFFFFF25
:107B70003A0739C641C58BCBE630E5EDE5EBDDA82C
:107B8000E5A8EE4CBD2D5AC931E9220B19EB11ECD9
:107B900019EC19ED19ED19EC19EC19EC19EC19ECBB
:107BA00019EC19EC19EC19EC19EC19EC19EC19ECAD
:107BB00019EC19EC19EC19EC19EC19EC19EC19EC9D
:107BC00019EC19EC21EC31AA61CAAB0EC2ECCACB9C
:107BD000CB2CA2CB938FF79EF7DFF79EFF5DB4719E
:107BE000CD55FF7DF79EFFFFF73C932CBB0BCACB17
:107BF000C2CBB30E59EA31CA21CC19CC1A0C19ECFC
:107C000019EC19EC19EC19EC19EC19EC19EC19EC4C
:107C100019EC19EC19EC19EC19EC19EC19EC19EC3C
:107C200011CC1A0D1A0D21EC21EA29C66B28CDCEF4
:107C3000E60BEDE8F5C6F5C6F5C7EDA7EDC8E5EB33
:107C400093C749A339A539E8ADB8ADD9ADB8ADD81A
:107C5000FFFFFFFFFFFFFFFFFFFFFFFFFFFFFFFF34
:107C6000FFFFFFFFFFFFFFFFFFFFFFFFFFFFFFFF24
:107C700039E731A641E69C8FFF77FF55FEF2EE2DE6
:107C8000EDE9DDA9DE0F83EB29A621EA1A0C1A0C17
:107C900019EC19EC19EC19EC19EC19EC19EC19ECBC
:107CA00019EC19EC19EC19EC19EC19EC19EC19ECAC
:107CB00019EC19EC19EC19EC19EC19EC19EC19EC9C
:107CC0001A0C19CC21CB31AA61EAAB2EBAECC2EC6A
:107CD000B30D71E949C8DEFCEF9EF79EFF5DB492DB
:107CE000D596FF9EEF7EF7DFCE5959C8A2CCBB0DCB
:107CF000C30DB30E59CA31CB21CC19CC1A0C19ECD7
:107D000019EC19EC19EC19EC19EC19EC19EC19EC4B
:107D100019EC19EC19EC19EC19EC19EC19EC19EC3B
:107D20001A0D1A0C11CC220C21A842279C8BE62D8F
:107D3000E5E9F5E7F5C6F5A6F5C7F5E8EDE9E5CB24
:107D40009BE849C341A539E8ADB8ADF9ADB8ADD8A8
:107D5000FFFFFFFFFFFFFFFFFFFFFFFFFFFFFFFF33
:107D6000FFFFFFFFFFFFFFFFFFFFFFFFFFFFFFFF23
:107D700039C739C639C69CB0FF9AFF99FF98FF965C
:107D8000EE6FE60CD5CCB52D39E61989222D120DF2
:107D900019EB19EB19EC19EC19EC1A0C19EC19EC9C
:107DA00019EC19EC19EC19EC19EC19EC19ED19ECAA
:107DB00019EC19EC19EC19EC19EC19EC19EC19EC9B
:107DC00019EC19CC21EC31AA59A9AB2EBB4EAB0D45
:107DD00061CA39883A09B618BE189CD39C10A41100
:107DE000A452941094F3BE399CD449EA518892CDA0
:107DF000BB2EB34E59CA31CA21EC11CC19EC19EC87
:107E000019EC19EC19EC19EC19EC19EC19EC19EC4A
:107E100019EC19EC19EC19EC19EC19EC19EC19EC3A
:107E200019EC1A0C19EC220C21884227C56DE60BBF
:107E3000EDC8F5C7F5C7F5C6F5C6F5C7F5C8E5CB76
:107E40009BC749C341C639C7ADD8A5B8ADD8ADD8D1
:107E5000FFFFFFFFFFFFFFFFFFFFFFFFFFFFFFFF32
:107E6000FFFFFFFFFFFFFFFFFFFFFFFFFFFFFFFF22
:107E700039C739C639C69CD0F79BFF9BFF9AFF983C
:107E8000FF76F6D1DE0EB52D422721A9220D11CCA9
:107E90001A0B19EB19EC19EC19EC19EC19ED19EC9A
:107EA00019EC19EC19EC19EC19EC19EC19EC19ECAA
:107EB00019EC19EC19EC19EC19EC19EC19EC19EC9A
:107EC00019EC19EC21CC318A59CAA36FA2EE7A4B76
:107ED00049CA29AA10E552CB42274A276A896A690A
:107EE00062295A494A48428931C8210639A9622B78
:107EF000A2EEAB4F59EA31AA21EC1A0D19EC19CCBC
:107F000019EC19EC19EC19EC19EC19EC19EC19EC49
:107F100019ED19EC19EC19EC19EC19EC19EC19EC38
:107F200019CC19EC19EC222C29C95A88D5ADE5EAEF
:107F3000F5C8F5C7F5C7F5C7EDE6EDC7F5C8EDCB54
:107F40009BC749C341C639C7ADD8A5B8ADD8ADD8D0
:107F5000FFFFFFFFFFFFFFFFFFFFFFFFFFFFFFFF31
:107F6000FFFFFFFFFFFFFFFFFFFFFFFFFFFFFFFF21
:107F700039C739C639C69CD0F79BFF9BFF9AFF993A
:107F8000FFB8FF35E691C5AF528829C821EB11EC47
:107F90001A0C19EB19EC19EC19EC19ED19CD19CDD6
:107FA00019ED19EC19EC19EC19EC19EC19EC1A0C87
:107FB0001A0C1A0C19EC19EC19EC19EC19EC19EC57
:107FC00019EC220C21CC298A5A2C93907A8C49885E
:107FD0002969320A3A089CD1C5D4F719FEF9C512AD
:107FE000DDD5FF3BEF5AB594630C31A839EA396906
:107FF0007A8C9B4F522C29AA21EC222D19EC19CCFA
:1080000019EC19EC19EC19EC19EC19EC19EC19ED47
:1080100019ED19ED19ED1A0C1A0C19EC19EC19CC13
:1080200021EC220C1A0B220A29E86B29DE2EE5C965
:10803000F5C8F5C7F5C7F5C7EDE7EDE7EDC8E5CB42
:1080400093C849C341C639C7ADD8ADB8ADD8ADD8CE
:10805000FFFFFFFFFFFFFFFFFFFFFFFFFFFFFFFF30
:10806000FFFFFFFFFFFFFFFFFFFFFFFFFFFFFFFF20
:1080700039C739C639C69CD1F79BFF9BFF9AFF9938
:10808000FF79FF78F715D6325AE829A619A9222DCB
:1080900019EC19EC19EC19EC19EC19EC19CD19CDF6
:1080A00019ED19EC19EC19EC19EC19EC19EC19EBA8
:1080B00019EB1A0B19EC19EC19EC19EC19EC19EC79
:1080C00019EB222C19CC29AB524D7B505A4C3168FC
:1080D00029CA21C931A5A510DE75FFBAFEF8AC2E5C
:1080E000CD12FF3AFFFCCE55630B296629CA29AA97
:1080F00051EA7B0F4A4D29CB21CC19EC19EC220C0B
:1081000019EC19EC19EC19EC19EC19EC19EC19ED46
:1081100019ED19EC1A0C1A0C1A0C19EC19CC19CC13
:1081200019CC19CB19EB21E931E87369E64EE5C8A2
:10813000F5C7F5C7F5C7F5C7F5C6EDC7EDC8E5CB7B
:1081400093C849C341C639C7B5D8ADB8ADD8ADD8C5
:10815000FFFFFFFFFFFFFFFFFFFFFFFFFFFFFFFF2F
:10816000FFFFFFFFFFFFFFFFFFFFFFFFFFFFFFFF1F
:1081700039C739C639C69CD1F79BFF9BFF9AFF9A36
:10818000FF9AFFBAFF57E6B47B893A0621A721EA96
:1081900019EC19ED19ED19EC19EC19EC21CC21CCE5
:1081A00019EC19EC19EC19EC19EC19EC19EC19ECA7
:1081B00019EC19EC19EC19EC19EC19EC19EB19EB99
:1081C00019EB222C19CC21CC422D52AF3A0B21AA0B
:1081D000220C21E931C5B550D632FF37FF39C51120
:1081E000DDB3FF39FF78CE547BCC31E7220B21EC95
:1081F00029AA528E3A2C29EC19CC19CC19CC220D73
:1082000019EC19EC19EC19EC19EC19EC19EC19EC46
:1082100019EC19EC1A0C1A0B1A0B19EC19CC19CC15
:1082200019ED1A0D1A0C220A32086B69DE0EE5C927
:10823000F5C8F5C6F5C6F5C6F5C6F5C7F5C8E5CB6C
:1082400093C849C341C639C7B5D8ADB8ADD8ADD8C4
:10825000FFFFFFFFFFFFFFFFFFFFFFFFFFFFFFFF2E
:10826000FFFFFFFFFFFFFFFFFFFFFFFFFFFFFFFF1E
:1082700039C739C639C69CD1F79BFF9BFF9AFF9A35
:10828000FF9AFF9AFF78FF77AD0D7BA94A681947DF
:1082900021CC19ED19ED19EC19EB19EB19EC19ECCE
:1082A00019EC19EC19EC19EC19ED19EC19EC19ECA5
:1082B00019EC19EC19EC19EC19EC19EC19EB19EB98
:1082C00019EB1A2C19CC21EC29EC320C21CB21EB27
:1082D00011CB19C94205C5D1E673FF36FEF8B48F3C
:1082E000D573FF18FF57DEB58C6E320719CA11CC53
:1082F00021AB322C21CB21EC19EC19EC19CC19EC67
:1083000019EC19EC19EC19EC19ED19ED19EC19EC43
:1083100019EC19EC19EB1A0B19EB19EB21EB21EB0A
:1083200021EB19EB19CA19C829A65AC6CD8BEE0A3A
:10833000EDC8F5C7F5C6F5C6F5C6F5C7EDC8E5CB7A
:1083400093C849C341C639C7ADD8ADB8ADD8ADD8CB
:10835000FFFFFFFFFFFFFFFFFFFFFFFFFFFFFFFF2D
:10836000FFFFFFFFFFFFFFFFFFFFFFFFFFFFFFFF1D
:1083700039C739C639C69CD1F79BFF9BFF9AFF9A34
:10838000F77AFF79FF78FFB7DE0FC58E8BEB39E701
:1083900029CA19ED19EC1A0C19EC19EC19EC19ECA5
:1083A00019EC19EC19ED19ED19ED19ED19EC19ECA1
:1083B00019ED19ED19ED19ED19EC19EC19EC1A0C70
:1083C0001A0C1A0C11EC220C19CB21CB19AB21EC95
:1083D000222D22094205C5B1E693FF97FF59B48FBC
:1083E000CD52FF59FF98E7159CCE31E619C9222DD1
:1083F00021EC21EC11AB1A0C19EC1A0C19EC19EC4C
:1084000021EC19EC19ED19ED19ED19ED19EC19EC38
:1084100019EC19EC19EC19EC19EB21EA29EA29E914
:1084200021C829E83228322839E55223B4C8EE2A77
:10843000EDC8F5C7F5C7F5C7EDC7EDC8EDC9E5CC83
:1084400093C841C341C639C7ADD8ADB8ADD8ADD8D2
:10845000FFFFFFFFFFFFFFFFFFFFFFFFFFFFFFFF2C
:10846000FFFFFFFFFFFFFFFFFFFFFFFFFFFFFFFF1C
:1084700039C739C639C69CD1F79BFF9BFF9AFF9A33
:10848000FF9AFFBAFF78FF76DE0DEE6FBD4D6B08E9
:1084900031C721CA21EA19EB19EB19EB1A0C19ECB7
:1084A00019EC19EC19ED19ED19ED19EC19EC19ECA1
:1084B00019EC19EC19ED19EC19EC19EC19EC19EC93
:1084C00019EC1A0C11EC1A2D19CB19EB19EC21EC43
:1084D00019CB2A095286D652E693FF57FF39AC6F63
:1084E000D594FF5AFF57EF15AD4F424619A819EC26
:1084F00019EC19EC11CC1A2D11CB19EC19EC21EC5B
:1085000021CC19ED19ED19ED19ED19ED19EC19EC56
:1085100019EC19EC19EC19EB21EA29E832063A05B5
:108520005AE86B487BCA83EB73276261AC24DD8811
:10853000EDC8EDC8EDC8EDE9E5E9E5CAE5CBDDCD6F
:1085400093C941C441E639C7ADD8ADB8ADD8ADD8AF
:10855000FFFFFFFFFFFFFFFFFFFFFFFFFFFFFFFF2B
:10856000FFFFFFFFFFFFFFFFFFFFFFFFFFFFFFFF1B
:1085700039C739C639C69CD1F79BFF9BFF9AFF9A32
:10858000FF9AFF79FFB9FF56EE4EE60BD5ACB4EB80
:1085900039A331C529E729E821E921EA19EB19ECCA
:1085A00019EC19CC19EC19CC19EC220C19CB19EBDC
:1085B00019EB1A0C19CB19EC19EC19CC1A0D1A0C71
:1085C0001A0C1A0C11EC11CC1A0C220C19EC19CB48
:1085D000220B21A683A9D5EFEED3FF57FF59BD117A
:1085E000D5B4FF59FF57F735CE116B282187220BE1
:1085F000220C19ED11EC1A0C1A0C19EC19CB21EC08
:1086000019EC19CC19CC19EC1A0C1A0C19EC19EC40
:1086100011AB2A2D21CB21A832075AE89CACCDEF13
:10862000DE0DDE0DDE0DDDEDDDACD56ADD67E5A826
:10863000E5C9E5CADDCAE60CEE6FFED1FEF3F6F43D
:108640009C2B41C439C639E7ADD8ADB8ADD8ADB76C
:10865000FFFFFFFFFFFFFFFFFFFFFFFFFFFFFFFF2A
:10866000FFFFFFFFFFFFFFFFFFFFFFFFFFFFFFFF1A
:1086700039C739C639C69CB1F79BFF9BFF9AFF9A51
:10868000FFBBFF9AFF7AFF56EE8FDDEBDDCBD5CC3B
:1086900083867B8773475AA7422731E729E821CA97
:1086A00021CB19CB19EC19CB19CB1A0C19EB19EBFF
:1086B00019EB19EC19EC220C19EC19CB19EC19CCAB
:1086C00019CB1A0C1A0C19EC19EC19CC19ED220D56
:1086D00021EA31E6ACACDE0FEED3FFB8FF79EED87D
:1086E000EEF8FF9AFFB9F735DE308C0A3A0721C958
:1086F00019EB11EC11EC11EC19EC19EC19CB19EC8C
:1087000019ED19ED19EC1A0C19EB11EB11EB1A0C10
:10871000222D21EB216742488C0BBD4DD5ECE5EBBA
:10872000E5C9EDC8E5C8EDC9EDEAEDE9EDC8EDE94B
:10873000E5CBEE4EFEF1FF54FF76FF97FF77FF7813
:10874000942C41C439C639C8ADD8ADB8ADD8ADB791
:10875000FFFFFFFFFFFFFFFFFFFFFFFFFFFFFFFF29
:10876000FFFFFFFFFFFFFFFFFFFFFFFFFFFFFFFF19
:1087700039C739C639C69CB1F79BFF9BFF9AFF9A50
:10878000F79AF77AFF9AFF99FF34EE6EE5EBE60B66
:10879000DDAADDECE5ECD5CDBD2D9C2B62E731C625
:1087A00029E921EB222D220C19CC19EC220C1A0DEF
:1087B0001A2D1A0D11EC19EC21CB21EB2A2C21EBEF
:1087C000220B19EB19EB19EC19EC19ED11ED19EC61
:1087D00021C84A88CD8EE60FF6D3FFD8F738FFFCC4
:1087E000FFBBFF9AFFD9FF36E651BD2E630921A7D3
:1087F0001A0B1A0C1A0D19ED19EC19EC1A0C19ECCC
:108800001A0C19EC1A0C1A0C120C11EC120D1A0C91
:1088100019EB1987422683C9CD8CF66CEE09EDC79A
:10882000F5C7F5E7EDC7EDC7EDC8EDC9EDC9E5EA58
:10883000F66FFEF3FF76FFB8FF99FF99FF99FF9A55
:10884000942D41C539C639C8ADD8ADB8ADD8ADB78E
:10885000FFFFFFFFFFFFFFFFFFFFFFFFFFFFFFFF28
:10886000FFFFFFFFFFFFFFFFFFFFFFFFFFFFFFFF18
:1088700039C739C639C69CB1F79BFF9BFF9AFF9A4F
:10888000F77AF79AFF9BFF9AFF98FF34F66EE5CAD6
:10889000E5C9EDE9EDE9EDEAF60CE60DC54C9CAC59
:1088A0003A06198719A9222C21EC19EC19EC19CCDC
:1088B00011CD19ED19EC21EB21CA21C921C821A83C
:1088C00021C821A821A829EA2A0B222C1A0C19EA6E
:1088D00021A6738AD5AEE5CDFF35FFD9EF38FFBBB2
:1088E000FFBBF759FF99FF57EE92D5F08C0C29A5E5
:1088F00021E91A0B19EC19CD19CC19EC1A0D1A0D26
:1089000019ED19EC19EB19EB19EC11EC11CC11ABB9
:1089100021C93A078C0ACDCDE62BEDE9ED87EDA70D
:10892000EDA8EDE8EDE9EDE9EDC9E5AAEE0BF68F6E
:10893000FF75FF78FF99FF79F77AFF7AFF9AFF9A20
:10894000944D41C539C639C8ADD8ADB8ADD8ADB76D
:10895000FFFFFFFFFFFFFFFFFFFFFFFFFFFFFFFF27
:10896000FFFFFFFFFFFFFFFFFFFFFFFFFFFFFFFF17
:1089700039C739C639C69CB1F79BFF9BFF9AFF9A4E
:10898000FFBAF79AF79BF77BFF79FF98FF33EE2D3D
:10899000E5EAEDE9EDC7ED86ED87EDC9EE0ADE0DFE
:1089A0009C8D52C921A621E821EA19AA21EC220CAA
:1089B0001A0D220D19CB218829C731E63A064A87BC
:1089C0005AC852874A6739E62186198621E9322931
:1089D00031C4A4CDDDADE5EDFF77FFBAFFBBF77A7B
:1089E000F79AF79AFF7AFF99F6D2DE0FACED42457F
:1089F0002A0721E921EB21EC19EC19EC1A0D11ECF5
:108A000019EC19EC19EC1A0C19EC220D220D29EBBA
:108A100031E86329BD4DEE6DE5C9E588EDCAEDECA1
:108A2000E5EDE60DE62DEE4EE60EDDEDE64FFF142C
:108A3000FF78FF9AFF9AFF7AFF7BFF9BFF9BFF7AED
:108A4000942E41C539C631E8ADD8ADB8ADD8ADB773
:108A5000FFFFFFFFFFFFFFFFFFFFFFFFFFFFFFFF26
:108A6000FFFFFFFFFFFFFFFFFFFFFFFFFFFFFFFF16
:108A700039C739C639C69CB1F79BFF9BFF9AFF9A4D
:108A8000FF9AF77AF79BFF9BFF7AFF99FF77FEF239
:108A9000DDCCE5CAEDE9F5E9F5E8F5E8EDE8E5EA6C
:108AA000D5EE83A839E339E53A0731C729C821A8AB
:108AB00021EA198829A74A6883EBACEEBD6ECDF098
:108AC000D5F0CDCFC56EA48B6B484A6639C52963F6
:108AD00062C5CDAEE5ECEE2DFF77F759FFFCF79AB6
:108AE000F79AFFBBF77BFFBAFF13DE0ECD8E83A98B
:108AF00031E521A721C921EB21EB19EB1A0C19CC87
:108B000019CC21EC21EB21CB19CA21CB21CB29E9AE
:108B100031E68C2BD5CDE5EBDDA9EE0CFEB1FED216
:108B2000FF76FF56FF75FF96FF76FF15FF15FF983E
:108B3000FF59FF7AFF9BFF9AFF7BFF7BFF7AF77A53
:108B4000942E41C539C631E8ADD8ADB8ADD8ADB772
:108B5000FFFFFFFFFFFFFFFFFFFFFFFFFFFFFFFF25
:108B6000FFFFFFFFFFFFFFFFFFFFFFFFFFFFFFFF15
:108B700039C739C639C69CB1F79BFF9BFF9AFF9A4C
:108B8000F77AFF7AFF9AFF9BFF9BFF9AFF79FF77A7
:108B9000E691E62FDDCDDDCBE5CBE5CAEDE9EDE9EC
:108BA000F62BD549AC689C499C4B7BAA62E84225D0
:108BB00039E531A362E69C6AD58CEE2DEE0BEDEA29
:108BC000E5C9E5EAEE4BEE4CCDCCACCB8367520168
:108BD000AC89DDECEE0BEE4DFF97F779FF7AFF7A6B
:108BE000F77AFFBBF77BFF9AFF54E66EDDEDBD2CF5
:108BF0005A853A0629E729E921C921EA21EB21EB27
:108C000021EB21EB29EA29E92A092A0829E729A5E4
:108C100039E3B54EE60EE5ECF68FFF12FF97FFB98C
:108C2000FF99FF99FF98FF99FFB9FF79FF78FF79C6
:108C3000FF9BFFBBFFBBFF9AFF7BFF7BFF9BFF9B65
:108C4000942E41C539C731E8ADD8ADB8ADD8ADB770
:108C5000FFFFFFFFFFFFFFFFFFFFFFFFFFFFFFFF24
:108C6000FFFFFFFFFFFFFFFFFFFFFFFFFFFFFFFF14
:108C700039C739C639C69CB1F79BFF9BFF9AFF9A4B
:108C8000F77AFFDBFF9AF759FF7AFF9AFF7AFFB96D
:108C9000FF77FF77FF96FF75FF12EE6FE60CE5CAD0
:108CA000EDA8F60AE5CADDCBDDEDDDEED5CFBD4D95
:108CB0007B467B45BD0AEE4EEDCAEDA8EDC8EDC77B
:108CC000F5E7EDA7E5A6E5E8E60AEE2CDD8CBC8726
:108CD000EDEBDDA9EE0AEE4EFFD8FFFBF739FF9B67
:108CE000FF7AFF9BF77CFF9AFF75EE8FDDCCE5EDF9
:108CF000B4CB8BC96B0852A83A2729E729E829C9C0
:108D000029C831C739E64A87634973A96B485AC5F0
:108D100049E0CDCEE62FE62FFF95FF77F779FFBA32
:108D2000F79AFFBBFF9AF77AFF7AFF9AFF9AFF7ACA
:108D3000FF7BF77BF79AFF9AFF9BFF9BFF9BF77ADE
:108D4000942E41C539C739C8ADD8ADB8ADD8ADB787
:108D5000FFFFFFFFFFFFFFFFFFFFFFFFFFFFFFFF23
:108D6000FFFFFFFFFFFFFFFFFFFFFFFFFFFFFFFF13
:108D700039C739C639C69CB1F79BFF9BFF9AFF9A4A
:108D8000FF9AFF9AFF9AFF9AFF9AFF9AFF7AFF9A3B
:108D9000FF9AFF99FF98FF78FF97FF96FF55F6D24D
:108DA000E5CBEDA9EDC8EDE9EDE9E5CAE5CAE5AA2F
:108DB000E5CAE5CAEDEAEDEAEDC9EDC9EDC8EDA8F1
:108DC000EDC8EDC8EDC8EDC8EDC9EDE9EDC9EDA8F8
:108DD000EDE8EDC9E5EBF6D2FF98FF9AFF7AFF7A4E
:108DE000FF7AF77AFFBCFF7AFF97FEF2DDABE5CAA8
:108DF000E5CBE5CBDDACDE0FCDF08C0B420531834E
:108E000039C383A9C56FD5EFD5EDDDECDDEBE5EB1F
:108E1000DDECDDCDEE91FF76FF78FF99FFBAF77AB2
:108E2000FF9AFF9AFF9AFF9AFF9AFF9AFF9AFF9A7A
:108E3000FF9BFF9AFF9AFF9AFF9AFF9AFF9AFF9B68
:108E4000942E41C539C639C8ADD8A5B8ADD8ADB78F
:108E5000FFFFFFFFFFFFFFFFFFFFFFFFFFFFFFFF22
:108E6000FFFFFFFFFFFFFFFFFFFFFFFFFFFFFFFF12
:108E700039C739C641C69CB1F79BFF9BFF9AFF9A41
:108E8000FF9AFF9AFF9AFF9AFF9AFF9AFF7AFF7A5A
:108E9000FF7AFF7AFF7AFF79FF99FF99FF98FF56D3
:108EA000F670EDECE5C9E5C8EDE8EDC8EDE9EDE9F2
:108EB000F5E8EDC8EDA8E5A8E5A9E5CAEDEBEE0BF0
:108EC000E5EBEE0BEE0BE5CAE5A9E5A8EDC8F5E785
:108ED000F5E7E5C8E5ECFEF3FF98FF7AFF9BFFBBE3
:108EE000FF9BF77AFF9BF77AFF98FF34E60CE5CA01
:108EF000EDC8F5E9F5E9DDA8DDAADE0EBD0C7B05C0
:108F0000BD2CD5ACDE0CE5CAE5C8EDC7EDC7EDE874
:108F1000E5CAEE2EFEF4FF98FF9AFF7AFF9BF77AE0
:108F2000FF9AFF9AFF9AFF9AFF9AFF9AFF9AFF9A79
:108F3000FF9AFF9AFF9AFF9AFF9AFF9AFF9AFF9B68
:108F4000942E41C539C639C8ADD8A5B8ADD8ADB78E
:108F5000FFFFFFFFFFFFFFFFFFFFFFFFFFFFFFFF21
:108F6000FFFFFFFFFFFFFFFFFFFFFFFFFFFFFFFF11
:108F700039C739C641C69CB1F79BFF9BFF9AFF9A40
:108F8000FF9AFF9BFF9BFF9BFF9BFF9BFF7BFF7B52
:108F9000FF7BFF7AFF7AFF7AFF9AFF9AFF99FF988B
:108FA000FF55EE70DDECDDEAE5EAE5C9E5A9EDA9DE
:108FB000EDE8EDC8E5E9EE0BEE4DF6B0FEF2FF335D
:108FC000FF34FF54FF13F6B0EE2EE5EBE5C9E5C81C
:108FD000EDE8E5A9E62DFF55FF99F779FF9AFFBB6C
:108FE000FFBBF77AFF9BFF7AFF98FF75EE6EE5A94E
:108FF000EDE9E587EDE8F649EDE8EDE9EE0BDD8911
:10900000E5CAE5E9E5E9EDE8F608EDE7EDC7EDC904
:10901000E5CAF690FF76FFB9FF9AF79AF79AF79BA1
:10902000FF9AFF9AFF9AFF9AFF9AFF9AFF9AFF9A78
:10903000FF9AFF9AFF9AFF9AFF9AFF9AFF9AFF9B67
:10904000942E41C539C639C8ADD8A5B8ADD8ADB78D
:10905000FFFFFFFFFFFFFFFFFFFFFFFFFFFFFFFF20
:10906000FFFFFFFFFFFFFFFFFFFFFFFFFFFFFFFF10
:1090700039C739C641C69CB1F79BFF9BFF9AFF9A3F
:10908000FF9AFF9BFF9BFF9BFF9BFF9BFF7BFF7B51
:10909000FF7BFF9BFF7AFF7AFF7AFF7AFF9AFF99A7
:1090A000FFB9F715E6B1EE90EE8FEE6EEE2CE5EB24
:1090B000DDA9DDCAE62CF6AFFF13FF76FF97FF9818
:1090C000FFB9FFB8FF97FF76FF34F6D1EE4EE5EB20
:1090D000E5CADDCBEEB0FF97FF99F77AFF9AF77AF2
:1090E000FF9BF77AFF9BFF7AFF78FF97F6B1DDCB06
:1090F000EE0BEDEAEDE9EDE8EDE8EDE8EDC8F5E9B8
:10910000EE08EE08EDE8EDE8EDE8E5C8E5C9E5EACA
:10911000DDCCFEF2FF98FF99FF9AF79AF79BFF9B31
:10912000FF9AFF9AFF9AFF9AFF9AFF9AFF9AFF9A77
:10913000FF9AFF9AFF9AFF9AFF9AFF9AFF9AFF9B66
:10914000942E41C539C639C8ADD8A5B8ADD8ADB78C
:10915000FFFFFFFFFFFFFFFFFFFFFFFFFFFFFFFF1F
:10916000FFFFFFFFFFFFFFFFFFFFFFFFFFFFFFFF0F
:1091700039C739C641C69CB1F79BFF9BFF9AFF9A3E
:10918000F79AF79AFF9AFF9AFF9AFF9AFF9BFF9B25
:10919000FF7BFF7BFF9BFF9BFF7AFF7AFF7AFF7AC3
:1091A000FFBBFF99FF78FF77FF76FF75FF34F6D29C
:1091B000E64FEE6FEED2FF35FF98FFB9FF9AFF7AC8
:1091C000F779F779F779FF99FFB9FF97FF34F6B18F
:1091D000DE0EE62FF714FFB8FF9AFF9BFFBBF77A6E
:1091E000FF7AF77AFF9CFF9BFF79FF98FF35E651E6
:1091F000DDCEEE2FE60DDDAAE5CAEDE9EDA8EDE93D
:10920000E5A8E5C9E5C9E5CAEE0CEE2DE60DDDEEF3
:10921000E651FF36FF99FF79F77AFF9BF79BFF9B9B
:10922000FF9BFF9AFF9AFF9AFF9AFF9AFF9AFF9A75
:10923000FF9AFF9AFF9AFF9AFF9AFF9AFF9AFF9B65
:10924000942E41C539C639C8ADD8A5B8ADD8ADB78B
:10925000FFFFFFFFFFFFFFFFFFFFFFFFFFFFFFFF1E
:10926000FFFFFFFFFFFFFFFFFFFFFFFFFFFFFFFF0E
:1092700039C739C641C69CB1F79BFF9BFF9AFF9A3D
:10928000F79AF79AFF9AFF9AFF9AFF9AFF9AFF9B25
:10929000FF7BFF7BFF9BFF9BFF9BFF7BFF7AFF9B7F
:1092A000F77BFF9BFFBAFF9AFF99FFB9FFB9FF77E2
:1092B000FF56FF76FF77FF99FF9AFF9BFF9BF79B77
:1092C000F7BBF7BBF79AFF9AFF9AFF99FF98FF56F3
:1092D000F6D4F715FF98FF99F77AFF9BFFBBFF7A4B
:1092E000FF9AFF7AFF9BFF7BFF7AFF9AFF98FF367A
:1092F000FF97FF77FF96FF95FF11EE4DE5CBE5CB8E
:10930000E5CBF66EFEF1FF33FF75FF76FF56FF36B5
:10931000F6F5FF98FFBAFF7AF77BFF9BFF9BF77B81
:10932000FF9BFF9AFF9AFF9AFF9AFF9AFF9AFF9A74
:10933000FF9AFF9AFF9AFF9AFF9AFF9AFF9AFF9B64
:10934000942E41C539C639C8ADD8A5B8ADD8ADB78A
:10935000FFFFFFFFFFFFFFFFFFFFFFFFFFFFFFFF1D
:10936000FFFFFFFFFFFFFFFFFFFFFFFFFFFFFFFF0D
:1093700039C739C641C69CB1F79BFF9BFF9AFF9A3C
:10938000F79AF79AF79AF79AFF9AFF9AFF9AFF9A35
:10939000FF9BFF9BFF9BFF9BFF9BFF7BFF7BFF9B3D
:1093A000FF7AFF7AFF9AFF9AF77AFF7AFF9AF779A6
:1093B000FFB9FFB9FF99FF9AFF7AFF7BFF7BFF9A06
:1093C000F79AF79AF79AF77AF77AF77AFF9AFF9966
:1093D000FF79FF99FFBAFF7AF77BFF9BF77AFF7A55
:1093E000FF9AF79AF77AFF9BFF9AFF9AFF9AFF9AE4
:1093F000FF9AFF79FF99FF98FF97FF96F6F3DDEF4D
:10940000F6D3FF56FFB8FF98FF78FF78FF99FFBAB1
:10941000FF79FF9AFFBAFF9AFF9AFF9BFF9AFF7AA4
:10942000FF9AFF9AFF9AFF9AFF9AFF9AFF9AFF9A74
:10943000FF9AFF9AFF9AFF9AFF9AFF9AFF9AFF9B63
:10944000942E41C539C639C8ADD8A5B8ADD8ADB789
:10945000FFFFFFFFFFFFFFFFFFFFFFFFFFFFFFFF1C
:10946000FFFFFFFFFFFFFFFFFFFFFFFFFFFFFFFF0C
:1094700039C739C641C69CB1F79BFF9BFF9AFF9A3B
:10948000F79AF79AF79AF79AFF9AFF9AFF9AFF9A34
:10949000FFBBFF9AF77AFF9BFF7BFF7AFF7BFF9B67
:1094A000FF9BFF7AFF9AFF9BF77BF77AF79BFF9A68
:1094B000F79AF79AFFBAFF9BFF9BFF9BFF9AFF9AD1
:1094C000F77AF79AFF9AFF9BFF9BFFBBF79AF77A11
:1094D000FF9AFF7AFF9BF77AF79BFFBBF77AFFBBF8
:1094E000FF9AF79AF77AFF9BFFBBF77AF77AFF9A12
:1094F000F77AFF9BFF9BFF9AFF99FF98FF98FF77F2
:10950000FF78FF99FF99FF9AFF9AFF9AF77AFF9ADF
:10951000FF9AF79AFF9AFF9AFF9AFF9AFF9AFF9A8B
:10952000FF9AFF9AFF9AFF9AFF9AFF9AFF9AFF9A73
:10953000FF9AFF9AFF9AFF9AFF9AFF9AFF9AFF9B62
:10954000942E41C539C639C8ADD8A5B8ADD8ADB788
:10955000FFFFFFFFFFFFFFFFFFFFFFFFFFFFFFFF1B
:10956000FFFFFFFFFFFFFFFFFFFFFFFFFFFFFFFF0B
:1095700039C739C641C69CB1FF9BFFBBFF9AF79A1A
:10958000F79AF79AF79AF79AF79AF79AFF9AFF9A43
:10959000FF9AFF9AFF9AFF9AFF9AFF9AFF9AFF9A03
:1095A000FF9AFF9AFF9AFF9AFF9AFF9AFF9AFF9AF3
:1095B000FF9AFF9AFF9AFF9BFF9BFF9AFF9AFF9AE1
:1095C000FF9AFF7BFF7BFF7BF79BF79BF79AF79A4E
:1095D000FF9AFF9AFF9AF79BF79BF79BFF9AFF9AD8
:1095E000FF9AF79AF79BF79BF79AF79AF79AFF9AE1
:1095F000FF9BFF9BF79BF79AF79AFF9AFF99FF99BA
:10960000FF9AFF9AFF9AFF9AF79AF79AFF9AFF9AA2
:10961000FF9AFF9AFF9AFF9AFF9AFF9AFF9AFF9A82
:10962000FF9AFF9AFF9AFF9AFF9AFF9AFF9AFF9A72
:10963000FF9AFF9AFF9AFF9AFF9AFF9AFF9AFF9B61
:10964000942E41C539C639C8B5F9ADD8ADD8ADB736
:10965000FFFFFFFFFFFFFFFFFFFFFFFFFFFFFFFF1A
:10966000FFFFFFFFFFFFFFFFFFFFFFFFFFFFFFFF0A
:1096700039C739E641C69CB1F77BFF9BF79AFF9A41
:10968000F79AF79AF79AF79AF79AF79AFF9AFF9A42
:10969000FF9AFF9AFF9AFF9AFF9AFF9AFF9AFF9A02
:1096A000FF9AFF9AFF9AFF9AFF9AFF9AFF9AFF9AF2
:1096B000FF9AFF9AFF9BFF9BFF9BFF9AFF9AFF9ADF
:1096C000FF7BFF7BFF7BFF7BFF9BF79BF79AF79A64
:1096D000FF9AFF9AFF9AF79AF79BF79BFF9AFF9AD8
:1096E000FF9AF79BF79BF79BF79BF79AF79AF79AE6
:1096F000FF9BFF9BFF9BF79BF79AF79AF79AFF9ABE
:10970000FF9AFF9AF79AF79BF79BF79AFF9AFF9AAF
:10971000FF9AFF9AFF9AFF9AFF9AFF9AFF9BFF9A80
:10972000FF9AFF9AFF9AFF9AFF9AFF9AFF9AFF9A71
:10973000FF9AFF9AFF9AFF9AFF9AFF9AFF9AFF9B60
:10974000944E41E639C631C7ADB8A5B8A5D8ADD756
:10975000FFFFFFFFFFFFFFFFFFFFFFFFFFFFFFFF19
:10976000FFFFFFFFFFFFFFFFFFFFFFFFFFFFFFFF09
:1097700039C741E741C69CB1F77BF79BF79AFF9A3F
:10978000FF9AFF9AFF9AFF9AFF9AFF9AFF9AFF9A11
:10979000FF9AFF9AFF9BFF9BFF9AFF9AFF9AFF9AFF
:1097A000FF9BFF9BFF9BFF9BFF9AFF9AFF9AFF9AED
:1097B000FF9AFF7BFF7BFF7BFF9BFF9BFF9AFF9A3C
:1097C000F79BFF9BFF7BFF7BFF9BF79AF79AF79A2C
:1097D000FF9AFF9AFF9AF79AF79AF79AFF9AFF9AD9
:1097E000FF7BFF9BFF9BF79BF79BF79BFF9AFF9AE3
:1097F000FF9AFF9AFF9AFF9AFF9AFF9AFF9AFF9AA1
:10980000FF9AFF9AF79AF79AF79AFF9AFF7AFF7AE8
:10981000FF7AFF7AFF7BFF7BFF9BF79BF79BF79B12
:10982000FF9AFF9AFF9AFF9AFF9AFF9AFF9AFF9A70
:10983000FF9AFF9AFF9AFF9AFF9AFF9AFF9AFF9B5F
:10984000942E41E639C631C7ADB8A598ADD8ADD88C
:10985000FFFFFFFFFFFFFFFFFFFFFFFFFFFFFFFF18
:10986000FFFFFFFFFFFFFFFFFFFFFFFFFFFFFFFF08
:1098700039C739E641C69CD1F77BF79BF79AFF9A27
:10988000FF9BFF9BFF9AFF9AFF9AFF9AFF9AFF9A0E
:10989000FF9AFF9AFF9BFF9BFF9AFF9AFF9AFF9AFE
:1098A000FF9BFF9BFF9BFF9BFF9BFF9AFF9AFF9AEB
:1098B000FF9AFF9BFF9BFF7BFF9BFF9BFF9AFF9AFB
:1098C000F79AF79BFF9AFF9AFF9AFF9AF79AFF9AE7
:1098D000FF9AFF9AFF9AFF9AF79AF79AF79AFF9AD8
:1098E000FF9AFF7BFF7BFF9BFF9BF79BFF9AFF9AF3
:1098F000FF9AFF9AFF7AFF9AFF9AFF9AFF9BFF9BBE
:10990000FF9BF79BF79AF79AFF9AFF9AFF7AFF7AE5
:10991000FF7AFF7BFF7BFF9BF79BF79BF79BF79BF8
:10992000FF9AFF9AFF9AFF9AFF9AFF9AFF9AFF9A6F
:10993000FF9AFF9AFF9AFF9AFF9AFF9AFF9AFF9B5E
:109940008C2E41C639C631C7ADD8A5B8ADD8ADD774
:10995000FFFFFFFFFFFFFFFFFFFFFFFFFFFFFFFF17
:10996000FFFFFFFFFFFFFFFFFFFFFFFFFFFFFFFF07
:1099700039A639C641C69CD1FF9BFF9BFF9AFF9A2F
:10998000FF9BFF9BFF9AFF9AFF9AFF9AFF9AFF9A0D
:10999000FF9BFF9BFF9BFF9BFF9AFF9AFF9AFF9AFB
:1099A000FF9AFF9AFF9AFF9BFF9AF79AF79AF79A06
:1099B000F79BF79BF79BFF9BFF9BFF9AFF9AFF9AF2
:1099C000F79AF79AFF9AFF9AFF9AFF9AF79AFF9BE6
:1099D000FF7BFF7BFF7BFF9AF79AF79AF79AFF9A34
:1099E000FF9AFF9AFF9AFF9AFF9AFF9AFF9AFF9AAF
:1099F000FF9AFF9AFF9AFF9AFF9AFF9AFF9AF79AA7
:109A0000F79BF79BF79AF79AF79AFF9AFF9AFF9AB4
:109A1000FF7AFF9AFF9AFF9AF79AF79AFF9AFF9AAE
:109A2000FF9AFF9AFF9AFF9AFF9AFF9AFF9AFF9A6E
:109A3000FF9AFF9AFF9AFF9AFF9AFF9AFF9AFF9B5D
:109A4000942E41E639C631C7ADD8ADD8ADF8ADD703
:109A5000FFFFFFFFFFFFFFFFFFFFFFFFFFFFFFFF16
:109A6000FFFFFFFFFFFFFFFFFFFFFFFFFFFFFFFF06
:109A700039C739C639C69CB1F79BFFBBFF9AFF9A1D
:109A8000FF9AFF9AFF9AFF9AFF9AFF9AFF9AFF9A0E
:109A9000FF9BFF9BFF9BFF9BFF9AFF9AFF9AFF9AFA
:109AA000FF9AFF9AFF9AFF9AFF9AF79AF79AF79A06
:109AB000F79AF79AF79AFF9AFF9AFF9AFF9AFF9AF6
:109AC000F79AF79AFF9AFF9AFF9AFF9AF79AF79BED
:109AD000FF9BFF7BFF7BFF9AF79AF79AF79AFF9A13
:109AE000FF9AFF9AFF9AFF9AFF9AFF9AFF9AFF9AAE
:109AF000FF9AFF9AFF9AFF9AFF9AFF9AF79AF79AAE
:109B0000FF9BFF9BF79AF79AF79AFF9AFF9AFF9AA3
:109B1000FF9AFF9AFF9AF79AF79AF79AFF9AFF9A95
:109B2000FF9AFF9AFF9AFF9AFF9AFF9AFF9AFF9A6D
:109B3000FF9AFF9AFF9AFF9AFF9AFF9AFF9AFF9B5C
:109B4000942E41E639C731C7ADB8A5B8ADD8ADD769
:109B5000FFFFFFFFFFFFFFFFFFFFFFFFFFFFFFFF15
:109B6000FFFFFFFFFFFFFFFFFFFFFFFFFFFFFFFF05
:109B7000420841E739A59490F77BFF9BFF9AFF9A33
:109B8000FF9AFF9AFF9AFF9AFF9AFF9AFF9AFF9A0D
:109B9000FF9BFF9BFF9BFF9BFF9AFF9AFF9AFF9AF9
:109BA000F79AF79AF79AFF9BFF9BFF9AFF9AFF9A03
:109BB000FF9AFF9AFF9AFF9AFF9AF79AF79BF79BF3
:109BC000FF9BFF7BFF7AFF7AFF9AF79AF79AF79A43
:109BD000F79BFF9BFF9AFF9AF79AF79AFF9BFF9BD1
:109BE000F79BF79AFF9AFF9AFF9AFF9AFF7BFF7BFA
:109BF000FF7BFF9AFF9AFF9AFF9AFF9AF79AFF9AC4
:109C0000FF7BFF7BFF7BFF9AFF9BFF7BFF7BFF7B45
:109C1000FF9BF79BF79BF79AF79AFF9AFF7BFF7BD7
:109C2000FF9AFF9AFF9AFF9AFF9AFF9AFF9AFF9A6C
:109C3000FF9AFF9AFF9AFF9AFF9AFF9AFF9AFF9B5B
:109C400083CC41C541E739E8ADD8A5B8ADD8ADD78B
:109C5000FFFFFFFFFFFFFFFFFFFFFFFFFFFFFFFF14
:109C6000FFFFFFFFFFFFFFFFFFFFFFFFFFFFFFFF04
:109C70004A48420739A59470F75BF79BF79BFF9B17
:109C8000FF9AFF9AFF9AFF9AFF9AFF9AFF9AFF9B0B
:109C9000FF9BFF9BFF9BFF9BFF9BFF9AFF9AF79AFF
:109CA000F79AF79AF79BF79BFF9BFF7BFF9AFF9A28
:109CB000FF9AFF9AFF9AFF9AF79AF79AF79BF79BFA
:109CC000FF9BFF7BFF7BFF9AFF9AF79AF79AF79A21
:109CD000F79BF79BFF9AFF9AF79AF79AFF9BFF9BD8
:109CE000F79BF79BF79BFF9BFF7BFF7BFF7BFF7B3C
:109CF000FF7BFF9BFF9BFF9BFF9BFF9BF79BFF9BBC
:109D0000FF7BFF7BFF7BFF9BFF7BFF9BFF7BFF9B23
:109D1000F79BF79BF79BF79BF79BFF9BFF7BFF7BDB
:109D2000FF9BF79AFF9BF79AFF9BF79AFF9BF79A87
:109D3000FF9BF79AFF9BF79AFF9BF79AFF9BF79B76
:109D40006B4B318542083A29B5F9A5B8ADD8ADD8E5
:109D5000FFFFFFFFFFFFFFFFFFFFFFFFFFFFFFFF13
:109D6000FFFFFFFFFFFFFFFFFFFFFFFFFFFFFFFF03
:109D700083EF39C641C662EAEF1AFFFDF75AF77B57
:109D8000F79BF79BFF9BF79BF77BF79BFF9BFF9B4B
:109D9000FF9BFF9BFF9BFF9BFF9BFF9BFF9BFF9BF3
:109DA000FF9BFF9BFF9BFF9BFF9BFF9BFF9BFF9BE3
:109DB000FF9BFF9BFF9BFF9BFF9BFF9BFF9BFF9BD3
:109DC000FF9BFF9BFF9BFF9BFF9BFF9BFF9BFF9BC3
:109DD000FF9BFF9BFF9BFF9BFF9BFF9BFF9BFF9BB3
:109DE000FF9BFF9BFF9BFF9BFF9BFF9BFF9BFF9BA3
:109DF000FF9BFF9BFF9BFF9BFF9BFF9BFF9BFF9B93
:109E0000FF9BFF9BFF9BFF9BFF9BFF9BFF9BFF9B82
:109E1000FF9BFF9BFF9BFF9BFF9BFF9BFF9BFF9B72
:109E2000FF9BF79BFF9BF79BFF9BF79BFF9BF79B82
:109E3000FF9BF79BFF9BF77AF77AFFDCFFDCEF3A9B
:109E40004A27420831A7634EA597B5F9ADD8ADB7FB
:109E5000FFFFFFFFFFFFFFFFFFFFFFFFFFFFFFFF12
:109E6000FFFFFFFFFFFFFFFFFFFFFFFFFFFFFFFF02
:109E7000A4F341E7318541E683EECE36FFBCFFDD3A
:109E8000F77BF77BF77BF77BF77BF77BF77BF77B42
:109E9000F79BF79BF79BF79BF79BF79BF79BF79B32
:109EA000F79BF79BF79BF79BF79BF79BF79BF79B22
:109EB000F79BF79BF79BF79BF79BF79BF79BF79B12
:109EC000F79BF79BF79BF79BF79BF79BF79BF79B02
:109ED000F79BF79BF79BF79BF79BF79BF79BF79BF2
:109EE000F79BF79BF79BF79BF79BF79BF79BF79BE2
:109EF000F79BF79BF79BF79BF79BF79BF79BF79BD2
:109F0000F79BF79BF79BF79BF79BF79BF79BF79BC1
:109F1000F79BF79BF79BF79BF79BF79BF79BF79BB1
:109F2000F79BF79BF79BF79BF79BF79BF79BF79BA1
:109F3000EF3AF77BFFBCFFBCFFBCEF5ABDB47BAD73
:109F40004A49298631E87C11ADB7ADB8A5B7ADB7A0
:109F5000FFFFFFFFFFFFFFFFFFFFFFFFFFFFFFFF11
:109F6000FFFFFFFFFFFFFFFFFFFFFFFFFFFFFFFF01
:109F7000FFDF736D316539A639C652896B2B62EAF2
:109F8000734C734C734C734C736C734B734B6B4BC4
:109F9000734B734B734B734B734B734B734B734BD1
:109FA000734B734B734B734B734B734B734B734BC1
:109FB000734B734B734B734B734B734B734B734BB1
:109FC000734B734B734B734B734B734B734B734BA1
:109FD000734B734B734B734B734B734B734B734B91
:109FE000734B734B734B734B734B734B734B734B81
:109FF000734B734B734B734B734B734B734B734B71
:10A00000734B734B734B734B734B734B734B734B60
:10A01000734B734B734B734B734B734B734B734B50
:10A02000734B734B734B734B734B734B734B734B40
:10A03000736C734B6B4B6B2B6B2B6B4B5288296484
:10A0400031A72987634E9D56ADD8ADB8ADD8BE199E
:10A05000FFFFFFFFFFFFFFFFFFFFFFFFFFFFFFFF10
:10A06000FFFFFFFFFFFFFFFFFFFFFFFFFFFFFFFF00
:10A07000FFFFBDD7528A41E731653185318541E720
:10A0800039C639A639A639C641C639E639C639A610
:10A0900039C639C639C639C639C639C639C639C6C8
:10A0A00039C639C639C639C639C639C639C639C6B8
:10A0B00039C639C639C639C639C639C639C639C6A8
:10A0C00039C639C639C639C639C639C639C639C698
:10A0D00039C639C639C639C639C639C639C639C688
:10A0E00039C639C639C639C639C639C639C639C678
:10A0F00039C639C639C639C639C639C639C639C668
:10A1000039C639C639C639C639C639C639C639C657
:10A1100039C639C639C639C639C639C639C639C647
:10A1200039C639C639C639C639C639C639C639C637
:10A1300039C631A539C641E739E639C639E639C7E6
:10A1400029664AAB94F5ADF8ADB8ADD8ADD8C65ACE
:10A15000FFFFFFFFFFFFFFFFFFFFFFFFFFFFFFFF0F
:10A16000FFFFFFFFFFFFFFFFFFFFFFFFFFFFFFFFFF
:10A17000FFFFFFFFD6BA94914A2841E739A639E795
:10A1800039E739C739A739C739E73A0839E739E72D
:10A1900039E739E739E739E739E739E739E739E7BF
:10A1A00039E739E739E739E739E739E739E739E7AF
:10A1B00039E739E739E739E739E739E739E739E79F
:10A1C00039E739E739E739E739E739E739E739E78F
:10A1D00039E739E739E739E739E739E739E739E77F
:10A1E00039E739E739E739E739E739E739E739E76F
:10A1F00039E739E739E739E739E739E739E739E75F
:10A2000039E739E739E739E739E739E739E739E74E
:10A2100039E739E739E739E739E739E739E739E73E
:10A2200039E739E739E739E739E739E739E739E72E
:10A23000420839C739C739E839E731A739C739E89A
:10A24000634E8CB3ADF8ADD8ADB8ADB8ADD8D6DCF3
:10A25000FFFFFFFFFFFFFFFFFFFFFFFFFFFFFFFF0E
:10A26000FFFFFFFFFFFFFFFFFFFFFFFFFFFFFFFFFE
:10A27000FFFFFFFFFFFFFFFFB59694B284106B6DE9
:10A28000632D5AEC52AB52AA52AB52CB52CB52CBAB
:10A2900052CB52CB52CB52CB52CB52CB52CB52CBD6
:10A2A00052CB52CB52CB52CB52CB52CB52CB52CBC6
:10A2B00052CB52CB52CB52CB52CB52CB52CB52CBB6
:10A2C00052CB52CB52CB52CB52CB52CB52CB52CBA6
:10A2D00052CB52CB52CB52CB52CB52CB52CB52CB96
:10A2E00052CB52CB52CB52CB52CB52CB52CB52CB86
:10A2F00052CB52CB52CB52CB52CB52CB52CB52CB76
:10A3000052CB52CB52CB52CB52CB52CB52CB52CB65
:10A3100052CB52CB52CB52CB52CB52CB52CB52CB55
:10A3200052CB52CB52CB52CB52CB52CB52CB52CB45
:10A3300052EC52EC52CB52AB52EC636E7C108472F6
:10A34000A576B5F8B5F9ADB8ADB8A597BE39FFFF9C
:10A35000FFFFFFFFFFFFFFFFFFFFFFFFFFFFFFFF0D
:10A36000FFFFFFFFFFFFFFFFFFFFFFFFFFFFFFFFFD
:10A37000FFFFF7BEFFFFFFFFFFFFFFFFFFFFFFFF36
:10A38000EF7EDEFCC659B5D7ADB7B5B7B5D7ADD7FB
:10A39000ADD7ADD7ADD7ADD7ADD7ADD7ADD7ADD79D
:10A3A000ADD7ADD7ADD7ADD7ADD7ADD7ADD7ADD78D
:10A3B000ADD7ADD7ADD7ADD7ADD7ADD7ADD7ADD77D
:10A3C000ADD7ADD7ADD7ADD7ADD7ADD7ADD7ADD76D
:10A3D000ADD7ADD7ADD7ADD7ADD7ADD7ADD7ADD75D
:10A3E000ADD7ADD7ADD7ADD7ADD7ADD7ADD7ADD74D
:10A3F000ADD7ADD7ADD7ADD7ADD7ADD7ADD7ADD73D
:10A40000ADD7ADD7ADD7ADD7ADD7ADD7ADD7ADD72C
:10A41000ADD7ADD7ADD7ADD7ADD7ADD7ADD7ADD71C
:10A42000ADD7ADD7ADD7ADD7ADD7ADD7ADD7ADD70C
:10A43000A576ADB7B5F8ADD8ADB7ADB7ADB7ADD8BA
:10A44000ADD8B5F8A5B7ADB7ADD8BE39E73DFFFF7C
:10A45000FFFFFFFFFFFFFFFFFFFFFFFFFFFFFFFF0C
:10A46000FFFFFFFFFFFFFFFFFFFFFFFFFFFFFFFFFC
:10A47000FFFFFFFFFFFFFFDFFFFFFFFFFFFFFFFF0C
:10A48000FFFFF7DFD6FBBE38B5D7ADB7ADB7ADB779
:10A49000ADB7ADB7ADD7ADD7ADD7ADD7ADD8ADD7DB
:10A4A000ADD7ADD7ADD7ADD7ADD7ADD7ADD7ADD78C
:10A4B000ADD7ADD7ADD7ADD7ADD7ADD7ADD7ADD77C
:10A4C000ADD7ADD7ADD7ADD7ADD7ADD7ADD7ADD76C
:10A4D000ADD7ADD7ADD7ADD7ADD7ADD7ADD7ADD75C
:10A4E000ADD7ADD7ADD7ADD7ADD7ADD7ADD7ADD74C
:10A4F000ADD7ADD7ADD7ADD7ADD7ADD7ADD7ADD73C
:10A50000ADD7ADD7ADD7ADD7ADD7ADD7ADD7ADD72B
:10A51000ADD7ADD7ADD7ADD7ADD7ADD7ADD7ADD71B
:10A52000ADD7ADD7ADD7ADD7ADD7ADD7ADD7ADD70B
:10A53000B5F8ADB7ADB7ADD7B5F8ADB7ADB7B5D820
:10A54000ADD7ADD7AD97B619CE9BEFBFFFFFFFFFDD
:10A55000FFFFFFFFFFFFFFFFFFFFFFFFFFFFFFFF0B
:10A56000FFFFFFFFFFFFFFFFFFFFFFFFFFFFFFFFFB
:10A57000FFFFFFFFFFFFFFFFFFFFFFFFFFFFFFFFEB
:10A58000FFFFFFFFFFFFFFFFF7DFF7BEEF7EE75D97
:10A59000E77EE77EE77EE77EE77EE77EE77EE77E93
:10A5A000E77EE77EE77EE77EE77EE77EE77EE77E83
:10A5B000E77EE77EE77EE77EE77EE77EE77EE77E73
:10A5C000E77EE77EE77EE77EE77EE77EE77EE77E63
:10A5D000E77EE77EE77EE77EE77EE77EE77EE77E53
:10A5E000E77EE77EE77EE77EE77EE77EE77EE77E43
:10A5F000E77EE77EE77EE77EE77EE77EE77EE77E33
:10A60000E77EE77EE77EE77EE77EE77EE77EE77E22
:10A61000E77EE77EE77EE77EE77EE77EE77EE77E12
:10A62000E77EE77EE77EE77EE77EE77EE77EE77E02
:10A63000E77EE77EE77EE77EE77EE77EE77EE77EF2
:10A64000E77EEF9EEFBFF7FFFFFFFFFFFFFFFFFF7C
:10A65000FFFFFFFFFFFFFFFFFFFFFFFFFFFFFFFF0A
:10A66000FFFFFFFFFFFFFFFFFFFFFFFFFFFFFFFFFA
:10A67000FFFFFFFFFFFFFFFFFFFFFFFFFFFFFFFFEA
:10A68000FFFFFFFFFFFFFFFFFFFFFFFFFFFFFFFFDA
:10A69000FFFFFFFFFFFFFFFFFFFFFFFFFFFFFFFFCA
:10A6A000FFFFFFFFFFFFFFFFFFFFFFFFFFFFFFFFBA
:10A6B000FFFFFFFFFFFFFFFFFFFFFFFFFFFFFFFFAA
:10A6C000FFFFFFFFFFFFFFFFFFFFFFFFFFFFFFFF9A
:10A6D000FFFFFFFFFFFFFFFFFFFFFFFFFFFFFFFF8A
:10A6E000FFFFFFFFFFFFFFFFFFFFFFFFFFFFFFFF7A
:10A6F000FFFFFFFFFFFFFFFFFFFFFFFFFFFFFFFF6A
:10A70000FFFFFFFFFFFFFFFFFFFFFFFFFFFFFFFF59
:10A71000FFFFFFFFFFFFFFFFFFFFFFFFFFFFFFFF49
:10A72000FFFFFFFFFFFFFFFFFFFFFFFFFFFFFFFF39
:10A73000FFFFFFFFFFFFFFFFFFFFFFFFFFFFFFFF29
:10A74000F7DFFFFFFFFFFFFFFFFFFFFFFFFFFFFF41
:10A75000FFFFFFFFFFFFFFFFFFFFFFFFFFFFFFFF09
:10A76000FFFFFFFFFFFFFFFFFFFFFFFFFFFFFFFFF9
:10A77000FFFFFFFFFFFFFFFFFFFFFFFFFFFFFFFFE9
:10A78000FFFFFFFFFFFFFFFFFFFFFFFFFFFFFFFFD9
:10BD600000000000000000000102030406070809AB
:10BD7000A0860100400D0300801A060000350C006B
:10BD800040420F0080841E0000093D0000127A002E
:10BD90000024F40000366E010048E801006CDC026B
:10BDA0000000000001020304000000000000000089
:10BDB00000000000000020202020200000200000C3
:10BDC0002828500000000000000000000000505033
:10BDD000F85050F850500000002070A8A0603028A3
:10BDE000A8702000000048A8B0A87434544800008F
:10BDF00000002050506CA8A89468000040408000CB
:10BE0000000000000000000008101020202020206A
:10BE100010100800402020101010101020204000AA
:10BE200000000020A87070A8200000000000001092
:10BE3000107C101000000000000000000000000056
:10BE4000404080000000000000FC000000000000F6
:10BE5000000000000000000000400000000408088E
:10BE6000101020204040800000007088888888885A
:10BE7000887000000000206020202020207000003A
:10BE8000000070888810204080F800000000708852
:10BE9000083008088870000000001030305090F81A
:10BEA000103800000000F88080F0880888700000DA
:10BEB0000000304880B0C888887000000000780812
:10BEC00010102020202000000000708888708888D2
:10BED00088700000000070888898680890600000F2
:10BEE0000000000020000000002000000000000012
:10BEF000002000000020200000000810204040200A
:10BF00001008000000000000FC00FC000000000021
:10BF10000000402010080810204000000000708839
:10BF200088102020002000000000384494B4B4B8E9
:10BF300044380000000020203050507848CC0000E9
:10BF40000000F0484870484848F000000000788839
:10BF500080808080887000000000F0484848484891
:10BF600048F000000000F8485070504048F80000C9
:10BF70000000F8485070504040E000000000384891
:10BF800080809C88483000000000CC4848784848B1
:10BF900048CC00000000F8202020202020F80000DD
:10BFA00000007C1010101010101090E00000EC4801
:10BFB0005060504848EC00000000E04040404040E5
:10BFC00044FC00000000DCD8D8D8A8A8A8AC000029
:10BFD0000000DC486868585848E800000000708895
:10BFE00088888888887000000000F04848704040C9
:10BFF00040E0000000007088888888E89870180089
:10C000000000F0484870504848EC00000000788874
:10C010008060100888F000000000F8A82020202090
:10C02000207000000000CC484848484848300000D4
:10C030000000CC4848505030202000000000A8A844
:10C04000A8A87050505000000000D8505020205038
:10C0500050D800000000D850505020202070000020
:10C060000000F8901020204048F8000038202020E0
:10C0700020202020202038000040402020201010C8
:10C080001008080070101010101010101010700020
:10C090002050000000000000000000000000000030
:10C0A00000000000000000FC402000000000000034
:10C0B000000000000000000000304838483C00004C
:10C0C00000C0404040704848487000000000000038
:10C0D0000038484048300000001808080838484830
:10C0E000483C000000000000003048784038000064
:10C0F0000018242020782020207800000000000074
:10C10000003C48304038443800C040404070484807
:10C1100048EC00000020200000602020207000007B
:10C120000010100000301010101010E000C040404F
:10C130004058506050C8000000E0202020202020FF
:10C1400020F800000000000000F0A8A8A8A8000047
:10C150000000000000F0484848EC0000000000002B
:10C1600000304848483000000000000000F0484817
:10C17000487040E000000000003848484838081C7B
:10C180000000000000D8604040E000000000000017
:10C19000007840300878000000000020207820203F
:10C1A000203800000000000000D84848483C00004B
:10C1B0000000000000D850502020000000000000C7
:10C1C00000A8A870505000000000000000D85020C7
:10C1D00050D800000000000000CC4848301020C0BB
:10C1E00000000000007810202078000018101010C7
:10C1F0001030101010101800101010101010101027
:10C20000101010106020202020102020202060001E
:10C210006890000000000000000000000000000026
:10C22000000000000000000000000000000000000E
:10C2300000000000000000000000000000000000FE
:10C2400000000000000000000000000000000000EE
:10C2500000000000060006000600060006000600BA
:10C2600006000200040004000400000000000000BA
:10C2700006000600060000000000000000000000AC
:10C28000066006600CC0198011002200000000004A
:10C29000000000000000000000000000000000009E
:10C2A000000000000000000000000000000000008E
:10C2B0000000000008400840084008407FE07FE0A0
:10C2C000104010801080108010807FE07FE0208080
:10C2D000208020802080000000000000000000007E
:10C2E0000000020002000F801AC032C033C03200CA
:10C2F0001A000E0007000380038002C032C03AC05B
:10C3000032C012800F000200020000000000000096
:10C3100000000000708050808900890089008A0038
:10C320008A005C0075C005400A200A2012201220F5
:10C330001220214021C00000000000000000000089
:10C34000000000001C0036003600360036003600C3
:10C35000340019E038805880CC80CC80C680C7007B
:10C36000C31063903CE000000000000000000000EB
:10C370003000380008000800100020000000000015
:10C3800000000000000000000000000000000000AD
:10C39000000000000000000000000000000000009D
:10C3A00000200040008001000100020002000400A3
:10C3B0000400040004000400040004000200020061
:10C3C000010001000080004000200000000000008B
:10C3D00040002000100008000800040004000200D3
:10C3E0000200020002000200020002000400040039
:10C3F00008000800100020004000000000000000BD
:10C400000000000000000000020003000200623093
:10C4100072F00B800F807AF062300200020002009E
:10C42000000000000000000000000000000000000C
:10C4300000000000000000000000020002000200F6
:10C44000020002007FF0020002000200020002006F
:10C4500000000000000000000000000000000000DC
:10C4600000000000000000000000000000000000CC
:10C4700000000000000000000000000000000000BC
:10C480003000380008000800100020000000000004
:10C49000000000000000000000000000000000009C
:10C4A000000000007FE0000000000000000000002D
:10C4B000000000000000000000000000000000007C
:10C4C000000000000000000000000000000000006C
:10C4D000000000000000000000000000000000005C
:10C4E00038003800380000000000000000000000A4
:10C4F00000200060004000C00080008001000100BA
:10C5000002000200060004000400080008001000F9
:10C51000100030002000600040000000000000001B
:10C520000000000000000F00198030C030C06060C3
:10C53000606060606060606060606060606030C0CB
:10C5400030C019800F000000000000000000000053
:10C5500000000000000002003E0006000600060089
:10C56000060006000600060006000600060006009B
:10C57000060006003FC000000000000000000000B0
:10C580000000000000001F00218040C060C060C0AB
:10C5900000C0008001800300060004000800104075
:10C5A000204060407FC0000000000000000000004C
:10C5B0000000000000001E006300618061800180B7
:10C5C000018003000E000180008000C000C060C038
:10C5D00060C061801F00000000000000000000003B
:10C5E00000000000000001800180038005800580BC
:10C5F000098011801180218041807FF001800180BD
:10C600000180018007E00000000000000000000041
:10C610000000000000003FC020002000200020009B
:10C6200020002F00318020C000C000C060C060C06A
:10C63000418021801F000000000000000000000079
:10C64000000000000000078018C030C0300020004B
:10C650006000678068C070606060606060602060DB
:10C66000304018C00F000000000000000000000073
:10C670000000000000001FE03060204020800080AB
:10C680000080010001000200020002000600060016
:10C690000600060006000000000000000000000088
:10C6A0000000000000001F8030C0606060606060BB
:10C6B000304038C00F00138030C060606060606040
:10C6C000606030C00F80000000000000000000002B
:10C6D0000000000000000F00308030C0604060604B
:10C6E0006060606060E031601E60006000C000C09B
:10C6F000308031801E0000000000000000000000BB
:10C700000000000000000000000000000000000029
:10C710000700070007000000000000000000000004
:10C7200007000700070000000000000000000000F4
:10C7300000000000000000000000000000000000F9
:10C7400006000600000000000000000000000000DD
:10C7500000000600060002000400040000000000C3
:10C7600000000000002000400080010002000400E2
:10C770000800100020001000080004000200010062
:10C7800000800040002000000000000000000000C9
:10C790000000000000000000000000000000000099
:10C7A0007FE00000000000007FE0000000000000CB
:10C7B0000000000000000000000000000000000079
:10C7C000000000002000100008000400020001002A
:10C7D00000800040002000400080010002000400B2
:10C7E0000800100020000000000000000000000011
:10C7F00000000000000007C01860203020303030FA
:10C80000303000E001800200020002000000000061
:10C810000700070007000000000000000000000003
:10C8200000000000070018C0304033A026A066A01A
:10C8300065A06D206D206D206D206D40278030201B
:10C84000304018C00F000000000000000000000091
:10C85000000000000000060006000A000B000900AE
:10C8600009001100118010801F8020C020C02040CE
:10C8700040404060F0F000000000000000000000B8
:10C880000000000000007F0031C030C030C030C068
:10C8900030C031803F0030C03040306030603060A8
:10C8A000306030C07F800000000000000000000009
:10C8B00000000000000007C018C0306030202020B9
:10C8C0006000600060006000600060006020302058
:10C8D000304018C00F000000000000000000000001
:10C8E000000000000000FE00318030C030C0306029
:10C8F000306030603060306030603060306030C058
:10C9000030C03180FE000000000000000000000088
:10C91000000000000000FFC060C0602060206000D8
:10C92000610061007F0061006100610060006020C3
:10C9300060206040FFC00000000000000000000018
:10C94000000000000000FFC060C0602060206000A8
:10C95000610061007F0061006100610060006000B3
:10C9600060006000F800000000000000000000000F
:10C970000000000000000F001880304030402040D0
:10C98000600060006000600063F060C060C030C0A4
:10C9900030C018C00F0000000000000000000000C0
:10C9A000000000000000F0F06060606060606060A7
:10C9B000606060607FE060606060606060606060D8
:10C9C00060606060F0F00000000000000000000007
:10C9D0000000000000003FC0060006000600060040
:10C9E0000600060006000600060006000600060017
:10C9F000060006003FC0000000000000000000002C
:10CA00000000000000001FE003000300030003001B
:10CA100003000300030003000300030003000300FE
:10CA2000030003000300630066003C0000000000F8
:10CA3000000000000000F3C0618063006200640039
:10CA400068006C0074007600620063006100618021
:10CA5000608060C0F1E00000000000000000000005
:10CA6000000000000000F80060006000600060004E
:10CA70006000600060006000600060006000602096
:10CA800060206040FFC000000000000000000000C7
:10CA9000000000000000E0E061C061C071C071C032
:10CAA00072C072C052C05AC05AC05CC04CC04CC0A8
:10CAB0004CC048C0E1E000000000000000000000A1
:10CAC00000000000000071F03040384038402C4039
:10CAD0002C402640264022402340214021C021C036
:10CAE00020C020C0F840000000000000000000004E
:10CAF0000000000000000F00198030C0304060606E
:10CB00006060606060606060606060606060304075
:10CB100030C019800F00000000000000000000007D
:10CB2000000000000000FF0060C0606060606060A6
:10CB30006060606061C07F00600060006000600055
:10CB400060006000F800000000000000000000002D
:10CB50000000000000000F00198030C0304060600D
:10CB60006060606060606060606060606E60324005
:10CB700033C019800F0001E000C000000000000079
:10CB8000000000000000FF8060C0606060606060C6
:10CB9000606060C07F00620063006100618060C00F
:10CBA00060C06060F0700000000000000000000045
:10CBB0000000000000001F4030C060406040600086
:10CBC00070003C001F0007C001C000E040604060F2
:10CBD000606030C00F800000000000000000000016
:10CBE0000000000000007FE046208610861006004E
:10CBF0000600060006000600060006000600060005
:10CC0000060006001F800000000000000000000079
:10CC100000000000000078E03040304030403040FC
:10CC20003040304030403040304030403040304084
:10CC3000304018800F0000000000000000000000DD
:10CC4000000000000000F0E0604020802080308084
:10CC5000308011001100190019000A000A000E00AE
:10CC60000C000400040000000000000000000000B0
:10CC7000000000000000EF70462042206220622089
:10CC800026402640274027403940398019801980A6
:10CC900011801100110000000000000000000000E1
:10CCA00000000000000079E030801080188009004A
:10CCB0000D0006000400060006000B0009001180AC
:10CCC000108020C071E000000000000000000000A3
:10CCD000000000000000F0F0602020403040108094
:10CCE00018801D000D000E0006000600060006005C
:10CCF000060006001F800000000000000000000089
:10CD00000000000000003FE0304060C04080018033
:10CD100001000200020004000400080018001020B6
:10CD2000302020407FC00000000000000000000014
:10CD300007C0040004000400040004000400040010
:10CD400004000400040004000400040004000400C3
:10CD5000040004000400040007C0000000000000FC
:10CD60000000000020002000100010000800080053
:10CD7000080004000400020002000300010001009A
:10CD800000800080004000400040002000000000C3
:10CD90003E00020002000200020002000200020047
:10CDA0000200020002000200020002000200020073
:10CDB00002000200020002003E0000000000060027
:10CDC00009001080000000000000000000000000CA
:10CDD0000000000000000000000000000000000053
:10CDE0000000000000000000000000000000000043
:10CDF0000000000000000000000000000000000033
:10CE00000000000000000000000000000000000022
:10CE100000000000000000000000FFF00000000023
:10CE200018000600000000000000000000000000E4
:10CE300000000000000000000000000000000000F2
:10CE400000000000000000000000000000000000E2
:10CE500000000000000000000000000000000000D2
:10CE60000F8030C030C000C007C038C070C060C084
:10CE700060C071D03E7000000000000000000000A3
:10CE80000000000010007000300030003000300062
:10CE900033803CC03860306030603060306030607B
:10CEA000304038C027800000000000000000000073
:10CEB0000000000000000000000000000000000072
:10CEC0000F00318031806180600060006000604050
:10CED000304030800F000000000000000000000023
:10CEE00000000000004003C000C000C000C000C03F
:10CEF0001EC031C030C060C060C060C060C060C0D3
:10CF000020C031E01E800000000000000000000092
:10CF10000000000000000000000000000000000011
:10CF2000078018C01040306030603FE030003000B3
:10CF300018201840078000000000000000000000DA
:10CF400000000000000003C006600C600C000C0034
:10CF50007F800C000C000C000C000C000C000C007E
:10CF60000C000C003F8000000000000000000000EA
:10CF700000000000000000000000000000000000B1
:10CF80000FE01B6031803180318019801F0030003C
:10CF90003F0033C060C060C071C01F0000000000CF
:10CFA0000000000010007000300030003000300041
:10CFB000378038C030C030C030C030C030C030C022
:10CFC00030C030C079E00000000000000000000028
:10CFD0000000000000000600060000000000020043
:10CFE0003E000600060006000600060006000600D9
:10CFF000060006003FC00000000000000000000026
:10D00000000000000000038003800000000000809A
:10D010000F800180018001800180018001800180FA
:10D02000018001800180018033003E00000000008B
:10D0300000000000100070003000300030003000B0
:10D0400031C031003100320036003A003100318009
:10D05000308030C079E000000000000000000000D7
:10D060000000000002003E00060006000600060068
:10D070000600060006000600060006000600060080
:10D08000060006003FC00000000000000000000095
:10D090000000000000000000000000000000000090
:10D0A000ECE0776066606660666066606660666039
:10D0B00066606660FFF000000000000000000000F5
:10D0C0000000000000000000000000000000000060
:10D0D000778038C030C030C030C030C030C030C0C1
:10D0E00030C030C079E00000000000000000000007
:10D0F0000000000000000000000000000000000030
:10D100000F00198030C060606060606060606060C7
:10D1100030C030C00F000000000000000000000020
:10D1200000000000000000000000000000000000FF
:10D13000778038C0306030603060306030603060A0
:10D1400030C038C03780300030007C000000000064
:10D1500000000000000000000000000000000000CF
:10D160001E4031C030C060C060C060C060C060C0E0
:10D1700020C031C01EC000C000C003E0000000009D
:10D18000000000000000000000000000000000009F
:10D19000F9C01A601C601800180018001800180068
:10D1A00018001800FF000000000000000000000050
:10D1B000000000000000000000000000000000006F
:10D1C0000FC038C0304030401C000F0003C020C0EA
:10D1D00020C031C03F8000000000000000000000BF
:10D1E0000000000000000000040004000C000C001F
:10D1F0007F800C000C000C000C000C000C000C00DC
:10D200000C400C40078000000000000000000000FF
:10D2100000000000000000000000000000001040BE
:10D2200071C030C030C030C030C030C030C030C03D
:10D2300030C039E01E800000000000000000000047
:10D2400000000000000000000000000000000000DE
:10D2500078E0304010801080188009000D000D002B
:10D2600006000600040000000000000000000000AE
:10D2700000000000000000000000000000000000AE
:10D28000EF704620622026402640374039801980C2
:10D29000198019801000000000000000000000004C
:10D2A000000000000000000000000000000000007E
:10D2B0003DE0188008800D00060006000700090008
:10D2C000108010C079E000000000000000000000A5
:10D2D000000000000000000000000000000000004E
:10D2E00079E0108010801080090009000D00060010
:10D2F00006000600040004002400380000000000BE
:10D30000000000000000000000000000000000001D
:10D310003F80218023002200060004000C001840FA
:10D32000104030C03F8000000000000000000000FE
:10D3300000C0010001000100010001000100010026
:10D3400001000200040002000100010001000100D0
:10D35000010001000100010000C000000200020005
:10D3600002000200020002000200020002000200AD
:10D37000020002000200020002000200020002009D
:10D380000200020002000200020002000000000091
:10D390003000080008000800080008000800080025
:10D3A000080004000200040008000800080008004B
:10D3B00008000800080008003000000000003800E5
:10D3C0004420432001C000000000000000000000D5
:10D3D000000000000000000000000000000000004D
:10D3E0000000000000000000000000000CD4000855
:10D3F00000000020340000002C37000840D4000852
:10D4000034000020340E00003C370008010000000A
:10D4100010000000000000000000000000000000FC
:10D4200000000000000000000100000000000000FB
:10D43000000000000000000000093D0000000000A6
:040000050800018D61
:00000001FF
